
AFEC_ADC_Heartbeat.elf:     file format elf32-littlearm

Sections:
Idx Name          Size      VMA       LMA       File off  Algn
  0 .text         000030ac  00400000  00400000  00010000  2**6
                  CONTENTS, ALLOC, LOAD, READONLY, CODE
  1 .relocate     00000854  20400000  004030ac  00020000  2**3
                  CONTENTS, ALLOC, LOAD, CODE
  2 .bss          00000294  20400854  00403900  00020854  2**2
                  ALLOC
  3 .stack        00002000  20400ae8  00403b94  00020854  2**0
                  ALLOC
  4 .heap         00000200  20402ae8  00405b94  00020854  2**0
                  ALLOC
  5 .ARM.attributes 0000002e  00000000  00000000  00020854  2**0
                  CONTENTS, READONLY
  6 .comment      00000059  00000000  00000000  00020882  2**0
                  CONTENTS, READONLY
  7 .debug_info   0001827b  00000000  00000000  000208db  2**0
                  CONTENTS, READONLY, DEBUGGING
  8 .debug_abbrev 00003574  00000000  00000000  00038b56  2**0
                  CONTENTS, READONLY, DEBUGGING
  9 .debug_loc    00004c37  00000000  00000000  0003c0ca  2**0
                  CONTENTS, READONLY, DEBUGGING
 10 .debug_aranges 00000af0  00000000  00000000  00040d01  2**0
                  CONTENTS, READONLY, DEBUGGING
 11 .debug_ranges 00000af0  00000000  00000000  000417f1  2**0
                  CONTENTS, READONLY, DEBUGGING
 12 .debug_macro  0001f9e9  00000000  00000000  000422e1  2**0
                  CONTENTS, READONLY, DEBUGGING
 13 .debug_line   0000dd80  00000000  00000000  00061cca  2**0
                  CONTENTS, READONLY, DEBUGGING
 14 .debug_str    0008c49f  00000000  00000000  0006fa4a  2**0
                  CONTENTS, READONLY, DEBUGGING
 15 .debug_frame  00002034  00000000  00000000  000fbeec  2**2
                  CONTENTS, READONLY, DEBUGGING

Disassembly of section .text:

00400000 <exception_table>:
  400000:	e8 2a 40 20 ad 0d 40 00 a9 0d 40 00 a9 0d 40 00     .*@ ..@...@...@.
  400010:	a9 0d 40 00 a9 0d 40 00 a9 0d 40 00 00 00 00 00     ..@...@...@.....
	...
  40002c:	a9 0d 40 00 a9 0d 40 00 00 00 00 00 a9 0d 40 00     ..@...@.......@.
  40003c:	a9 0d 40 00 a9 0d 40 00 a9 0d 40 00 a9 0d 40 00     ..@...@...@...@.
  40004c:	a9 0d 40 00 a9 0d 40 00 a9 0d 40 00 a9 0d 40 00     ..@...@...@...@.
  40005c:	a9 0d 40 00 a9 0d 40 00 00 00 00 00 d1 0b 40 00     ..@...@.......@.
  40006c:	e5 0b 40 00 f9 0b 40 00 a9 0d 40 00 a9 0d 40 00     ..@...@...@...@.
  40007c:	a9 0d 40 00 0d 0c 40 00 21 0c 40 00 a9 0d 40 00     ..@...@.!.@...@.
  40008c:	a9 0d 40 00 a9 0d 40 00 a9 0d 40 00 a9 0d 40 00     ..@...@...@...@.
  40009c:	a9 0d 40 00 a9 0d 40 00 a9 0d 40 00 a9 0d 40 00     ..@...@...@...@.
  4000ac:	a9 0d 40 00 a9 0d 40 00 b5 07 40 00 a9 0d 40 00     ..@...@...@...@.
  4000bc:	a9 0d 40 00 a9 0d 40 00 a9 0d 40 00 a9 0d 40 00     ..@...@...@...@.
  4000cc:	a9 0d 40 00 00 00 00 00 a9 0d 40 00 00 00 00 00     ..@.......@.....
  4000dc:	a9 0d 40 00 c9 07 40 00 a9 0d 40 00 a9 0d 40 00     ..@...@...@...@.
  4000ec:	a9 0d 40 00 a9 0d 40 00 a9 0d 40 00 a9 0d 40 00     ..@...@...@...@.
  4000fc:	a9 0d 40 00 a9 0d 40 00 a9 0d 40 00 a9 0d 40 00     ..@...@...@...@.
  40010c:	a9 0d 40 00 a9 0d 40 00 00 00 00 00 00 00 00 00     ..@...@.........
  40011c:	00 00 00 00 a9 0d 40 00 a9 0d 40 00 a9 0d 40 00     ......@...@...@.
  40012c:	a9 0d 40 00 a9 0d 40 00 00 00 00 00 a9 0d 40 00     ..@...@.......@.
  40013c:	a9 0d 40 00                                         ..@.

00400140 <__do_global_dtors_aux>:
  400140:	b510      	push	{r4, lr}
  400142:	4c05      	ldr	r4, [pc, #20]	; (400158 <__do_global_dtors_aux+0x18>)
  400144:	7823      	ldrb	r3, [r4, #0]
  400146:	b933      	cbnz	r3, 400156 <__do_global_dtors_aux+0x16>
  400148:	4b04      	ldr	r3, [pc, #16]	; (40015c <__do_global_dtors_aux+0x1c>)
  40014a:	b113      	cbz	r3, 400152 <__do_global_dtors_aux+0x12>
  40014c:	4804      	ldr	r0, [pc, #16]	; (400160 <__do_global_dtors_aux+0x20>)
  40014e:	f3af 8000 	nop.w
  400152:	2301      	movs	r3, #1
  400154:	7023      	strb	r3, [r4, #0]
  400156:	bd10      	pop	{r4, pc}
  400158:	20400854 	.word	0x20400854
  40015c:	00000000 	.word	0x00000000
  400160:	004030ac 	.word	0x004030ac

00400164 <frame_dummy>:
  400164:	4b0c      	ldr	r3, [pc, #48]	; (400198 <frame_dummy+0x34>)
  400166:	b143      	cbz	r3, 40017a <frame_dummy+0x16>
  400168:	480c      	ldr	r0, [pc, #48]	; (40019c <frame_dummy+0x38>)
  40016a:	490d      	ldr	r1, [pc, #52]	; (4001a0 <frame_dummy+0x3c>)
  40016c:	b510      	push	{r4, lr}
  40016e:	f3af 8000 	nop.w
  400172:	480c      	ldr	r0, [pc, #48]	; (4001a4 <frame_dummy+0x40>)
  400174:	6803      	ldr	r3, [r0, #0]
  400176:	b923      	cbnz	r3, 400182 <frame_dummy+0x1e>
  400178:	bd10      	pop	{r4, pc}
  40017a:	480a      	ldr	r0, [pc, #40]	; (4001a4 <frame_dummy+0x40>)
  40017c:	6803      	ldr	r3, [r0, #0]
  40017e:	b933      	cbnz	r3, 40018e <frame_dummy+0x2a>
  400180:	4770      	bx	lr
  400182:	4b09      	ldr	r3, [pc, #36]	; (4001a8 <frame_dummy+0x44>)
  400184:	2b00      	cmp	r3, #0
  400186:	d0f7      	beq.n	400178 <frame_dummy+0x14>
  400188:	e8bd 4010 	ldmia.w	sp!, {r4, lr}
  40018c:	4718      	bx	r3
  40018e:	4b06      	ldr	r3, [pc, #24]	; (4001a8 <frame_dummy+0x44>)
  400190:	2b00      	cmp	r3, #0
  400192:	d0f5      	beq.n	400180 <frame_dummy+0x1c>
  400194:	4718      	bx	r3
  400196:	bf00      	nop
  400198:	00000000 	.word	0x00000000
  40019c:	004030ac 	.word	0x004030ac
  4001a0:	20400858 	.word	0x20400858
  4001a4:	004030ac 	.word	0x004030ac
  4001a8:	00000000 	.word	0x00000000

004001ac <_read>:
int __attribute__((weak))
_read (int file, char * ptr, int len); // Remove GCC compiler warning

int __attribute__((weak))
_read (int file, char * ptr, int len)
{
  4001ac:	e92d 41f0 	stmdb	sp!, {r4, r5, r6, r7, r8, lr}
	int nChars = 0;

	if (file != 0) {
  4001b0:	b980      	cbnz	r0, 4001d4 <_read+0x28>
  4001b2:	460c      	mov	r4, r1
  4001b4:	4690      	mov	r8, r2
		return -1;
	}

	for (; len > 0; --len) {
  4001b6:	2a00      	cmp	r2, #0
  4001b8:	dd0f      	ble.n	4001da <_read+0x2e>
  4001ba:	188f      	adds	r7, r1, r2
		ptr_get(stdio_base, ptr);
  4001bc:	4e08      	ldr	r6, [pc, #32]	; (4001e0 <_read+0x34>)
  4001be:	4d09      	ldr	r5, [pc, #36]	; (4001e4 <_read+0x38>)
  4001c0:	6830      	ldr	r0, [r6, #0]
  4001c2:	4621      	mov	r1, r4
  4001c4:	682b      	ldr	r3, [r5, #0]
  4001c6:	4798      	blx	r3
		ptr++;
  4001c8:	3401      	adds	r4, #1
	for (; len > 0; --len) {
  4001ca:	42bc      	cmp	r4, r7
  4001cc:	d1f8      	bne.n	4001c0 <_read+0x14>
		nChars++;
	}
	return nChars;
}
  4001ce:	4640      	mov	r0, r8
  4001d0:	e8bd 81f0 	ldmia.w	sp!, {r4, r5, r6, r7, r8, pc}
		return -1;
  4001d4:	f04f 38ff 	mov.w	r8, #4294967295
  4001d8:	e7f9      	b.n	4001ce <_read+0x22>
	for (; len > 0; --len) {
  4001da:	4680      	mov	r8, r0
  4001dc:	e7f7      	b.n	4001ce <_read+0x22>
  4001de:	bf00      	nop
  4001e0:	2040092c 	.word	0x2040092c
  4001e4:	20400924 	.word	0x20400924

004001e8 <_write>:
int __attribute__((weak))
_write (int file, const char *ptr, int len)
{
	int nChars = 0;

	if ((file != 1) && (file != 2) && (file!=3)) {
  4001e8:	3801      	subs	r0, #1
  4001ea:	2802      	cmp	r0, #2
  4001ec:	d815      	bhi.n	40021a <_write+0x32>
{
  4001ee:	e92d 41f0 	stmdb	sp!, {r4, r5, r6, r7, r8, lr}
  4001f2:	460e      	mov	r6, r1
  4001f4:	4614      	mov	r4, r2
		return -1;
	}

	for (; len != 0; --len) {
  4001f6:	b19a      	cbz	r2, 400220 <_write+0x38>
  4001f8:	460d      	mov	r5, r1
		if (ptr_put(stdio_base, *ptr++) < 0) {
  4001fa:	f8df 8038 	ldr.w	r8, [pc, #56]	; 400234 <_write+0x4c>
  4001fe:	4f0c      	ldr	r7, [pc, #48]	; (400230 <_write+0x48>)
  400200:	f8d8 0000 	ldr.w	r0, [r8]
  400204:	f815 1b01 	ldrb.w	r1, [r5], #1
  400208:	683b      	ldr	r3, [r7, #0]
  40020a:	4798      	blx	r3
  40020c:	2800      	cmp	r0, #0
  40020e:	db0a      	blt.n	400226 <_write+0x3e>
  400210:	1ba8      	subs	r0, r5, r6
	for (; len != 0; --len) {
  400212:	3c01      	subs	r4, #1
  400214:	d1f4      	bne.n	400200 <_write+0x18>
  400216:	e8bd 81f0 	ldmia.w	sp!, {r4, r5, r6, r7, r8, pc}
		return -1;
  40021a:	f04f 30ff 	mov.w	r0, #4294967295
  40021e:	4770      	bx	lr
	for (; len != 0; --len) {
  400220:	4610      	mov	r0, r2
  400222:	e8bd 81f0 	ldmia.w	sp!, {r4, r5, r6, r7, r8, pc}
			return -1;
  400226:	f04f 30ff 	mov.w	r0, #4294967295
		}
		++nChars;
	}
	return nChars;
}
  40022a:	e8bd 81f0 	ldmia.w	sp!, {r4, r5, r6, r7, r8, pc}
  40022e:	bf00      	nop
  400230:	20400928 	.word	0x20400928
  400234:	2040092c 	.word	0x2040092c

00400238 <usart_set_async_baudrate>:
 * \retval 1 Baud rate set point is out of range for the given input clock
 * frequency.
 */
uint32_t usart_set_async_baudrate(Usart *p_usart,
		uint32_t baudrate, uint32_t ul_mck)
{
  400238:	b410      	push	{r4}
	uint32_t cd_fp;
	uint32_t cd;
	uint32_t fp;

	/* Calculate the receiver sampling divide of baudrate clock. */
	if (ul_mck >= HIGH_FRQ_SAMPLE_DIV * baudrate) {
  40023a:	010b      	lsls	r3, r1, #4
  40023c:	4293      	cmp	r3, r2
  40023e:	d914      	bls.n	40026a <usart_set_async_baudrate+0x32>
	} else {
		over = LOW_FRQ_SAMPLE_DIV;
	}

	/* Calculate clock divider according to the fraction calculated formula. */
	cd_fp = (8 * ul_mck + (over * baudrate) / 2) / (over * baudrate);
  400240:	00c9      	lsls	r1, r1, #3
  400242:	084b      	lsrs	r3, r1, #1
  400244:	eb03 02c2 	add.w	r2, r3, r2, lsl #3
  400248:	fbb2 f2f1 	udiv	r2, r2, r1
	cd = cd_fp >> 3;
  40024c:	08d3      	lsrs	r3, r2, #3
	fp = cd_fp & 0x07;
	if (cd < MIN_CD_VALUE || cd > MAX_CD_VALUE) {
  40024e:	1e5c      	subs	r4, r3, #1
  400250:	f64f 71fe 	movw	r1, #65534	; 0xfffe
  400254:	428c      	cmp	r4, r1
  400256:	d901      	bls.n	40025c <usart_set_async_baudrate+0x24>
		return 1;
  400258:	2001      	movs	r0, #1
  40025a:	e017      	b.n	40028c <usart_set_async_baudrate+0x54>
	}

	/* Configure the OVER bit in MR register. */
	if (over == 8) {
		p_usart->US_MR |= US_MR_OVER;
  40025c:	6841      	ldr	r1, [r0, #4]
  40025e:	f441 2100 	orr.w	r1, r1, #524288	; 0x80000
  400262:	6041      	str	r1, [r0, #4]
  400264:	e00c      	b.n	400280 <usart_set_async_baudrate+0x48>
		return 1;
  400266:	2001      	movs	r0, #1
  400268:	e010      	b.n	40028c <usart_set_async_baudrate+0x54>
	cd_fp = (8 * ul_mck + (over * baudrate) / 2) / (over * baudrate);
  40026a:	0859      	lsrs	r1, r3, #1
  40026c:	eb01 02c2 	add.w	r2, r1, r2, lsl #3
  400270:	fbb2 f2f3 	udiv	r2, r2, r3
	cd = cd_fp >> 3;
  400274:	08d3      	lsrs	r3, r2, #3
	if (cd < MIN_CD_VALUE || cd > MAX_CD_VALUE) {
  400276:	1e5c      	subs	r4, r3, #1
  400278:	f64f 71fe 	movw	r1, #65534	; 0xfffe
  40027c:	428c      	cmp	r4, r1
  40027e:	d8f2      	bhi.n	400266 <usart_set_async_baudrate+0x2e>
	}

	/* Configure the baudrate generate register. */
	p_usart->US_BRGR = (cd << US_BRGR_CD_Pos) | (fp << US_BRGR_FP_Pos);
  400280:	0412      	lsls	r2, r2, #16
  400282:	f402 22e0 	and.w	r2, r2, #458752	; 0x70000
  400286:	431a      	orrs	r2, r3
  400288:	6202      	str	r2, [r0, #32]

	return 0;
  40028a:	2000      	movs	r0, #0
}
  40028c:	f85d 4b04 	ldr.w	r4, [sp], #4
  400290:	4770      	bx	lr
	...

00400294 <usart_reset>:
 *
 * \param p_usart Pointer to a USART instance.
 */
void usart_disable_writeprotect(Usart *p_usart)
{
	p_usart->US_WPMR = US_WPMR_WPKEY_PASSWD;
  400294:	4b08      	ldr	r3, [pc, #32]	; (4002b8 <usart_reset+0x24>)
  400296:	f8c0 30e4 	str.w	r3, [r0, #228]	; 0xe4
	p_usart->US_MR = 0;
  40029a:	2300      	movs	r3, #0
  40029c:	6043      	str	r3, [r0, #4]
	p_usart->US_RTOR = 0;
  40029e:	6243      	str	r3, [r0, #36]	; 0x24
	p_usart->US_TTGR = 0;
  4002a0:	6283      	str	r3, [r0, #40]	; 0x28
	p_usart->US_CR = US_CR_RSTTX | US_CR_TXDIS;
  4002a2:	2388      	movs	r3, #136	; 0x88
  4002a4:	6003      	str	r3, [r0, #0]
	p_usart->US_CR = US_CR_RSTRX | US_CR_RXDIS;
  4002a6:	2324      	movs	r3, #36	; 0x24
  4002a8:	6003      	str	r3, [r0, #0]
	p_usart->US_CR = US_CR_RSTSTA;
  4002aa:	f44f 7380 	mov.w	r3, #256	; 0x100
  4002ae:	6003      	str	r3, [r0, #0]
	p_usart->US_CR = US_CR_RTSDIS;
  4002b0:	f44f 2300 	mov.w	r3, #524288	; 0x80000
  4002b4:	6003      	str	r3, [r0, #0]
  4002b6:	4770      	bx	lr
  4002b8:	55534100 	.word	0x55534100

004002bc <usart_init_rs232>:
{
  4002bc:	b570      	push	{r4, r5, r6, lr}
  4002be:	4605      	mov	r5, r0
  4002c0:	460c      	mov	r4, r1
  4002c2:	4616      	mov	r6, r2
	usart_reset(p_usart);
  4002c4:	4b0f      	ldr	r3, [pc, #60]	; (400304 <usart_init_rs232+0x48>)
  4002c6:	4798      	blx	r3
	ul_reg_val = 0;
  4002c8:	2200      	movs	r2, #0
  4002ca:	4b0f      	ldr	r3, [pc, #60]	; (400308 <usart_init_rs232+0x4c>)
  4002cc:	601a      	str	r2, [r3, #0]
	if (!p_usart_opt || usart_set_async_baudrate(p_usart,
  4002ce:	b1a4      	cbz	r4, 4002fa <usart_init_rs232+0x3e>
  4002d0:	4632      	mov	r2, r6
  4002d2:	6821      	ldr	r1, [r4, #0]
  4002d4:	4628      	mov	r0, r5
  4002d6:	4b0d      	ldr	r3, [pc, #52]	; (40030c <usart_init_rs232+0x50>)
  4002d8:	4798      	blx	r3
  4002da:	4602      	mov	r2, r0
  4002dc:	b978      	cbnz	r0, 4002fe <usart_init_rs232+0x42>
	ul_reg_val |= p_usart_opt->char_length | p_usart_opt->parity_type |
  4002de:	6863      	ldr	r3, [r4, #4]
  4002e0:	68a1      	ldr	r1, [r4, #8]
  4002e2:	430b      	orrs	r3, r1
  4002e4:	6921      	ldr	r1, [r4, #16]
  4002e6:	430b      	orrs	r3, r1
			p_usart_opt->channel_mode | p_usart_opt->stop_bits;
  4002e8:	68e1      	ldr	r1, [r4, #12]
  4002ea:	430b      	orrs	r3, r1
	ul_reg_val |= p_usart_opt->char_length | p_usart_opt->parity_type |
  4002ec:	4906      	ldr	r1, [pc, #24]	; (400308 <usart_init_rs232+0x4c>)
  4002ee:	600b      	str	r3, [r1, #0]
	p_usart->US_MR |= ul_reg_val;
  4002f0:	6869      	ldr	r1, [r5, #4]
  4002f2:	430b      	orrs	r3, r1
  4002f4:	606b      	str	r3, [r5, #4]
}
  4002f6:	4610      	mov	r0, r2
  4002f8:	bd70      	pop	{r4, r5, r6, pc}
		return 1;
  4002fa:	2201      	movs	r2, #1
  4002fc:	e7fb      	b.n	4002f6 <usart_init_rs232+0x3a>
  4002fe:	2201      	movs	r2, #1
  400300:	e7f9      	b.n	4002f6 <usart_init_rs232+0x3a>
  400302:	bf00      	nop
  400304:	00400295 	.word	0x00400295
  400308:	20400870 	.word	0x20400870
  40030c:	00400239 	.word	0x00400239

00400310 <usart_enable_tx>:
	p_usart->US_CR = US_CR_TXEN;
  400310:	2340      	movs	r3, #64	; 0x40
  400312:	6003      	str	r3, [r0, #0]
  400314:	4770      	bx	lr

00400316 <usart_enable_rx>:
	p_usart->US_CR = US_CR_RXEN;
  400316:	2310      	movs	r3, #16
  400318:	6003      	str	r3, [r0, #0]
  40031a:	4770      	bx	lr

0040031c <usart_write>:
	if (!(p_usart->US_CSR & US_CSR_TXRDY)) {
  40031c:	6943      	ldr	r3, [r0, #20]
  40031e:	f013 0f02 	tst.w	r3, #2
  400322:	d004      	beq.n	40032e <usart_write+0x12>
	p_usart->US_THR = US_THR_TXCHR(c);
  400324:	f3c1 0108 	ubfx	r1, r1, #0, #9
  400328:	61c1      	str	r1, [r0, #28]
	return 0;
  40032a:	2000      	movs	r0, #0
  40032c:	4770      	bx	lr
		return 1;
  40032e:	2001      	movs	r0, #1
}
  400330:	4770      	bx	lr

00400332 <usart_read>:
	if (!(p_usart->US_CSR & US_CSR_RXRDY)) {
  400332:	6943      	ldr	r3, [r0, #20]
  400334:	f013 0f01 	tst.w	r3, #1
  400338:	d005      	beq.n	400346 <usart_read+0x14>
	*c = p_usart->US_RHR & US_RHR_RXCHR_Msk;
  40033a:	6983      	ldr	r3, [r0, #24]
  40033c:	f3c3 0308 	ubfx	r3, r3, #0, #9
  400340:	600b      	str	r3, [r1, #0]
	return 0;
  400342:	2000      	movs	r0, #0
  400344:	4770      	bx	lr
		return 1;
  400346:	2001      	movs	r0, #1
}
  400348:	4770      	bx	lr

0040034a <uart_write>:
 * \retval 1 I/O Failure, UART is not ready.
 */
uint32_t uart_write(Uart *p_uart, const uint8_t uc_data)
{
	/* Check if the transmitter is ready */
	if (!(p_uart->UART_SR & UART_SR_TXRDY))
  40034a:	6943      	ldr	r3, [r0, #20]
  40034c:	f013 0f02 	tst.w	r3, #2
  400350:	d002      	beq.n	400358 <uart_write+0xe>
		return 1;

	/* Send character */
	p_uart->UART_THR = uc_data;
  400352:	61c1      	str	r1, [r0, #28]
	return 0;
  400354:	2000      	movs	r0, #0
  400356:	4770      	bx	lr
		return 1;
  400358:	2001      	movs	r0, #1
}
  40035a:	4770      	bx	lr

0040035c <uart_read>:
 * \retval 1 I/O Failure, UART is not ready.
 */
uint32_t uart_read(Uart *p_uart, uint8_t *puc_data)
{
	/* Check if the receiver is ready */
	if ((p_uart->UART_SR & UART_SR_RXRDY) == 0)
  40035c:	6943      	ldr	r3, [r0, #20]
  40035e:	f013 0f01 	tst.w	r3, #1
  400362:	d003      	beq.n	40036c <uart_read+0x10>
		return 1;

	/* Read character */
	*puc_data = (uint8_t) p_uart->UART_RHR;
  400364:	6983      	ldr	r3, [r0, #24]
  400366:	700b      	strb	r3, [r1, #0]
	return 0;
  400368:	2000      	movs	r0, #0
  40036a:	4770      	bx	lr
		return 1;
  40036c:	2001      	movs	r0, #1
}
  40036e:	4770      	bx	lr

00400370 <fifo_init>:
 */

#include "fifo.h"

int fifo_init(fifo_desc_t *fifo_desc, void *buffer, uint8_t size)
{
  400370:	4603      	mov	r3, r0
	// ... and must fit in a uint8_t. Since the read and write indexes are using a
	// double-index range implementation, the max FIFO size is thus 128 items.
	Assert (size <= 128);

	// Fifo starts empty.
	fifo_desc->read_index  = 0;
  400372:	2000      	movs	r0, #0
  400374:	7118      	strb	r0, [r3, #4]
	fifo_desc->write_index = 0;
  400376:	7158      	strb	r0, [r3, #5]

	// Save the size parameter.
	fifo_desc->size = size;
  400378:	719a      	strb	r2, [r3, #6]

	// Create a mask to speed up the FIFO management (index swapping).
	fifo_desc->mask = (2 * (uint16_t)size) - 1;
  40037a:	0052      	lsls	r2, r2, #1
  40037c:	3a01      	subs	r2, #1
  40037e:	71da      	strb	r2, [r3, #7]

	// Save the buffer pointer.
	fifo_desc->buffer.u8ptr = buffer;
  400380:	6019      	str	r1, [r3, #0]

	return FIFO_OK;
}
  400382:	4770      	bx	lr

00400384 <fifo_average_uint16>:

uint16_t fifo_average_uint16(fifo_desc_t *fifo_desc)
{
  400384:	b4f0      	push	{r4, r5, r6, r7}
 *
 *  \return The number of used elements.
 */
static inline uint8_t fifo_get_used_size(fifo_desc_t *fifo_desc)
{
	return ((fifo_desc->write_index - fifo_desc->read_index) & fifo_desc->mask);
  400386:	7947      	ldrb	r7, [r0, #5]
  400388:	7903      	ldrb	r3, [r0, #4]
  40038a:	79c4      	ldrb	r4, [r0, #7]
  40038c:	1aff      	subs	r7, r7, r3
	uint8_t read_index;
	uint32_t num_elements = fifo_get_used_size(fifo_desc);
  40038e:	4027      	ands	r7, r4
	uint32_t aux = num_elements;
	uint32_t sum = 0;
	read_index = fifo_desc->read_index;
  400390:	7903      	ldrb	r3, [r0, #4]
	
	while(aux--) {
  400392:	b1b7      	cbz	r7, 4003c2 <fifo_average_uint16+0x3e>
  400394:	b265      	sxtb	r5, r4
  400396:	b2db      	uxtb	r3, r3
  400398:	1e7a      	subs	r2, r7, #1
		sum += (int16_t) fifo_desc->buffer.u16ptr[read_index & (fifo_desc->mask >> 1)];
  40039a:	6806      	ldr	r6, [r0, #0]
  40039c:	0864      	lsrs	r4, r4, #1
  40039e:	2000      	movs	r0, #0
  4003a0:	ea04 0103 	and.w	r1, r4, r3
  4003a4:	f936 1011 	ldrsh.w	r1, [r6, r1, lsl #1]
  4003a8:	4408      	add	r0, r1
		read_index = (read_index + 1) & fifo_desc->mask;
  4003aa:	3301      	adds	r3, #1
  4003ac:	402b      	ands	r3, r5
  4003ae:	b2db      	uxtb	r3, r3
	while(aux--) {
  4003b0:	3a01      	subs	r2, #1
  4003b2:	f1b2 3fff 	cmp.w	r2, #4294967295
  4003b6:	d1f3      	bne.n	4003a0 <fifo_average_uint16+0x1c>
	}
	
	return sum/num_elements;
  4003b8:	fbb0 f0f7 	udiv	r0, r0, r7
  4003bc:	b280      	uxth	r0, r0
  4003be:	bcf0      	pop	{r4, r5, r6, r7}
  4003c0:	4770      	bx	lr
	uint32_t sum = 0;
  4003c2:	4638      	mov	r0, r7
  4003c4:	e7f8      	b.n	4003b8 <fifo_average_uint16+0x34>
	...

004003c8 <afec_temp_sensor_end_conversion>:
static inline uint32_t afec_channel_get_value(Afec *const afec,
		enum afec_channel_num afec_ch)
{
	afec_ch_sanity_check(afec, afec_ch);

	afec->AFEC_CSELR = afec_ch;
  4003c8:	4b04      	ldr	r3, [pc, #16]	; (4003dc <afec_temp_sensor_end_conversion+0x14>)
  4003ca:	2205      	movs	r2, #5
  4003cc:	665a      	str	r2, [r3, #100]	; 0x64
	return afec->AFEC_CDR;
  4003ce:	6e9a      	ldr	r2, [r3, #104]	; 0x68
/**
 * \brief AFEC interrupt callback function.
 */
static void afec_temp_sensor_end_conversion(void)
{
	g_ul_value = afec_channel_get_value(H4MD69_AFEC, H4MD69_AFEC_CH);
  4003d0:	4b03      	ldr	r3, [pc, #12]	; (4003e0 <afec_temp_sensor_end_conversion+0x18>)
  4003d2:	601a      	str	r2, [r3, #0]
	is_conversion_done = true;
  4003d4:	2201      	movs	r2, #1
  4003d6:	4b03      	ldr	r3, [pc, #12]	; (4003e4 <afec_temp_sensor_end_conversion+0x1c>)
  4003d8:	701a      	strb	r2, [r3, #0]
  4003da:	4770      	bx	lr
  4003dc:	4003c000 	.word	0x4003c000
  4003e0:	20400874 	.word	0x20400874
  4003e4:	20400878 	.word	0x20400878

004003e8 <h4d69_init>:
}


void h4d69_init(void) {
  4003e8:	b530      	push	{r4, r5, lr}
  4003ea:	b089      	sub	sp, #36	; 0x24
	afec_enable(H4MD69_AFEC);
  4003ec:	4c18      	ldr	r4, [pc, #96]	; (400450 <h4d69_init+0x68>)
  4003ee:	4620      	mov	r0, r4
  4003f0:	4b18      	ldr	r3, [pc, #96]	; (400454 <h4d69_init+0x6c>)
  4003f2:	4798      	blx	r3
	struct afec_config afec_cfg;
	afec_get_config_defaults(&afec_cfg);
  4003f4:	a802      	add	r0, sp, #8
  4003f6:	4b18      	ldr	r3, [pc, #96]	; (400458 <h4d69_init+0x70>)
  4003f8:	4798      	blx	r3
	afec_init(H4MD69_AFEC, &afec_cfg);
  4003fa:	a902      	add	r1, sp, #8
  4003fc:	4620      	mov	r0, r4
  4003fe:	4b17      	ldr	r3, [pc, #92]	; (40045c <h4d69_init+0x74>)
  400400:	4798      	blx	r3
	reg = afec->AFEC_MR;
  400402:	6863      	ldr	r3, [r4, #4]
		reg &= ~(AFEC_MR_TRGSEL_Msk | AFEC_MR_TRGEN | AFEC_MR_FREERUN_ON);
  400404:	f023 038f 	bic.w	r3, r3, #143	; 0x8f
	afec->AFEC_MR = reg;
  400408:	6063      	str	r3, [r4, #4]
	afec_set_trigger(H4MD69_AFEC, AFEC_TRIG_SW);

	struct afec_ch_config afec_ch_cfg;
	afec_ch_get_config_defaults(&afec_ch_cfg);
  40040a:	a801      	add	r0, sp, #4
  40040c:	4b14      	ldr	r3, [pc, #80]	; (400460 <h4d69_init+0x78>)
  40040e:	4798      	blx	r3
	afec_ch_cfg.gain = AFEC_GAINVALUE_0;
  400410:	2300      	movs	r3, #0
  400412:	f88d 3005 	strb.w	r3, [sp, #5]
    fifo_init(&fifo_afec, &fifo_afec_data, MOVING_AVERAGE_SIZE);
  400416:	2280      	movs	r2, #128	; 0x80
  400418:	4912      	ldr	r1, [pc, #72]	; (400464 <h4d69_init+0x7c>)
  40041a:	4813      	ldr	r0, [pc, #76]	; (400468 <h4d69_init+0x80>)
  40041c:	4b13      	ldr	r3, [pc, #76]	; (40046c <h4d69_init+0x84>)
  40041e:	4798      	blx	r3
	afec_ch_set_config(H4MD69_AFEC, H4MD69_AFEC_CH, &afec_ch_cfg);
  400420:	aa01      	add	r2, sp, #4
  400422:	2105      	movs	r1, #5
  400424:	4620      	mov	r0, r4
  400426:	4b12      	ldr	r3, [pc, #72]	; (400470 <h4d69_init+0x88>)
  400428:	4798      	blx	r3
static inline void afec_channel_set_analog_offset(Afec *const afec,
		enum afec_channel_num afec_ch, uint16_t aoffset)
{
	afec_ch_sanity_check(afec, afec_ch);

	afec->AFEC_CSELR = afec_ch;
  40042a:	2105      	movs	r1, #5
  40042c:	6661      	str	r1, [r4, #100]	; 0x64
	afec->AFEC_COCR = (aoffset & AFEC_COCR_AOFF_Msk);
  40042e:	f44f 7300 	mov.w	r3, #512	; 0x200
  400432:	66e3      	str	r3, [r4, #108]	; 0x6c
	afec_channel_set_analog_offset(AFEC0, AFEC_CHANNEL_5, 0x200); // internal ADC offset is 0x200, it should cancel it and shift to 0
	afec_set_callback(H4MD69_AFEC, H4MD69_AFEC_CH_IR, afec_temp_sensor_end_conversion, 1);
  400434:	2301      	movs	r3, #1
  400436:	4a0f      	ldr	r2, [pc, #60]	; (400474 <h4d69_init+0x8c>)
  400438:	4620      	mov	r0, r4
  40043a:	4d0f      	ldr	r5, [pc, #60]	; (400478 <h4d69_init+0x90>)
  40043c:	47a8      	blx	r5
	afec->AFEC_CHER = (afec_ch == AFEC_CHANNEL_ALL) ?
  40043e:	2320      	movs	r3, #32
  400440:	6163      	str	r3, [r4, #20]
__STATIC_INLINE void NVIC_SetPriority(IRQn_Type IRQn, uint32_t priority)
{
  if(IRQn < 0) {
    SCB->SHPR[((uint32_t)(IRQn) & 0xF)-4] = ((priority << (8 - __NVIC_PRIO_BITS)) & 0xff); } /* set Priority for Cortex-M  System Interrupts */
  else {
    NVIC->IP[(uint32_t)(IRQn)]            = ((priority << (8 - __NVIC_PRIO_BITS)) & 0xff); } /* set Priority for device specific Interrupts  */
  400442:	2240      	movs	r2, #64	; 0x40
  400444:	4b0d      	ldr	r3, [pc, #52]	; (40047c <h4d69_init+0x94>)
  400446:	f883 231d 	strb.w	r2, [r3, #797]	; 0x31d
	afec_channel_enable(H4MD69_AFEC, H4MD69_AFEC_CH);
	NVIC_SetPriority(AFEC0_IRQn, 10);
	
}
  40044a:	b009      	add	sp, #36	; 0x24
  40044c:	bd30      	pop	{r4, r5, pc}
  40044e:	bf00      	nop
  400450:	4003c000 	.word	0x4003c000
  400454:	004007dd 	.word	0x004007dd
  400458:	00400621 	.word	0x00400621
  40045c:	0040065d 	.word	0x0040065d
  400460:	00400651 	.word	0x00400651
  400464:	20400938 	.word	0x20400938
  400468:	20400a38 	.word	0x20400a38
  40046c:	00400371 	.word	0x00400371
  400470:	004005f1 	.word	0x004005f1
  400474:	004003c9 	.word	0x004003c9
  400478:	0040075d 	.word	0x0040075d
  40047c:	e000e100 	.word	0xe000e100

00400480 <h4d69_enable_interrupt>:

void h4d69_enable_interrupt(void) {
  400480:	b508      	push	{r3, lr}
	afec_enable_interrupt(H4MD69_AFEC, H4MD69_AFEC_CH_IR);
  400482:	2105      	movs	r1, #5
  400484:	4803      	ldr	r0, [pc, #12]	; (400494 <h4d69_enable_interrupt+0x14>)
  400486:	4b04      	ldr	r3, [pc, #16]	; (400498 <h4d69_enable_interrupt+0x18>)
  400488:	4798      	blx	r3
  NVIC->ISER[(uint32_t)((int32_t)IRQn) >> 5] = (uint32_t)(1 << ((uint32_t)((int32_t)IRQn) & (uint32_t)0x1F)); /* enable interrupt */
  40048a:	f04f 5200 	mov.w	r2, #536870912	; 0x20000000
  40048e:	4b03      	ldr	r3, [pc, #12]	; (40049c <h4d69_enable_interrupt+0x1c>)
  400490:	601a      	str	r2, [r3, #0]
  400492:	bd08      	pop	{r3, pc}
  400494:	4003c000 	.word	0x4003c000
  400498:	00400725 	.word	0x00400725
  40049c:	e000e100 	.word	0xe000e100

004004a0 <h4d69_update>:
	NVIC_EnableIRQ(AFEC0_IRQn);
}

void h4d69_update(void) {
	if(is_conversion_done == true) {
  4004a0:	4b16      	ldr	r3, [pc, #88]	; (4004fc <h4d69_update+0x5c>)
  4004a2:	781b      	ldrb	r3, [r3, #0]
  4004a4:	b1fb      	cbz	r3, 4004e6 <h4d69_update+0x46>
void h4d69_update(void) {
  4004a6:	b410      	push	{r4}
  4004a8:	4915      	ldr	r1, [pc, #84]	; (400500 <h4d69_update+0x60>)
  4004aa:	794b      	ldrb	r3, [r1, #5]
  4004ac:	7908      	ldrb	r0, [r1, #4]
  4004ae:	79ca      	ldrb	r2, [r1, #7]
  4004b0:	1a1b      	subs	r3, r3, r0
  4004b2:	b250      	sxtb	r0, r2
		if(fifo_is_full(&fifo_afec)) {
  4004b4:	7989      	ldrb	r1, [r1, #6]
  4004b6:	4013      	ands	r3, r2
  4004b8:	4299      	cmp	r1, r3
  4004ba:	d015      	beq.n	4004e8 <h4d69_update+0x48>
			fifo_pull_uint16_nocheck(&fifo_afec);
		}
				
		fifo_push_uint16_nocheck(&fifo_afec, (uint32_t) g_ul_value);
  4004bc:	4b11      	ldr	r3, [pc, #68]	; (400504 <h4d69_update+0x64>)
  4004be:	681c      	ldr	r4, [r3, #0]
 */
static inline void fifo_push_uint16_nocheck(fifo_desc_t *fifo_desc, uint32_t item)
{
	uint8_t write_index;

	write_index = fifo_desc->write_index;
  4004c0:	490f      	ldr	r1, [pc, #60]	; (400500 <h4d69_update+0x60>)
  4004c2:	794b      	ldrb	r3, [r1, #5]
  4004c4:	b2db      	uxtb	r3, r3
	fifo_desc->buffer.u16ptr[write_index & (fifo_desc->mask >> 1)] = item;
  4004c6:	ea03 0252 	and.w	r2, r3, r2, lsr #1
  4004ca:	6808      	ldr	r0, [r1, #0]
  4004cc:	f820 4012 	strh.w	r4, [r0, r2, lsl #1]
	write_index = (write_index + 1) & fifo_desc->mask;
  4004d0:	3301      	adds	r3, #1
  4004d2:	79ca      	ldrb	r2, [r1, #7]
  4004d4:	4013      	ands	r3, r2
    This function ensures the apparent order of the explicit memory operations before
    and after the instruction, without ensuring their completion.
 */
__attribute__( ( always_inline ) ) __STATIC_INLINE void __DMB(void)
{
  __ASM volatile ("dmb");
  4004d6:	f3bf 8f5f 	dmb	sy

	// Must be the last thing to do.
	barrier();
	fifo_desc->write_index = write_index;
  4004da:	714b      	strb	r3, [r1, #5]
				
		is_conversion_done = false;
  4004dc:	2200      	movs	r2, #0
  4004de:	4b07      	ldr	r3, [pc, #28]	; (4004fc <h4d69_update+0x5c>)
  4004e0:	701a      	strb	r2, [r3, #0]
	}
}
  4004e2:	f85d 4b04 	ldr.w	r4, [sp], #4
  4004e6:	4770      	bx	lr
static inline uint16_t fifo_pull_uint16_nocheck(fifo_desc_t *fifo_desc)
{
	uint8_t read_index;
	uint16_t item;

	read_index = fifo_desc->read_index;
  4004e8:	4905      	ldr	r1, [pc, #20]	; (400500 <h4d69_update+0x60>)
  4004ea:	790b      	ldrb	r3, [r1, #4]
	item = fifo_desc->buffer.u16ptr[read_index & (fifo_desc->mask >> 1)];
	read_index = (read_index + 1) & fifo_desc->mask;
  4004ec:	3301      	adds	r3, #1
  4004ee:	4018      	ands	r0, r3
  4004f0:	b2c0      	uxtb	r0, r0
  4004f2:	f3bf 8f5f 	dmb	sy

	// Must be the last thing to do.
	barrier();
	fifo_desc->read_index = read_index;
  4004f6:	7108      	strb	r0, [r1, #4]
  4004f8:	e7e0      	b.n	4004bc <h4d69_update+0x1c>
  4004fa:	bf00      	nop
  4004fc:	20400878 	.word	0x20400878
  400500:	20400a38 	.word	0x20400a38
  400504:	20400874 	.word	0x20400874

00400508 <h4d69_convert>:

void h4d69_convert(void) {
	if(!is_conversion_done) {
  400508:	4b03      	ldr	r3, [pc, #12]	; (400518 <h4d69_convert+0x10>)
  40050a:	781b      	ldrb	r3, [r3, #0]
  40050c:	b913      	cbnz	r3, 400514 <h4d69_convert+0xc>
	afec->AFEC_CR = AFEC_CR_START;
  40050e:	2202      	movs	r2, #2
  400510:	4b02      	ldr	r3, [pc, #8]	; (40051c <h4d69_convert+0x14>)
  400512:	601a      	str	r2, [r3, #0]
  400514:	4770      	bx	lr
  400516:	bf00      	nop
  400518:	20400878 	.word	0x20400878
  40051c:	4003c000 	.word	0x4003c000

00400520 <h4d69_get_value>:
	return ((fifo_desc->write_index - fifo_desc->read_index) & fifo_desc->mask);
  400520:	4a09      	ldr	r2, [pc, #36]	; (400548 <h4d69_get_value+0x28>)
  400522:	7953      	ldrb	r3, [r2, #5]
  400524:	7911      	ldrb	r1, [r2, #4]
  400526:	1a5b      	subs	r3, r3, r1
  400528:	79d1      	ldrb	r1, [r2, #7]
		afec_start_software_conversion(AFEC0);
	}
}

int h4d69_get_value(void) { 
	if(fifo_is_full(&fifo_afec)) {
  40052a:	7992      	ldrb	r2, [r2, #6]
  40052c:	400b      	ands	r3, r1
  40052e:	429a      	cmp	r2, r3
  400530:	d001      	beq.n	400536 <h4d69_get_value+0x16>
		return g_ul_value - fifo_average_uint16(&fifo_afec);
	}
	return 0;
  400532:	2000      	movs	r0, #0
  400534:	4770      	bx	lr
int h4d69_get_value(void) { 
  400536:	b510      	push	{r4, lr}
		return g_ul_value - fifo_average_uint16(&fifo_afec);
  400538:	4b04      	ldr	r3, [pc, #16]	; (40054c <h4d69_get_value+0x2c>)
  40053a:	681c      	ldr	r4, [r3, #0]
  40053c:	4802      	ldr	r0, [pc, #8]	; (400548 <h4d69_get_value+0x28>)
  40053e:	4b04      	ldr	r3, [pc, #16]	; (400550 <h4d69_get_value+0x30>)
  400540:	4798      	blx	r3
  400542:	1a20      	subs	r0, r4, r0
  400544:	bd10      	pop	{r4, pc}
  400546:	bf00      	nop
  400548:	20400a38 	.word	0x20400a38
  40054c:	20400874 	.word	0x20400874
  400550:	00400385 	.word	0x00400385

00400554 <h4d69_has_beat>:
}

bool h4d69_has_beat(void) {
  400554:	b508      	push	{r3, lr}
	if(h4d69_get_value() > H4MD69_THRESHOLD) {
  400556:	4b03      	ldr	r3, [pc, #12]	; (400564 <h4d69_has_beat+0x10>)
  400558:	4798      	blx	r3
		return true;
	}
	return false;
  40055a:	2832      	cmp	r0, #50	; 0x32
  40055c:	bfd4      	ite	le
  40055e:	2000      	movle	r0, #0
  400560:	2001      	movgt	r0, #1
  400562:	bd08      	pop	{r3, pc}
  400564:	00400521 	.word	0x00400521

00400568 <afec_process_callback>:
 * \brief Call the callback function if the corresponding interrupt is asserted
 *
 * \param afec  Base address of the AFEC.
 */
static void afec_process_callback(Afec *const afec)
{
  400568:	b570      	push	{r4, r5, r6, lr}
  40056a:	b082      	sub	sp, #8
 *
 * \return The interrupt status value.
 */
static inline uint32_t afec_get_interrupt_status(Afec *const afec)
{
	return afec->AFEC_ISR;
  40056c:	6b02      	ldr	r2, [r0, #48]	; 0x30
 *
 * \return The interrupt mask value.
 */
static inline uint32_t afec_get_interrupt_mask(Afec *const afec)
{
	return afec->AFEC_IMR;
  40056e:	6ac3      	ldr	r3, [r0, #44]	; 0x2c
	volatile uint32_t status;
	uint32_t cnt, inst_num;

	status = afec_get_interrupt_status(afec) & afec_get_interrupt_mask(afec);
  400570:	4013      	ands	r3, r2
  400572:	9301      	str	r3, [sp, #4]
	inst_num = afec_find_inst_num(afec);

	for (cnt = 0; cnt < _AFEC_NUM_OF_INTERRUPT_SOURCE; cnt++) {
  400574:	2400      	movs	r4, #0
	if (afec_callback_pointer[inst_num][source]) {
  400576:	4e1c      	ldr	r6, [pc, #112]	; (4005e8 <afec_process_callback+0x80>)
  400578:	4d1c      	ldr	r5, [pc, #112]	; (4005ec <afec_process_callback+0x84>)
  40057a:	42a8      	cmp	r0, r5
  40057c:	bf14      	ite	ne
  40057e:	2000      	movne	r0, #0
  400580:	2001      	moveq	r0, #1
  400582:	0105      	lsls	r5, r0, #4
  400584:	e00b      	b.n	40059e <afec_process_callback+0x36>
		#elif defined __SAM4E8E__  || defined __SAM4E16E__ || SAMV71 || SAMV70 || SAMS70 || SAME70
			if (status & (1 << cnt)) {
				afec_interrupt(inst_num, (enum afec_interrupt_source)cnt);
			}
		#endif
		} else if (cnt < AFEC_INTERRUPT_TEMP_CHANGE) {
  400586:	2c0e      	cmp	r4, #14
  400588:	d81e      	bhi.n	4005c8 <afec_process_callback+0x60>
			if (status & (1 << (cnt + AFEC_INTERRUPT_GAP1))) {
  40058a:	9a01      	ldr	r2, [sp, #4]
  40058c:	f104 010c 	add.w	r1, r4, #12
  400590:	2301      	movs	r3, #1
  400592:	408b      	lsls	r3, r1
  400594:	4213      	tst	r3, r2
  400596:	d110      	bne.n	4005ba <afec_process_callback+0x52>
	for (cnt = 0; cnt < _AFEC_NUM_OF_INTERRUPT_SOURCE; cnt++) {
  400598:	3401      	adds	r4, #1
  40059a:	2c10      	cmp	r4, #16
  40059c:	d022      	beq.n	4005e4 <afec_process_callback+0x7c>
		if (cnt < AFEC_INTERRUPT_DATA_READY) {
  40059e:	2c0b      	cmp	r4, #11
  4005a0:	d8f1      	bhi.n	400586 <afec_process_callback+0x1e>
			if (status & (1 << cnt)) {
  4005a2:	9a01      	ldr	r2, [sp, #4]
  4005a4:	2301      	movs	r3, #1
  4005a6:	40a3      	lsls	r3, r4
  4005a8:	4213      	tst	r3, r2
  4005aa:	d0f5      	beq.n	400598 <afec_process_callback+0x30>
	if (afec_callback_pointer[inst_num][source]) {
  4005ac:	192b      	adds	r3, r5, r4
  4005ae:	f856 3023 	ldr.w	r3, [r6, r3, lsl #2]
  4005b2:	2b00      	cmp	r3, #0
  4005b4:	d0f0      	beq.n	400598 <afec_process_callback+0x30>
		afec_callback_pointer[inst_num][source]();
  4005b6:	4798      	blx	r3
  4005b8:	e7ee      	b.n	400598 <afec_process_callback+0x30>
	if (afec_callback_pointer[inst_num][source]) {
  4005ba:	192b      	adds	r3, r5, r4
  4005bc:	f856 3023 	ldr.w	r3, [r6, r3, lsl #2]
  4005c0:	2b00      	cmp	r3, #0
  4005c2:	d0e9      	beq.n	400598 <afec_process_callback+0x30>
		afec_callback_pointer[inst_num][source]();
  4005c4:	4798      	blx	r3
  4005c6:	e7e7      	b.n	400598 <afec_process_callback+0x30>
				afec_interrupt(inst_num, (enum afec_interrupt_source)cnt);
			}
		} else {
			if (status & (1 << (cnt + AFEC_INTERRUPT_GAP1 + AFEC_INTERRUPT_GAP2))) {
  4005c8:	9a01      	ldr	r2, [sp, #4]
  4005ca:	f104 010f 	add.w	r1, r4, #15
  4005ce:	2301      	movs	r3, #1
  4005d0:	408b      	lsls	r3, r1
  4005d2:	4213      	tst	r3, r2
  4005d4:	d0e0      	beq.n	400598 <afec_process_callback+0x30>
	if (afec_callback_pointer[inst_num][source]) {
  4005d6:	192b      	adds	r3, r5, r4
  4005d8:	f856 3023 	ldr.w	r3, [r6, r3, lsl #2]
  4005dc:	2b00      	cmp	r3, #0
  4005de:	d0db      	beq.n	400598 <afec_process_callback+0x30>
		afec_callback_pointer[inst_num][source]();
  4005e0:	4798      	blx	r3
  4005e2:	e7d9      	b.n	400598 <afec_process_callback+0x30>
				afec_interrupt(inst_num, (enum afec_interrupt_source)cnt);
			}
		}
	}
}
  4005e4:	b002      	add	sp, #8
  4005e6:	bd70      	pop	{r4, r5, r6, pc}
  4005e8:	20400a40 	.word	0x20400a40
  4005ec:	40064000 	.word	0x40064000

004005f0 <afec_ch_set_config>:
{
  4005f0:	b430      	push	{r4, r5}
	reg = afec->AFEC_DIFFR;
  4005f2:	6e04      	ldr	r4, [r0, #96]	; 0x60
	reg &= ~(0x1u << channel);
  4005f4:	2301      	movs	r3, #1
  4005f6:	408b      	lsls	r3, r1
  4005f8:	ea24 0403 	bic.w	r4, r4, r3
	reg |= (config->diff) ? (0x1u << channel) : 0;
  4005fc:	7815      	ldrb	r5, [r2, #0]
  4005fe:	2d00      	cmp	r5, #0
  400600:	bf08      	it	eq
  400602:	2300      	moveq	r3, #0
  400604:	4323      	orrs	r3, r4
	afec->AFEC_DIFFR = reg;
  400606:	6603      	str	r3, [r0, #96]	; 0x60
	reg = afec->AFEC_CGR;
  400608:	6d44      	ldr	r4, [r0, #84]	; 0x54
	reg &= ~(0x03u << (2 * channel));
  40060a:	004b      	lsls	r3, r1, #1
  40060c:	2103      	movs	r1, #3
  40060e:	4099      	lsls	r1, r3
  400610:	ea24 0401 	bic.w	r4, r4, r1
	reg |= (config->gain) << (2 * channel);
  400614:	7851      	ldrb	r1, [r2, #1]
  400616:	4099      	lsls	r1, r3
  400618:	4321      	orrs	r1, r4
	afec->AFEC_CGR = reg;
  40061a:	6541      	str	r1, [r0, #84]	; 0x54
}
  40061c:	bc30      	pop	{r4, r5}
  40061e:	4770      	bx	lr

00400620 <afec_get_config_defaults>:
	cfg->resolution = AFEC_12_BITS;
  400620:	2200      	movs	r2, #0
  400622:	6002      	str	r2, [r0, #0]
	cfg->mck = sysclk_get_cpu_hz();
  400624:	4b08      	ldr	r3, [pc, #32]	; (400648 <afec_get_config_defaults+0x28>)
  400626:	6043      	str	r3, [r0, #4]
		cfg->afec_clock = 6000000UL;
  400628:	4b08      	ldr	r3, [pc, #32]	; (40064c <afec_get_config_defaults+0x2c>)
  40062a:	6083      	str	r3, [r0, #8]
		cfg->startup_time = AFEC_STARTUP_TIME_4;
  40062c:	f44f 2380 	mov.w	r3, #262144	; 0x40000
  400630:	60c3      	str	r3, [r0, #12]
		cfg->tracktim = 2;
  400632:	2302      	movs	r3, #2
  400634:	7403      	strb	r3, [r0, #16]
		cfg->transfer = 1;
  400636:	2301      	movs	r3, #1
  400638:	7443      	strb	r3, [r0, #17]
		cfg->anach = true;
  40063a:	7483      	strb	r3, [r0, #18]
		cfg->useq = false;
  40063c:	74c2      	strb	r2, [r0, #19]
		cfg->tag = true;
  40063e:	7503      	strb	r3, [r0, #20]
		cfg->stm = true;
  400640:	7543      	strb	r3, [r0, #21]
		cfg->ibctl = 1;
  400642:	7583      	strb	r3, [r0, #22]
  400644:	4770      	bx	lr
  400646:	bf00      	nop
  400648:	11e1a300 	.word	0x11e1a300
  40064c:	005b8d80 	.word	0x005b8d80

00400650 <afec_ch_get_config_defaults>:
	cfg->diff = false;
  400650:	2300      	movs	r3, #0
  400652:	7003      	strb	r3, [r0, #0]
   	cfg->gain = AFEC_GAINVALUE_1;
  400654:	2301      	movs	r3, #1
  400656:	7043      	strb	r3, [r0, #1]
  400658:	4770      	bx	lr
	...

0040065c <afec_init>:
	return afec->AFEC_ISR;
  40065c:	6b02      	ldr	r2, [r0, #48]	; 0x30
	if ((afec_get_interrupt_status(afec) & AFEC_ISR_DRDY) == AFEC_ISR_DRDY) {
  40065e:	f012 7280 	ands.w	r2, r2, #16777216	; 0x1000000
  400662:	d001      	beq.n	400668 <afec_init+0xc>
		return STATUS_ERR_BUSY;
  400664:	2019      	movs	r0, #25
  400666:	4770      	bx	lr
{
  400668:	b410      	push	{r4}
	afec->AFEC_CR = AFEC_CR_SWRST;
  40066a:	2301      	movs	r3, #1
  40066c:	6003      	str	r3, [r0, #0]
	reg = (config->useq ? AFEC_MR_USEQ_REG_ORDER : 0) |
  40066e:	7ccb      	ldrb	r3, [r1, #19]
  400670:	2b00      	cmp	r3, #0
  400672:	bf18      	it	ne
  400674:	f04f 4200 	movne.w	r2, #2147483648	; 0x80000000
			AFEC_MR_PRESCAL((config->mck / config->afec_clock )- 1) |
  400678:	684b      	ldr	r3, [r1, #4]
  40067a:	688c      	ldr	r4, [r1, #8]
  40067c:	fbb3 f3f4 	udiv	r3, r3, r4
  400680:	3b01      	subs	r3, #1
  400682:	021b      	lsls	r3, r3, #8
  400684:	b29b      	uxth	r3, r3
	reg = (config->useq ? AFEC_MR_USEQ_REG_ORDER : 0) |
  400686:	68cc      	ldr	r4, [r1, #12]
  400688:	f444 0400 	orr.w	r4, r4, #8388608	; 0x800000
  40068c:	4323      	orrs	r3, r4
			AFEC_MR_TRACKTIM(config->tracktim) |
  40068e:	7c0c      	ldrb	r4, [r1, #16]
  400690:	0624      	lsls	r4, r4, #24
  400692:	f004 6470 	and.w	r4, r4, #251658240	; 0xf000000
	reg = (config->useq ? AFEC_MR_USEQ_REG_ORDER : 0) |
  400696:	4323      	orrs	r3, r4
			AFEC_MR_TRANSFER(config->transfer) |
  400698:	7c4c      	ldrb	r4, [r1, #17]
  40069a:	0724      	lsls	r4, r4, #28
  40069c:	f004 5440 	and.w	r4, r4, #805306368	; 0x30000000
	reg = (config->useq ? AFEC_MR_USEQ_REG_ORDER : 0) |
  4006a0:	4323      	orrs	r3, r4
  4006a2:	4313      	orrs	r3, r2
	afec->AFEC_MR = reg;
  4006a4:	6043      	str	r3, [r0, #4]
	afec->AFEC_EMR = (config->tag ? AFEC_EMR_TAG : 0) |
  4006a6:	7d0b      	ldrb	r3, [r1, #20]
  4006a8:	2b00      	cmp	r3, #0
  4006aa:	bf14      	ite	ne
  4006ac:	f04f 7380 	movne.w	r3, #16777216	; 0x1000000
  4006b0:	2300      	moveq	r3, #0
  4006b2:	680a      	ldr	r2, [r1, #0]
  4006b4:	4313      	orrs	r3, r2
			(config->stm ? AFEC_EMR_STM : 0);
  4006b6:	7d4a      	ldrb	r2, [r1, #21]
  4006b8:	2a00      	cmp	r2, #0
  4006ba:	bf14      	ite	ne
  4006bc:	f04f 7200 	movne.w	r2, #33554432	; 0x2000000
  4006c0:	2200      	moveq	r2, #0
			(config->resolution) |
  4006c2:	4313      	orrs	r3, r2
	afec->AFEC_EMR = (config->tag ? AFEC_EMR_TAG : 0) |
  4006c4:	6083      	str	r3, [r0, #8]
	afec->AFEC_ACR = AFEC_ACR_IBCTL(config->ibctl) | AFEC_ACR_PGA0EN | AFEC_ACR_PGA1EN;
  4006c6:	7d8b      	ldrb	r3, [r1, #22]
  4006c8:	021b      	lsls	r3, r3, #8
  4006ca:	f403 7340 	and.w	r3, r3, #768	; 0x300
  4006ce:	f043 030c 	orr.w	r3, r3, #12
  4006d2:	f8c0 3094 	str.w	r3, [r0, #148]	; 0x94
	if(afec == AFEC0) {
  4006d6:	4b0f      	ldr	r3, [pc, #60]	; (400714 <afec_init+0xb8>)
  4006d8:	4298      	cmp	r0, r3
  4006da:	d006      	beq.n	4006ea <afec_init+0x8e>
	if(afec == AFEC1) {
  4006dc:	4b0e      	ldr	r3, [pc, #56]	; (400718 <afec_init+0xbc>)
  4006de:	4298      	cmp	r0, r3
  4006e0:	d00d      	beq.n	4006fe <afec_init+0xa2>
	return STATUS_OK;
  4006e2:	2000      	movs	r0, #0
}
  4006e4:	f85d 4b04 	ldr.w	r4, [sp], #4
  4006e8:	4770      	bx	lr
  4006ea:	4b0c      	ldr	r3, [pc, #48]	; (40071c <afec_init+0xc0>)
  4006ec:	f103 0140 	add.w	r1, r3, #64	; 0x40
			afec_callback_pointer[0][i] = 0;
  4006f0:	2200      	movs	r2, #0
  4006f2:	f843 2f04 	str.w	r2, [r3, #4]!
		for (i = 0; i < _AFEC_NUM_OF_INTERRUPT_SOURCE; i++){
  4006f6:	428b      	cmp	r3, r1
  4006f8:	d1fb      	bne.n	4006f2 <afec_init+0x96>
	return STATUS_OK;
  4006fa:	2000      	movs	r0, #0
  4006fc:	e7f2      	b.n	4006e4 <afec_init+0x88>
  4006fe:	4b08      	ldr	r3, [pc, #32]	; (400720 <afec_init+0xc4>)
  400700:	f103 0140 	add.w	r1, r3, #64	; 0x40
			afec_callback_pointer[1][i] = 0;
  400704:	2200      	movs	r2, #0
  400706:	f843 2b04 	str.w	r2, [r3], #4
		for (i = 0; i < _AFEC_NUM_OF_INTERRUPT_SOURCE; i++){
  40070a:	428b      	cmp	r3, r1
  40070c:	d1fb      	bne.n	400706 <afec_init+0xaa>
	return STATUS_OK;
  40070e:	2000      	movs	r0, #0
  400710:	e7e8      	b.n	4006e4 <afec_init+0x88>
  400712:	bf00      	nop
  400714:	4003c000 	.word	0x4003c000
  400718:	40064000 	.word	0x40064000
  40071c:	20400a3c 	.word	0x20400a3c
  400720:	20400a80 	.word	0x20400a80

00400724 <afec_enable_interrupt>:
	if (interrupt_source == AFEC_INTERRUPT_ALL) {
  400724:	4b0c      	ldr	r3, [pc, #48]	; (400758 <afec_enable_interrupt+0x34>)
  400726:	4299      	cmp	r1, r3
  400728:	d007      	beq.n	40073a <afec_enable_interrupt+0x16>
	if (interrupt_source < AFEC_INTERRUPT_DATA_READY) {
  40072a:	290b      	cmp	r1, #11
  40072c:	d80b      	bhi.n	400746 <afec_enable_interrupt+0x22>
		if (interrupt_source == AFEC_INTERRUPT_EOC_11) {
  40072e:	d006      	beq.n	40073e <afec_enable_interrupt+0x1a>
			afec->AFEC_IER = 1 << interrupt_source;
  400730:	2301      	movs	r3, #1
  400732:	fa03 f101 	lsl.w	r1, r3, r1
  400736:	6241      	str	r1, [r0, #36]	; 0x24
  400738:	4770      	bx	lr
		afec->AFEC_IER = AFEC_INTERRUPT_ALL;
  40073a:	6243      	str	r3, [r0, #36]	; 0x24
		return;
  40073c:	4770      	bx	lr
			afec->AFEC_IER = 1 << AFEC_TEMP_INT_SOURCE_NUM;
  40073e:	f44f 6300 	mov.w	r3, #2048	; 0x800
  400742:	6243      	str	r3, [r0, #36]	; 0x24
  400744:	4770      	bx	lr
	} else if (interrupt_source < AFEC_INTERRUPT_TEMP_CHANGE) {
  400746:	290e      	cmp	r1, #14
		afec->AFEC_IER = 1 << (interrupt_source + AFEC_INTERRUPT_GAP1);
  400748:	bf94      	ite	ls
  40074a:	310c      	addls	r1, #12
				+ AFEC_INTERRUPT_GAP2);
  40074c:	310f      	addhi	r1, #15
		afec->AFEC_IER = 1 << (interrupt_source + AFEC_INTERRUPT_GAP1
  40074e:	2301      	movs	r3, #1
  400750:	fa03 f101 	lsl.w	r1, r3, r1
  400754:	6241      	str	r1, [r0, #36]	; 0x24
  400756:	4770      	bx	lr
  400758:	47000fff 	.word	0x47000fff

0040075c <afec_set_callback>:
{
  40075c:	b538      	push	{r3, r4, r5, lr}
	if (afec == AFEC1) {
  40075e:	4c11      	ldr	r4, [pc, #68]	; (4007a4 <afec_set_callback+0x48>)
  400760:	42a0      	cmp	r0, r4
	afec_callback_pointer[i][source] = callback;
  400762:	bf0c      	ite	eq
  400764:	2410      	moveq	r4, #16
  400766:	2400      	movne	r4, #0
  400768:	440c      	add	r4, r1
  40076a:	4d0f      	ldr	r5, [pc, #60]	; (4007a8 <afec_set_callback+0x4c>)
  40076c:	f845 2024 	str.w	r2, [r5, r4, lsl #2]
	if (!i) {
  400770:	d10a      	bne.n	400788 <afec_set_callback+0x2c>
  NVIC->ICPR[((uint32_t)(IRQn) >> 5)] = (1 << ((uint32_t)(IRQn) & 0x1F)); /* Clear pending interrupt */
  400772:	4a0e      	ldr	r2, [pc, #56]	; (4007ac <afec_set_callback+0x50>)
  400774:	f44f 7480 	mov.w	r4, #256	; 0x100
  400778:	f8c2 4184 	str.w	r4, [r2, #388]	; 0x184
    NVIC->IP[(uint32_t)(IRQn)]            = ((priority << (8 - __NVIC_PRIO_BITS)) & 0xff); } /* set Priority for device specific Interrupts  */
  40077c:	015b      	lsls	r3, r3, #5
  40077e:	b2db      	uxtb	r3, r3
  400780:	f882 3328 	strb.w	r3, [r2, #808]	; 0x328
  NVIC->ISER[(uint32_t)((int32_t)IRQn) >> 5] = (uint32_t)(1 << ((uint32_t)((int32_t)IRQn) & (uint32_t)0x1F)); /* enable interrupt */
  400784:	6054      	str	r4, [r2, #4]
  400786:	e009      	b.n	40079c <afec_set_callback+0x40>
  NVIC->ICPR[((uint32_t)(IRQn) >> 5)] = (1 << ((uint32_t)(IRQn) & 0x1F)); /* Clear pending interrupt */
  400788:	4a08      	ldr	r2, [pc, #32]	; (4007ac <afec_set_callback+0x50>)
  40078a:	f04f 5400 	mov.w	r4, #536870912	; 0x20000000
  40078e:	f8c2 4180 	str.w	r4, [r2, #384]	; 0x180
    NVIC->IP[(uint32_t)(IRQn)]            = ((priority << (8 - __NVIC_PRIO_BITS)) & 0xff); } /* set Priority for device specific Interrupts  */
  400792:	015b      	lsls	r3, r3, #5
  400794:	b2db      	uxtb	r3, r3
  400796:	f882 331d 	strb.w	r3, [r2, #797]	; 0x31d
  NVIC->ISER[(uint32_t)((int32_t)IRQn) >> 5] = (uint32_t)(1 << ((uint32_t)((int32_t)IRQn) & (uint32_t)0x1F)); /* enable interrupt */
  40079a:	6014      	str	r4, [r2, #0]
	afec_enable_interrupt(afec, source);
  40079c:	4b04      	ldr	r3, [pc, #16]	; (4007b0 <afec_set_callback+0x54>)
  40079e:	4798      	blx	r3
  4007a0:	bd38      	pop	{r3, r4, r5, pc}
  4007a2:	bf00      	nop
  4007a4:	40064000 	.word	0x40064000
  4007a8:	20400a40 	.word	0x20400a40
  4007ac:	e000e100 	.word	0xe000e100
  4007b0:	00400725 	.word	0x00400725

004007b4 <AFEC0_Handler>:

/**
 * \brief Interrupt handler for AFEC0.
 */
void AFEC0_Handler(void)
{
  4007b4:	b508      	push	{r3, lr}
	afec_process_callback(AFEC0);
  4007b6:	4802      	ldr	r0, [pc, #8]	; (4007c0 <AFEC0_Handler+0xc>)
  4007b8:	4b02      	ldr	r3, [pc, #8]	; (4007c4 <AFEC0_Handler+0x10>)
  4007ba:	4798      	blx	r3
  4007bc:	bd08      	pop	{r3, pc}
  4007be:	bf00      	nop
  4007c0:	4003c000 	.word	0x4003c000
  4007c4:	00400569 	.word	0x00400569

004007c8 <AFEC1_Handler>:

/**
 * \brief Interrupt handler for AFEC1.
 */
void AFEC1_Handler(void)
{
  4007c8:	b508      	push	{r3, lr}
	afec_process_callback(AFEC1);
  4007ca:	4802      	ldr	r0, [pc, #8]	; (4007d4 <AFEC1_Handler+0xc>)
  4007cc:	4b02      	ldr	r3, [pc, #8]	; (4007d8 <AFEC1_Handler+0x10>)
  4007ce:	4798      	blx	r3
  4007d0:	bd08      	pop	{r3, pc}
  4007d2:	bf00      	nop
  4007d4:	40064000 	.word	0x40064000
  4007d8:	00400569 	.word	0x00400569

004007dc <afec_enable>:
 * \brief Enable AFEC Module.
 *
 * \param afec  Base address of the AFEC
 */
void afec_enable(Afec *const afec)
{
  4007dc:	b500      	push	{lr}
  4007de:	b083      	sub	sp, #12
	Assert(afec);
	uint32_t pid;

	pid = afec_find_pid(afec);
	/* Enable peripheral clock. */
	pmc_enable_periph_clk(pid);
  4007e0:	4b13      	ldr	r3, [pc, #76]	; (400830 <afec_enable+0x54>)
  4007e2:	4298      	cmp	r0, r3
  4007e4:	bf0c      	ite	eq
  4007e6:	2028      	moveq	r0, #40	; 0x28
  4007e8:	201d      	movne	r0, #29
  4007ea:	4b12      	ldr	r3, [pc, #72]	; (400834 <afec_enable+0x58>)
  4007ec:	4798      	blx	r3
static inline void sleepmgr_lock_mode(enum sleepmgr_mode mode)
{
#ifdef CONFIG_SLEEPMGR_ENABLE
	irqflags_t flags;

	if(sleepmgr_locks[mode] >= 0xff) {
  4007ee:	4b12      	ldr	r3, [pc, #72]	; (400838 <afec_enable+0x5c>)
  4007f0:	789b      	ldrb	r3, [r3, #2]
  4007f2:	2bff      	cmp	r3, #255	; 0xff
  4007f4:	d01a      	beq.n	40082c <afec_enable+0x50>
 */
__attribute__( ( always_inline ) ) __STATIC_INLINE uint32_t __get_PRIMASK(void)
{
  uint32_t result;

  __ASM volatile ("MRS %0, primask" : "=r" (result) );
  4007f6:	f3ef 8310 	mrs	r3, PRIMASK
static volatile uint32_t cpu_irq_critical_section_counter;
static volatile bool     cpu_irq_prev_interrupt_state;

static inline irqflags_t cpu_irq_save(void)
{
	volatile irqflags_t flags = cpu_irq_is_enabled();
  4007fa:	fab3 f383 	clz	r3, r3
  4007fe:	095b      	lsrs	r3, r3, #5
  400800:	9301      	str	r3, [sp, #4]
  __ASM volatile ("cpsid i" : : : "memory");
  400802:	b672      	cpsid	i
  400804:	f3bf 8f5f 	dmb	sy
	cpu_irq_disable();
  400808:	2200      	movs	r2, #0
  40080a:	4b0c      	ldr	r3, [pc, #48]	; (40083c <afec_enable+0x60>)
  40080c:	701a      	strb	r2, [r3, #0]
	return flags;
  40080e:	9901      	ldr	r1, [sp, #4]
	}

	// Enter a critical section
	flags = cpu_irq_save();

	++sleepmgr_locks[mode];
  400810:	4a09      	ldr	r2, [pc, #36]	; (400838 <afec_enable+0x5c>)
  400812:	7893      	ldrb	r3, [r2, #2]
  400814:	3301      	adds	r3, #1
  400816:	7093      	strb	r3, [r2, #2]
	return (flags);
}

static inline void cpu_irq_restore(irqflags_t flags)
{
	if (cpu_irq_is_enabled_flags(flags))
  400818:	b129      	cbz	r1, 400826 <afec_enable+0x4a>
		cpu_irq_enable();
  40081a:	2201      	movs	r2, #1
  40081c:	4b07      	ldr	r3, [pc, #28]	; (40083c <afec_enable+0x60>)
  40081e:	701a      	strb	r2, [r3, #0]
  400820:	f3bf 8f5f 	dmb	sy
  __ASM volatile ("cpsie i" : : : "memory");
  400824:	b662      	cpsie	i
	sleepmgr_lock_mode(SLEEPMGR_SLEEP_WFI);
}
  400826:	b003      	add	sp, #12
  400828:	f85d fb04 	ldr.w	pc, [sp], #4
  40082c:	e7fe      	b.n	40082c <afec_enable+0x50>
  40082e:	bf00      	nop
  400830:	40064000 	.word	0x40064000
  400834:	00400d55 	.word	0x00400d55
  400838:	20400930 	.word	0x20400930
  40083c:	2040000a 	.word	0x2040000a

00400840 <sysclk_init>:
	pmc_disable_udpck();
}
#endif // CONFIG_USBCLK_SOURCE

void sysclk_init(void)
{
  400840:	b510      	push	{r4, lr}
	struct pll_config pllcfg;

	/* Set flash wait state to max in case the below clock switching. */
	system_init_flash(CHIP_FREQ_CPU_MAX);
  400842:	4810      	ldr	r0, [pc, #64]	; (400884 <sysclk_init+0x44>)
  400844:	4b10      	ldr	r3, [pc, #64]	; (400888 <sysclk_init+0x48>)
  400846:	4798      	blx	r3
		pmc_switch_mainck_to_fastrc(CKGR_MOR_MOSCRCF_12_MHz);
		break;


	case OSC_MAINCK_XTAL:
		pmc_switch_mainck_to_xtal(PMC_OSC_XTAL,
  400848:	213e      	movs	r1, #62	; 0x3e
  40084a:	2000      	movs	r0, #0
  40084c:	4b0f      	ldr	r3, [pc, #60]	; (40088c <sysclk_init+0x4c>)
  40084e:	4798      	blx	r3
	case OSC_MAINCK_4M_RC:
	case OSC_MAINCK_8M_RC:
	case OSC_MAINCK_12M_RC:
	case OSC_MAINCK_XTAL:
	case OSC_MAINCK_BYPASS:
		return pmc_osc_is_ready_mainck();
  400850:	4c0f      	ldr	r4, [pc, #60]	; (400890 <sysclk_init+0x50>)
  400852:	47a0      	blx	r4
 *
 * \param id A number identifying the oscillator to wait for.
 */
static inline void osc_wait_ready(uint8_t id)
{
	while (!osc_is_ready(id)) {
  400854:	2800      	cmp	r0, #0
  400856:	d0fc      	beq.n	400852 <sysclk_init+0x12>
static inline void pll_enable(const struct pll_config *p_cfg, uint32_t ul_pll_id)
{
	Assert(ul_pll_id < NR_PLLS);

	if (ul_pll_id == PLLA_ID) {
		pmc_disable_pllack(); // Always stop PLL first!
  400858:	4b0e      	ldr	r3, [pc, #56]	; (400894 <sysclk_init+0x54>)
  40085a:	4798      	blx	r3
		PMC->CKGR_PLLAR = CKGR_PLLAR_ONE | p_cfg->ctrl;
  40085c:	4a0e      	ldr	r2, [pc, #56]	; (400898 <sysclk_init+0x58>)
  40085e:	4b0f      	ldr	r3, [pc, #60]	; (40089c <sysclk_init+0x5c>)
  400860:	629a      	str	r2, [r3, #40]	; 0x28
static inline uint32_t pll_is_locked(uint32_t ul_pll_id)
{
	Assert(ul_pll_id < NR_PLLS);

	if (ul_pll_id == PLLA_ID) {
	return pmc_is_locked_pllack();
  400862:	4c0f      	ldr	r4, [pc, #60]	; (4008a0 <sysclk_init+0x60>)
  400864:	47a0      	blx	r4
 */
static inline int pll_wait_for_lock(unsigned int pll_id)
{
	Assert(pll_id < NR_PLLS);

	while (!pll_is_locked(pll_id)) {
  400866:	2800      	cmp	r0, #0
  400868:	d0fc      	beq.n	400864 <sysclk_init+0x24>
	else if (CONFIG_SYSCLK_SOURCE == SYSCLK_SRC_PLLACK) {
		pll_enable_source(CONFIG_PLL0_SOURCE);
		pll_config_defaults(&pllcfg, 0);
		pll_enable(&pllcfg, 0);
		pll_wait_for_lock(0);
		pmc_mck_set_division(CONFIG_SYSCLK_DIV);
  40086a:	2002      	movs	r0, #2
  40086c:	4b0d      	ldr	r3, [pc, #52]	; (4008a4 <sysclk_init+0x64>)
  40086e:	4798      	blx	r3
		pmc_switch_mck_to_pllack(CONFIG_SYSCLK_PRES);
  400870:	2000      	movs	r0, #0
  400872:	4b0d      	ldr	r3, [pc, #52]	; (4008a8 <sysclk_init+0x68>)
  400874:	4798      	blx	r3
		pll_wait_for_lock(1);
		pmc_mck_set_division(CONFIG_SYSCLK_DIV);
		pmc_switch_mck_to_upllck(CONFIG_SYSCLK_PRES);
	}
	/* Update the SystemFrequency variable */
	SystemCoreClockUpdate();
  400876:	4b0d      	ldr	r3, [pc, #52]	; (4008ac <sysclk_init+0x6c>)
  400878:	4798      	blx	r3

	/* Set a flash wait state depending on the new cpu frequency */
	system_init_flash(sysclk_get_cpu_hz());
  40087a:	4802      	ldr	r0, [pc, #8]	; (400884 <sysclk_init+0x44>)
  40087c:	4b02      	ldr	r3, [pc, #8]	; (400888 <sysclk_init+0x48>)
  40087e:	4798      	blx	r3
  400880:	bd10      	pop	{r4, pc}
  400882:	bf00      	nop
  400884:	11e1a300 	.word	0x11e1a300
  400888:	00400f81 	.word	0x00400f81
  40088c:	00400cd1 	.word	0x00400cd1
  400890:	00400d25 	.word	0x00400d25
  400894:	00400d35 	.word	0x00400d35
  400898:	20183f01 	.word	0x20183f01
  40089c:	400e0600 	.word	0x400e0600
  4008a0:	00400d45 	.word	0x00400d45
  4008a4:	00400c35 	.word	0x00400c35
  4008a8:	00400c6d 	.word	0x00400c6d
  4008ac:	00400e75 	.word	0x00400e75

004008b0 <board_init>:
	__ISB();
}
#endif

void board_init(void)
{
  4008b0:	b5f8      	push	{r3, r4, r5, r6, r7, lr}
#ifndef CONF_BOARD_KEEP_WATCHDOG_AT_INIT
	/* Disable the watchdog */
	WDT->WDT_MR = WDT_MR_WDDIS;
  4008b2:	f44f 4200 	mov.w	r2, #32768	; 0x8000
  4008b6:	4b48      	ldr	r3, [pc, #288]	; (4009d8 <board_init+0x128>)
  4008b8:	605a      	str	r2, [r3, #4]
  __ASM volatile ("dsb");
  4008ba:	f3bf 8f4f 	dsb	sy
  __ASM volatile ("isb");
  4008be:	f3bf 8f6f 	isb	sy
__STATIC_INLINE void SCB_EnableICache(void)
{
  #if (__ICACHE_PRESENT == 1)
    __DSB();
    __ISB();
    SCB->ICIALLU = 0;                       // invalidate I-Cache
  4008c2:	4b46      	ldr	r3, [pc, #280]	; (4009dc <board_init+0x12c>)
  4008c4:	2200      	movs	r2, #0
  4008c6:	f8c3 2250 	str.w	r2, [r3, #592]	; 0x250
    SCB->CCR |=  SCB_CCR_IC_Msk;            // enable I-Cache
  4008ca:	695a      	ldr	r2, [r3, #20]
  4008cc:	f442 3200 	orr.w	r2, r2, #131072	; 0x20000
  4008d0:	615a      	str	r2, [r3, #20]
  __ASM volatile ("dsb");
  4008d2:	f3bf 8f4f 	dsb	sy
  __ASM volatile ("isb");
  4008d6:	f3bf 8f6f 	isb	sy
{
  #if (__DCACHE_PRESENT == 1)
    uint32_t ccsidr, sshift, wshift, sw;
    uint32_t sets, ways;

    ccsidr  = SCB->CCSIDR;
  4008da:	f8d3 7080 	ldr.w	r7, [r3, #128]	; 0x80
    sets    = CCSIDR_SETS(ccsidr);
  4008de:	f3c7 364e 	ubfx	r6, r7, #13, #15
    sshift  = CCSIDR_LSSHIFT(ccsidr) + 4;
  4008e2:	f007 0007 	and.w	r0, r7, #7
  4008e6:	3004      	adds	r0, #4
    ways    = CCSIDR_WAYS(ccsidr);
  4008e8:	f3c7 07c9 	ubfx	r7, r7, #3, #10
 */
__attribute__( ( always_inline ) ) __STATIC_INLINE uint8_t __CLZ(uint32_t value)
{
  uint32_t result;

  __ASM volatile ("clz %0, %1" : "=r" (result) : "r" (value) );
  4008ec:	fab7 fe87 	clz	lr, r7
    wshift  = __CLZ(ways) & 0x1f;
  4008f0:	f00e 0e1f 	and.w	lr, lr, #31
  __ASM volatile ("dsb");
  4008f4:	f3bf 8f4f 	dsb	sy
  4008f8:	f04f 34ff 	mov.w	r4, #4294967295
  4008fc:	fa04 fc00 	lsl.w	ip, r4, r0
  400900:	fa06 f000 	lsl.w	r0, r6, r0
  400904:	fa04 f40e 	lsl.w	r4, r4, lr
  400908:	fa07 fe0e 	lsl.w	lr, r7, lr

    do {                                    // invalidate D-Cache
         int32_t tmpways = ways;
         do {
              sw = ((tmpways << wshift) | (sets << sshift));
              SCB->DCISW = sw;
  40090c:	461d      	mov	r5, r3
         int32_t tmpways = ways;
  40090e:	463a      	mov	r2, r7
  400910:	4673      	mov	r3, lr
              sw = ((tmpways << wshift) | (sets << sshift));
  400912:	ea40 0103 	orr.w	r1, r0, r3
              SCB->DCISW = sw;
  400916:	f8c5 1260 	str.w	r1, [r5, #608]	; 0x260
            } while(tmpways--);
  40091a:	3a01      	subs	r2, #1
  40091c:	4423      	add	r3, r4
  40091e:	f1b2 3fff 	cmp.w	r2, #4294967295
  400922:	d1f6      	bne.n	400912 <board_init+0x62>
        } while(sets--);
  400924:	3e01      	subs	r6, #1
  400926:	4460      	add	r0, ip
  400928:	f1b6 3fff 	cmp.w	r6, #4294967295
  40092c:	d1ef      	bne.n	40090e <board_init+0x5e>
  40092e:	f3bf 8f4f 	dsb	sy
    __DSB();

    SCB->CCR |=  SCB_CCR_DC_Msk;            // enable D-Cache
  400932:	4b2a      	ldr	r3, [pc, #168]	; (4009dc <board_init+0x12c>)
  400934:	695a      	ldr	r2, [r3, #20]
  400936:	f442 3280 	orr.w	r2, r2, #65536	; 0x10000
  40093a:	615a      	str	r2, [r3, #20]
  40093c:	f3bf 8f4f 	dsb	sy
  __ASM volatile ("isb");
  400940:	f3bf 8f6f 	isb	sy
		*dst++ = *src++;
	}
#endif
#else
	/* TCM Configuration */
	EFC->EEFC_FCR = (EEFC_FCR_FKEY_PASSWD | EEFC_FCR_FCMD_CGPB 
  400944:	4a26      	ldr	r2, [pc, #152]	; (4009e0 <board_init+0x130>)
  400946:	4927      	ldr	r1, [pc, #156]	; (4009e4 <board_init+0x134>)
  400948:	6051      	str	r1, [r2, #4]
					| EEFC_FCR_FARG(8));
	EFC->EEFC_FCR = (EEFC_FCR_FKEY_PASSWD | EEFC_FCR_FCMD_CGPB 
  40094a:	f5a1 7180 	sub.w	r1, r1, #256	; 0x100
  40094e:	6051      	str	r1, [r2, #4]
  __ASM volatile ("dsb");
  400950:	f3bf 8f4f 	dsb	sy
  __ASM volatile ("isb");
  400954:	f3bf 8f6f 	isb	sy
	SCB->ITCMCR &= ~(uint32_t)(1UL);
  400958:	f8d3 2290 	ldr.w	r2, [r3, #656]	; 0x290
  40095c:	f022 0201 	bic.w	r2, r2, #1
  400960:	f8c3 2290 	str.w	r2, [r3, #656]	; 0x290
	SCB->DTCMCR &= ~(uint32_t)SCB_DTCMCR_EN_Msk;
  400964:	f8d3 2294 	ldr.w	r2, [r3, #660]	; 0x294
  400968:	f022 0201 	bic.w	r2, r2, #1
  40096c:	f8c3 2294 	str.w	r2, [r3, #660]	; 0x294
  __ASM volatile ("dsb");
  400970:	f3bf 8f4f 	dsb	sy
  __ASM volatile ("isb");
  400974:	f3bf 8f6f 	isb	sy
 *
 * \param ul_id Id (number) of the peripheral clock.
 */
static inline void sysclk_enable_peripheral_clock(uint32_t ul_id)
{
	pmc_enable_periph_clk(ul_id);
  400978:	200a      	movs	r0, #10
  40097a:	4c1b      	ldr	r4, [pc, #108]	; (4009e8 <board_init+0x138>)
  40097c:	47a0      	blx	r4
  40097e:	200b      	movs	r0, #11
  400980:	47a0      	blx	r4
  400982:	200c      	movs	r0, #12
  400984:	47a0      	blx	r4
  400986:	2010      	movs	r0, #16
  400988:	47a0      	blx	r4
  40098a:	2011      	movs	r0, #17
  40098c:	47a0      	blx	r4
		enum ioport_direction dir)
{
	Pio *base = arch_ioport_pin_to_base(pin);

	if (dir == IOPORT_DIR_OUTPUT) {
		base->PIO_OER = arch_ioport_pin_to_mask(pin);
  40098e:	4b17      	ldr	r3, [pc, #92]	; (4009ec <board_init+0x13c>)
  400990:	f44f 7280 	mov.w	r2, #256	; 0x100
  400994:	611a      	str	r2, [r3, #16]
	} else if (dir == IOPORT_DIR_INPUT) {
		base->PIO_ODR = arch_ioport_pin_to_mask(pin);
	}

	base->PIO_OWER = arch_ioport_pin_to_mask(pin);
  400996:	f8c3 20a0 	str.w	r2, [r3, #160]	; 0xa0
		bool level)
{
	Pio *base = arch_ioport_pin_to_base(pin);

	if (level) {
		base->PIO_SODR = arch_ioport_pin_to_mask(pin);
  40099a:	631a      	str	r2, [r3, #48]	; 0x30
		base->PIO_ODR = arch_ioport_pin_to_mask(pin);
  40099c:	f5a3 6380 	sub.w	r3, r3, #1024	; 0x400
  4009a0:	f44f 6200 	mov.w	r2, #2048	; 0x800
  4009a4:	615a      	str	r2, [r3, #20]
	base->PIO_OWER = arch_ioport_pin_to_mask(pin);
  4009a6:	f8c3 20a0 	str.w	r2, [r3, #160]	; 0xa0
		base->PIO_PUER = mask;
  4009aa:	665a      	str	r2, [r3, #100]	; 0x64
		base->PIO_PPDDR = mask;
  4009ac:	f8c3 2090 	str.w	r2, [r3, #144]	; 0x90
		base->PIO_MDDR = mask;
  4009b0:	655a      	str	r2, [r3, #84]	; 0x54
		base->PIO_IFER = mask;
  4009b2:	621a      	str	r2, [r3, #32]
		base->PIO_IFSCER = mask;
  4009b4:	f8c3 2084 	str.w	r2, [r3, #132]	; 0x84
		base->PIO_ABCDSR[0] &= ~mask;
  4009b8:	6f19      	ldr	r1, [r3, #112]	; 0x70
  4009ba:	f421 6100 	bic.w	r1, r1, #2048	; 0x800
  4009be:	6719      	str	r1, [r3, #112]	; 0x70
		base->PIO_ABCDSR[1] &= ~mask;
  4009c0:	6f59      	ldr	r1, [r3, #116]	; 0x74
  4009c2:	f421 6100 	bic.w	r1, r1, #2048	; 0x800
  4009c6:	6759      	str	r1, [r3, #116]	; 0x74
	case IOPORT_SENSE_FALLING:
		base->PIO_ESR = mask;
		base->PIO_FELLSR = mask;
		break;
	case IOPORT_SENSE_RISING:
		base->PIO_ESR = mask;
  4009c8:	f8c3 20c0 	str.w	r2, [r3, #192]	; 0xc0
		base->PIO_REHLSR = mask;
  4009cc:	f8c3 20d4 	str.w	r2, [r3, #212]	; 0xd4
		break;
	default:
		base->PIO_AIMDR = mask;
		return;
	}
	base->PIO_AIMER = mask;
  4009d0:	f8c3 20b0 	str.w	r2, [r3, #176]	; 0xb0
  4009d4:	bdf8      	pop	{r3, r4, r5, r6, r7, pc}
  4009d6:	bf00      	nop
  4009d8:	400e1850 	.word	0x400e1850
  4009dc:	e000ed00 	.word	0xe000ed00
  4009e0:	400e0c00 	.word	0x400e0c00
  4009e4:	5a00080c 	.word	0x5a00080c
  4009e8:	00400d55 	.word	0x00400d55
  4009ec:	400e1200 	.word	0x400e1200

004009f0 <pio_set>:
 * \param p_pio Pointer to a PIO instance.
 * \param ul_mask Bitmask of one or more pin(s) to configure.
 */
void pio_set(Pio *p_pio, const uint32_t ul_mask)
{
	p_pio->PIO_SODR = ul_mask;
  4009f0:	6301      	str	r1, [r0, #48]	; 0x30
  4009f2:	4770      	bx	lr

004009f4 <pio_clear>:
 * \param p_pio Pointer to a PIO instance.
 * \param ul_mask Bitmask of one or more pin(s) to configure.
 */
void pio_clear(Pio *p_pio, const uint32_t ul_mask)
{
	p_pio->PIO_CODR = ul_mask;
  4009f4:	6341      	str	r1, [r0, #52]	; 0x34
  4009f6:	4770      	bx	lr

004009f8 <pio_set_peripheral>:
		const uint32_t ul_mask)
{
	uint32_t ul_sr;

	/* Disable interrupts on the pin(s) */
	p_pio->PIO_IDR = ul_mask;
  4009f8:	6442      	str	r2, [r0, #68]	; 0x44

#if (SAM3S || SAM3N || SAM4S || SAM4E || SAM4N || SAM4C || SAMG || SAM4CP || SAM4CM || SAMV71 || SAMV70 || SAME70 || SAMS70)
	switch (ul_type) {
  4009fa:	f1b1 5fc0 	cmp.w	r1, #402653184	; 0x18000000
  4009fe:	d03a      	beq.n	400a76 <pio_set_peripheral+0x7e>
  400a00:	d813      	bhi.n	400a2a <pio_set_peripheral+0x32>
  400a02:	f1b1 6f00 	cmp.w	r1, #134217728	; 0x8000000
  400a06:	d025      	beq.n	400a54 <pio_set_peripheral+0x5c>
  400a08:	f1b1 5f80 	cmp.w	r1, #268435456	; 0x10000000
  400a0c:	d10a      	bne.n	400a24 <pio_set_peripheral+0x2c>

		ul_sr = p_pio->PIO_ABCDSR[1];
		p_pio->PIO_ABCDSR[1] &= (~ul_mask & ul_sr);
		break;
	case PIO_PERIPH_B:
		ul_sr = p_pio->PIO_ABCDSR[0];
  400a0e:	6f03      	ldr	r3, [r0, #112]	; 0x70
		p_pio->PIO_ABCDSR[0] = (ul_mask | ul_sr);
  400a10:	4313      	orrs	r3, r2
  400a12:	6703      	str	r3, [r0, #112]	; 0x70

		ul_sr = p_pio->PIO_ABCDSR[1];
  400a14:	6f43      	ldr	r3, [r0, #116]	; 0x74
		p_pio->PIO_ABCDSR[1] &= (~ul_mask & ul_sr);
  400a16:	6f41      	ldr	r1, [r0, #116]	; 0x74
  400a18:	400b      	ands	r3, r1
  400a1a:	ea23 0302 	bic.w	r3, r3, r2
  400a1e:	6743      	str	r3, [r0, #116]	; 0x74
#else
#error "Unsupported device"
#endif

	/* Remove the pins from under the control of PIO */
	p_pio->PIO_PDR = ul_mask;
  400a20:	6042      	str	r2, [r0, #4]
  400a22:	4770      	bx	lr
	switch (ul_type) {
  400a24:	2900      	cmp	r1, #0
  400a26:	d1fb      	bne.n	400a20 <pio_set_peripheral+0x28>
  400a28:	4770      	bx	lr
  400a2a:	f1b1 5f20 	cmp.w	r1, #671088640	; 0x28000000
  400a2e:	d021      	beq.n	400a74 <pio_set_peripheral+0x7c>
  400a30:	d809      	bhi.n	400a46 <pio_set_peripheral+0x4e>
  400a32:	f1b1 5f00 	cmp.w	r1, #536870912	; 0x20000000
  400a36:	d1f3      	bne.n	400a20 <pio_set_peripheral+0x28>
		ul_sr = p_pio->PIO_ABCDSR[0];
  400a38:	6f03      	ldr	r3, [r0, #112]	; 0x70
		p_pio->PIO_ABCDSR[0] = (ul_mask | ul_sr);
  400a3a:	4313      	orrs	r3, r2
  400a3c:	6703      	str	r3, [r0, #112]	; 0x70
		ul_sr = p_pio->PIO_ABCDSR[1];
  400a3e:	6f43      	ldr	r3, [r0, #116]	; 0x74
		p_pio->PIO_ABCDSR[1] = (ul_mask | ul_sr);
  400a40:	4313      	orrs	r3, r2
  400a42:	6743      	str	r3, [r0, #116]	; 0x74
		break;
  400a44:	e7ec      	b.n	400a20 <pio_set_peripheral+0x28>
	switch (ul_type) {
  400a46:	f1b1 5f40 	cmp.w	r1, #805306368	; 0x30000000
  400a4a:	d013      	beq.n	400a74 <pio_set_peripheral+0x7c>
  400a4c:	f1b1 5f60 	cmp.w	r1, #939524096	; 0x38000000
  400a50:	d010      	beq.n	400a74 <pio_set_peripheral+0x7c>
  400a52:	e7e5      	b.n	400a20 <pio_set_peripheral+0x28>
{
  400a54:	b410      	push	{r4}
		ul_sr = p_pio->PIO_ABCDSR[0];
  400a56:	6f01      	ldr	r1, [r0, #112]	; 0x70
		p_pio->PIO_ABCDSR[0] &= (~ul_mask & ul_sr);
  400a58:	6f04      	ldr	r4, [r0, #112]	; 0x70
  400a5a:	43d3      	mvns	r3, r2
  400a5c:	4021      	ands	r1, r4
  400a5e:	461c      	mov	r4, r3
  400a60:	4019      	ands	r1, r3
  400a62:	6701      	str	r1, [r0, #112]	; 0x70
		ul_sr = p_pio->PIO_ABCDSR[1];
  400a64:	6f43      	ldr	r3, [r0, #116]	; 0x74
		p_pio->PIO_ABCDSR[1] &= (~ul_mask & ul_sr);
  400a66:	6f41      	ldr	r1, [r0, #116]	; 0x74
  400a68:	400b      	ands	r3, r1
  400a6a:	4023      	ands	r3, r4
  400a6c:	6743      	str	r3, [r0, #116]	; 0x74
	p_pio->PIO_PDR = ul_mask;
  400a6e:	6042      	str	r2, [r0, #4]
}
  400a70:	f85d 4b04 	ldr.w	r4, [sp], #4
  400a74:	4770      	bx	lr
		ul_sr = p_pio->PIO_ABCDSR[0];
  400a76:	6f03      	ldr	r3, [r0, #112]	; 0x70
		p_pio->PIO_ABCDSR[0] &= (~ul_mask & ul_sr);
  400a78:	6f01      	ldr	r1, [r0, #112]	; 0x70
  400a7a:	400b      	ands	r3, r1
  400a7c:	ea23 0302 	bic.w	r3, r3, r2
  400a80:	6703      	str	r3, [r0, #112]	; 0x70
		ul_sr = p_pio->PIO_ABCDSR[1];
  400a82:	6f43      	ldr	r3, [r0, #116]	; 0x74
		p_pio->PIO_ABCDSR[1] = (ul_mask | ul_sr);
  400a84:	4313      	orrs	r3, r2
  400a86:	6743      	str	r3, [r0, #116]	; 0x74
		break;
  400a88:	e7ca      	b.n	400a20 <pio_set_peripheral+0x28>

00400a8a <pio_set_input>:
 * \param p_pio Pointer to a PIO instance.
 * \param ul_mask Interrupt sources bit map.
 */
void pio_disable_interrupt(Pio *p_pio, const uint32_t ul_mask)
{
	p_pio->PIO_IDR = ul_mask;
  400a8a:	6441      	str	r1, [r0, #68]	; 0x44
	if (ul_pull_up_enable) {
  400a8c:	f012 0f01 	tst.w	r2, #1
  400a90:	d10d      	bne.n	400aae <pio_set_input+0x24>
		p_pio->PIO_PUDR = ul_mask;
  400a92:	6601      	str	r1, [r0, #96]	; 0x60
	if (ul_attribute & (PIO_DEGLITCH | PIO_DEBOUNCE)) {
  400a94:	f012 0f0a 	tst.w	r2, #10
  400a98:	d00b      	beq.n	400ab2 <pio_set_input+0x28>
		p_pio->PIO_IFER = ul_mask;
  400a9a:	6201      	str	r1, [r0, #32]
	if (ul_attribute & PIO_DEGLITCH) {
  400a9c:	f012 0f02 	tst.w	r2, #2
  400aa0:	d109      	bne.n	400ab6 <pio_set_input+0x2c>
		if (ul_attribute & PIO_DEBOUNCE) {
  400aa2:	f012 0f08 	tst.w	r2, #8
  400aa6:	d008      	beq.n	400aba <pio_set_input+0x30>
			p_pio->PIO_IFSCER = ul_mask;
  400aa8:	f8c0 1084 	str.w	r1, [r0, #132]	; 0x84
  400aac:	e005      	b.n	400aba <pio_set_input+0x30>
		p_pio->PIO_PUER = ul_mask;
  400aae:	6641      	str	r1, [r0, #100]	; 0x64
  400ab0:	e7f0      	b.n	400a94 <pio_set_input+0xa>
		p_pio->PIO_IFDR = ul_mask;
  400ab2:	6241      	str	r1, [r0, #36]	; 0x24
  400ab4:	e7f2      	b.n	400a9c <pio_set_input+0x12>
		p_pio->PIO_IFSCDR = ul_mask;
  400ab6:	f8c0 1080 	str.w	r1, [r0, #128]	; 0x80
	p_pio->PIO_ODR = ul_mask;
  400aba:	6141      	str	r1, [r0, #20]
	p_pio->PIO_PER = ul_mask;
  400abc:	6001      	str	r1, [r0, #0]
  400abe:	4770      	bx	lr

00400ac0 <pio_set_output>:
{
  400ac0:	b410      	push	{r4}
  400ac2:	9c01      	ldr	r4, [sp, #4]
	p_pio->PIO_IDR = ul_mask;
  400ac4:	6441      	str	r1, [r0, #68]	; 0x44
	if (ul_pull_up_enable) {
  400ac6:	b94c      	cbnz	r4, 400adc <pio_set_output+0x1c>
		p_pio->PIO_PUDR = ul_mask;
  400ac8:	6601      	str	r1, [r0, #96]	; 0x60
	if (ul_multidrive_enable) {
  400aca:	b14b      	cbz	r3, 400ae0 <pio_set_output+0x20>
		p_pio->PIO_MDER = ul_mask;
  400acc:	6501      	str	r1, [r0, #80]	; 0x50
	if (ul_default_level) {
  400ace:	b94a      	cbnz	r2, 400ae4 <pio_set_output+0x24>
		p_pio->PIO_CODR = ul_mask;
  400ad0:	6341      	str	r1, [r0, #52]	; 0x34
	p_pio->PIO_OER = ul_mask;
  400ad2:	6101      	str	r1, [r0, #16]
	p_pio->PIO_PER = ul_mask;
  400ad4:	6001      	str	r1, [r0, #0]
}
  400ad6:	f85d 4b04 	ldr.w	r4, [sp], #4
  400ada:	4770      	bx	lr
		p_pio->PIO_PUER = ul_mask;
  400adc:	6641      	str	r1, [r0, #100]	; 0x64
  400ade:	e7f4      	b.n	400aca <pio_set_output+0xa>
		p_pio->PIO_MDDR = ul_mask;
  400ae0:	6541      	str	r1, [r0, #84]	; 0x54
  400ae2:	e7f4      	b.n	400ace <pio_set_output+0xe>
		p_pio->PIO_SODR = ul_mask;
  400ae4:	6301      	str	r1, [r0, #48]	; 0x30
  400ae6:	e7f4      	b.n	400ad2 <pio_set_output+0x12>

00400ae8 <pio_configure>:
{
  400ae8:	b570      	push	{r4, r5, r6, lr}
  400aea:	b082      	sub	sp, #8
  400aec:	4605      	mov	r5, r0
  400aee:	4616      	mov	r6, r2
  400af0:	461c      	mov	r4, r3
	switch (ul_type) {
  400af2:	f1b1 5f00 	cmp.w	r1, #536870912	; 0x20000000
  400af6:	d014      	beq.n	400b22 <pio_configure+0x3a>
  400af8:	d90a      	bls.n	400b10 <pio_configure+0x28>
  400afa:	f1b1 5f40 	cmp.w	r1, #805306368	; 0x30000000
  400afe:	d024      	beq.n	400b4a <pio_configure+0x62>
  400b00:	f1b1 5f60 	cmp.w	r1, #939524096	; 0x38000000
  400b04:	d021      	beq.n	400b4a <pio_configure+0x62>
  400b06:	f1b1 5f20 	cmp.w	r1, #671088640	; 0x28000000
  400b0a:	d017      	beq.n	400b3c <pio_configure+0x54>
		return 0;
  400b0c:	2000      	movs	r0, #0
  400b0e:	e01a      	b.n	400b46 <pio_configure+0x5e>
	switch (ul_type) {
  400b10:	f1b1 5f80 	cmp.w	r1, #268435456	; 0x10000000
  400b14:	d005      	beq.n	400b22 <pio_configure+0x3a>
  400b16:	f1b1 5fc0 	cmp.w	r1, #402653184	; 0x18000000
  400b1a:	d002      	beq.n	400b22 <pio_configure+0x3a>
  400b1c:	f1b1 6f00 	cmp.w	r1, #134217728	; 0x8000000
  400b20:	d1f4      	bne.n	400b0c <pio_configure+0x24>
		pio_set_peripheral(p_pio, ul_type, ul_mask);
  400b22:	4632      	mov	r2, r6
  400b24:	4628      	mov	r0, r5
  400b26:	4b11      	ldr	r3, [pc, #68]	; (400b6c <pio_configure+0x84>)
  400b28:	4798      	blx	r3
	if (ul_pull_up_enable) {
  400b2a:	f014 0f01 	tst.w	r4, #1
  400b2e:	d102      	bne.n	400b36 <pio_configure+0x4e>
		p_pio->PIO_PUDR = ul_mask;
  400b30:	662e      	str	r6, [r5, #96]	; 0x60
	return 1;
  400b32:	2001      	movs	r0, #1
  400b34:	e007      	b.n	400b46 <pio_configure+0x5e>
		p_pio->PIO_PUER = ul_mask;
  400b36:	666e      	str	r6, [r5, #100]	; 0x64
	return 1;
  400b38:	2001      	movs	r0, #1
  400b3a:	e004      	b.n	400b46 <pio_configure+0x5e>
		pio_set_input(p_pio, ul_mask, ul_attribute);
  400b3c:	461a      	mov	r2, r3
  400b3e:	4631      	mov	r1, r6
  400b40:	4b0b      	ldr	r3, [pc, #44]	; (400b70 <pio_configure+0x88>)
  400b42:	4798      	blx	r3
	return 1;
  400b44:	2001      	movs	r0, #1
}
  400b46:	b002      	add	sp, #8
  400b48:	bd70      	pop	{r4, r5, r6, pc}
		pio_set_output(p_pio, ul_mask, (ul_type == PIO_OUTPUT_1),
  400b4a:	f004 0301 	and.w	r3, r4, #1
  400b4e:	9300      	str	r3, [sp, #0]
  400b50:	f3c4 0380 	ubfx	r3, r4, #2, #1
  400b54:	f1b1 5f60 	cmp.w	r1, #939524096	; 0x38000000
  400b58:	bf14      	ite	ne
  400b5a:	2200      	movne	r2, #0
  400b5c:	2201      	moveq	r2, #1
  400b5e:	4631      	mov	r1, r6
  400b60:	4628      	mov	r0, r5
  400b62:	4c04      	ldr	r4, [pc, #16]	; (400b74 <pio_configure+0x8c>)
  400b64:	47a0      	blx	r4
	return 1;
  400b66:	2001      	movs	r0, #1
		break;
  400b68:	e7ed      	b.n	400b46 <pio_configure+0x5e>
  400b6a:	bf00      	nop
  400b6c:	004009f9 	.word	0x004009f9
  400b70:	00400a8b 	.word	0x00400a8b
  400b74:	00400ac1 	.word	0x00400ac1

00400b78 <pio_get_interrupt_status>:
 *
 * \return The interrupt status value.
 */
uint32_t pio_get_interrupt_status(const Pio *p_pio)
{
	return p_pio->PIO_ISR;
  400b78:	6cc0      	ldr	r0, [r0, #76]	; 0x4c
}
  400b7a:	4770      	bx	lr

00400b7c <pio_get_interrupt_mask>:
 *
 * \return The interrupt mask value.
 */
uint32_t pio_get_interrupt_mask(const Pio *p_pio)
{
	return p_pio->PIO_IMR;
  400b7c:	6c80      	ldr	r0, [r0, #72]	; 0x48
}
  400b7e:	4770      	bx	lr

00400b80 <pio_handler_process>:
 *
 * \param p_pio PIO controller base address.
 * \param ul_id PIO controller ID.
 */
void pio_handler_process(Pio *p_pio, uint32_t ul_id)
{
  400b80:	e92d 41f0 	stmdb	sp!, {r4, r5, r6, r7, r8, lr}
  400b84:	4604      	mov	r4, r0
  400b86:	4688      	mov	r8, r1
	uint32_t status;
	uint32_t i;

	/* Read PIO controller status */
	status = pio_get_interrupt_status(p_pio);
  400b88:	4b0e      	ldr	r3, [pc, #56]	; (400bc4 <pio_handler_process+0x44>)
  400b8a:	4798      	blx	r3
  400b8c:	4605      	mov	r5, r0
	status &= pio_get_interrupt_mask(p_pio);
  400b8e:	4620      	mov	r0, r4
  400b90:	4b0d      	ldr	r3, [pc, #52]	; (400bc8 <pio_handler_process+0x48>)
  400b92:	4798      	blx	r3

	/* Check pending events */
	if (status != 0) {
  400b94:	4005      	ands	r5, r0
  400b96:	d013      	beq.n	400bc0 <pio_handler_process+0x40>
  400b98:	4c0c      	ldr	r4, [pc, #48]	; (400bcc <pio_handler_process+0x4c>)
  400b9a:	f104 0660 	add.w	r6, r4, #96	; 0x60
  400b9e:	e003      	b.n	400ba8 <pio_handler_process+0x28>
							gs_interrupt_sources[i].mask);
					status &= ~(gs_interrupt_sources[i].mask);
				}
			}
			i++;
			if (i >= MAX_INTERRUPT_SOURCES) {
  400ba0:	42b4      	cmp	r4, r6
  400ba2:	d00d      	beq.n	400bc0 <pio_handler_process+0x40>
  400ba4:	3410      	adds	r4, #16
		while (status != 0) {
  400ba6:	b15d      	cbz	r5, 400bc0 <pio_handler_process+0x40>
			if (gs_interrupt_sources[i].id == ul_id) {
  400ba8:	6820      	ldr	r0, [r4, #0]
  400baa:	4540      	cmp	r0, r8
  400bac:	d1f8      	bne.n	400ba0 <pio_handler_process+0x20>
				if ((status & gs_interrupt_sources[i].mask) != 0) {
  400bae:	6861      	ldr	r1, [r4, #4]
  400bb0:	4229      	tst	r1, r5
  400bb2:	d0f5      	beq.n	400ba0 <pio_handler_process+0x20>
					gs_interrupt_sources[i].handler(gs_interrupt_sources[i].id,
  400bb4:	68e3      	ldr	r3, [r4, #12]
  400bb6:	4798      	blx	r3
					status &= ~(gs_interrupt_sources[i].mask);
  400bb8:	6863      	ldr	r3, [r4, #4]
  400bba:	ea25 0503 	bic.w	r5, r5, r3
  400bbe:	e7ef      	b.n	400ba0 <pio_handler_process+0x20>
  400bc0:	e8bd 81f0 	ldmia.w	sp!, {r4, r5, r6, r7, r8, pc}
  400bc4:	00400b79 	.word	0x00400b79
  400bc8:	00400b7d 	.word	0x00400b7d
  400bcc:	2040087c 	.word	0x2040087c

00400bd0 <PIOA_Handler>:
/**
 * \brief Parallel IO Controller A interrupt handler.
 * Redefined PIOA interrupt handler for NVIC interrupt table.
 */
void PIOA_Handler(void)
{
  400bd0:	b508      	push	{r3, lr}
	pio_handler_process(PIOA, ID_PIOA);
  400bd2:	210a      	movs	r1, #10
  400bd4:	4801      	ldr	r0, [pc, #4]	; (400bdc <PIOA_Handler+0xc>)
  400bd6:	4b02      	ldr	r3, [pc, #8]	; (400be0 <PIOA_Handler+0x10>)
  400bd8:	4798      	blx	r3
  400bda:	bd08      	pop	{r3, pc}
  400bdc:	400e0e00 	.word	0x400e0e00
  400be0:	00400b81 	.word	0x00400b81

00400be4 <PIOB_Handler>:
/**
 * \brief Parallel IO Controller B interrupt handler
 * Redefined PIOB interrupt handler for NVIC interrupt table.
 */
void PIOB_Handler(void)
{
  400be4:	b508      	push	{r3, lr}
    pio_handler_process(PIOB, ID_PIOB);
  400be6:	210b      	movs	r1, #11
  400be8:	4801      	ldr	r0, [pc, #4]	; (400bf0 <PIOB_Handler+0xc>)
  400bea:	4b02      	ldr	r3, [pc, #8]	; (400bf4 <PIOB_Handler+0x10>)
  400bec:	4798      	blx	r3
  400bee:	bd08      	pop	{r3, pc}
  400bf0:	400e1000 	.word	0x400e1000
  400bf4:	00400b81 	.word	0x00400b81

00400bf8 <PIOC_Handler>:
/**
 * \brief Parallel IO Controller C interrupt handler.
 * Redefined PIOC interrupt handler for NVIC interrupt table.
 */
void PIOC_Handler(void)
{
  400bf8:	b508      	push	{r3, lr}
	pio_handler_process(PIOC, ID_PIOC);
  400bfa:	210c      	movs	r1, #12
  400bfc:	4801      	ldr	r0, [pc, #4]	; (400c04 <PIOC_Handler+0xc>)
  400bfe:	4b02      	ldr	r3, [pc, #8]	; (400c08 <PIOC_Handler+0x10>)
  400c00:	4798      	blx	r3
  400c02:	bd08      	pop	{r3, pc}
  400c04:	400e1200 	.word	0x400e1200
  400c08:	00400b81 	.word	0x00400b81

00400c0c <PIOD_Handler>:
/**
 * \brief Parallel IO Controller D interrupt handler.
 * Redefined PIOD interrupt handler for NVIC interrupt table.
 */
void PIOD_Handler(void)
{
  400c0c:	b508      	push	{r3, lr}
	pio_handler_process(PIOD, ID_PIOD);
  400c0e:	2110      	movs	r1, #16
  400c10:	4801      	ldr	r0, [pc, #4]	; (400c18 <PIOD_Handler+0xc>)
  400c12:	4b02      	ldr	r3, [pc, #8]	; (400c1c <PIOD_Handler+0x10>)
  400c14:	4798      	blx	r3
  400c16:	bd08      	pop	{r3, pc}
  400c18:	400e1400 	.word	0x400e1400
  400c1c:	00400b81 	.word	0x00400b81

00400c20 <PIOE_Handler>:
/**
 * \brief Parallel IO Controller E interrupt handler.
 * Redefined PIOE interrupt handler for NVIC interrupt table.
 */
void PIOE_Handler(void)
{
  400c20:	b508      	push	{r3, lr}
	pio_handler_process(PIOE, ID_PIOE);
  400c22:	2111      	movs	r1, #17
  400c24:	4801      	ldr	r0, [pc, #4]	; (400c2c <PIOE_Handler+0xc>)
  400c26:	4b02      	ldr	r3, [pc, #8]	; (400c30 <PIOE_Handler+0x10>)
  400c28:	4798      	blx	r3
  400c2a:	bd08      	pop	{r3, pc}
  400c2c:	400e1600 	.word	0x400e1600
  400c30:	00400b81 	.word	0x00400b81

00400c34 <pmc_mck_set_division>:
 *
 * \param ul_div Division value.
 */
void pmc_mck_set_division(uint32_t ul_div)
{
	switch (ul_div) {
  400c34:	2803      	cmp	r0, #3
  400c36:	d011      	beq.n	400c5c <pmc_mck_set_division+0x28>
  400c38:	2804      	cmp	r0, #4
  400c3a:	d012      	beq.n	400c62 <pmc_mck_set_division+0x2e>
		case 1:
			ul_div = PMC_MCKR_MDIV_EQ_PCK;
  400c3c:	2802      	cmp	r0, #2
  400c3e:	bf0c      	ite	eq
  400c40:	f44f 7180 	moveq.w	r1, #256	; 0x100
  400c44:	2100      	movne	r1, #0
		default:
			ul_div = PMC_MCKR_MDIV_EQ_PCK;
			break;
	}
	PMC->PMC_MCKR =
			(PMC->PMC_MCKR & (~PMC_MCKR_MDIV_Msk)) | ul_div;
  400c46:	4a08      	ldr	r2, [pc, #32]	; (400c68 <pmc_mck_set_division+0x34>)
  400c48:	6b13      	ldr	r3, [r2, #48]	; 0x30
  400c4a:	f423 7340 	bic.w	r3, r3, #768	; 0x300
  400c4e:	430b      	orrs	r3, r1
	PMC->PMC_MCKR =
  400c50:	6313      	str	r3, [r2, #48]	; 0x30
	while (!(PMC->PMC_SR & PMC_SR_MCKRDY));
  400c52:	6e93      	ldr	r3, [r2, #104]	; 0x68
  400c54:	f013 0f08 	tst.w	r3, #8
  400c58:	d0fb      	beq.n	400c52 <pmc_mck_set_division+0x1e>
}
  400c5a:	4770      	bx	lr
			ul_div = PMC_MCKR_MDIV_PCK_DIV3;
  400c5c:	f44f 7140 	mov.w	r1, #768	; 0x300
			break;
  400c60:	e7f1      	b.n	400c46 <pmc_mck_set_division+0x12>
			ul_div = PMC_MCKR_MDIV_PCK_DIV4;
  400c62:	f44f 7100 	mov.w	r1, #512	; 0x200
			break;
  400c66:	e7ee      	b.n	400c46 <pmc_mck_set_division+0x12>
  400c68:	400e0600 	.word	0x400e0600

00400c6c <pmc_switch_mck_to_pllack>:
 */
uint32_t pmc_switch_mck_to_pllack(uint32_t ul_pres)
{
	uint32_t ul_timeout;

	PMC->PMC_MCKR = (PMC->PMC_MCKR & (~PMC_MCKR_PRES_Msk)) | ul_pres;
  400c6c:	4a17      	ldr	r2, [pc, #92]	; (400ccc <pmc_switch_mck_to_pllack+0x60>)
  400c6e:	6b13      	ldr	r3, [r2, #48]	; 0x30
  400c70:	f023 0370 	bic.w	r3, r3, #112	; 0x70
  400c74:	4318      	orrs	r0, r3
  400c76:	6310      	str	r0, [r2, #48]	; 0x30
	for (ul_timeout = PMC_TIMEOUT; !(PMC->PMC_SR & PMC_SR_MCKRDY);
  400c78:	6e93      	ldr	r3, [r2, #104]	; 0x68
  400c7a:	f013 0f08 	tst.w	r3, #8
  400c7e:	d10a      	bne.n	400c96 <pmc_switch_mck_to_pllack+0x2a>
  400c80:	f44f 5380 	mov.w	r3, #4096	; 0x1000
  400c84:	4911      	ldr	r1, [pc, #68]	; (400ccc <pmc_switch_mck_to_pllack+0x60>)
  400c86:	6e8a      	ldr	r2, [r1, #104]	; 0x68
  400c88:	f012 0f08 	tst.w	r2, #8
  400c8c:	d103      	bne.n	400c96 <pmc_switch_mck_to_pllack+0x2a>
			--ul_timeout) {
		if (ul_timeout == 0) {
  400c8e:	3b01      	subs	r3, #1
  400c90:	d1f9      	bne.n	400c86 <pmc_switch_mck_to_pllack+0x1a>
			return 1;
  400c92:	2001      	movs	r0, #1
  400c94:	4770      	bx	lr
		}
	}

	PMC->PMC_MCKR = (PMC->PMC_MCKR & (~PMC_MCKR_CSS_Msk)) |
  400c96:	4a0d      	ldr	r2, [pc, #52]	; (400ccc <pmc_switch_mck_to_pllack+0x60>)
  400c98:	6b13      	ldr	r3, [r2, #48]	; 0x30
  400c9a:	f023 0303 	bic.w	r3, r3, #3
  400c9e:	f043 0302 	orr.w	r3, r3, #2
  400ca2:	6313      	str	r3, [r2, #48]	; 0x30
			PMC_MCKR_CSS_PLLA_CLK;

	for (ul_timeout = PMC_TIMEOUT; !(PMC->PMC_SR & PMC_SR_MCKRDY);
  400ca4:	6e93      	ldr	r3, [r2, #104]	; 0x68
  400ca6:	f013 0f08 	tst.w	r3, #8
  400caa:	d10a      	bne.n	400cc2 <pmc_switch_mck_to_pllack+0x56>
  400cac:	f44f 5380 	mov.w	r3, #4096	; 0x1000
  400cb0:	4906      	ldr	r1, [pc, #24]	; (400ccc <pmc_switch_mck_to_pllack+0x60>)
  400cb2:	6e8a      	ldr	r2, [r1, #104]	; 0x68
  400cb4:	f012 0f08 	tst.w	r2, #8
  400cb8:	d105      	bne.n	400cc6 <pmc_switch_mck_to_pllack+0x5a>
			--ul_timeout) {
		if (ul_timeout == 0) {
  400cba:	3b01      	subs	r3, #1
  400cbc:	d1f9      	bne.n	400cb2 <pmc_switch_mck_to_pllack+0x46>
			return 1;
  400cbe:	2001      	movs	r0, #1
		}
	}

	return 0;
}
  400cc0:	4770      	bx	lr
	return 0;
  400cc2:	2000      	movs	r0, #0
  400cc4:	4770      	bx	lr
  400cc6:	2000      	movs	r0, #0
  400cc8:	4770      	bx	lr
  400cca:	bf00      	nop
  400ccc:	400e0600 	.word	0x400e0600

00400cd0 <pmc_switch_mainck_to_xtal>:
 */
void pmc_switch_mainck_to_xtal(uint32_t ul_bypass,
		uint32_t ul_xtal_startup_time)
{
	/* Enable Main Xtal oscillator */
	if (ul_bypass) {
  400cd0:	b9a0      	cbnz	r0, 400cfc <pmc_switch_mainck_to_xtal+0x2c>
		PMC->CKGR_MOR = (PMC->CKGR_MOR & ~CKGR_MOR_MOSCXTEN) |
				CKGR_MOR_KEY_PASSWD | CKGR_MOR_MOSCXTBY |
				CKGR_MOR_MOSCSEL;
	} else {
		PMC->CKGR_MOR = (PMC->CKGR_MOR & ~CKGR_MOR_MOSCXTBY) |
  400cd2:	480e      	ldr	r0, [pc, #56]	; (400d0c <pmc_switch_mainck_to_xtal+0x3c>)
  400cd4:	6a03      	ldr	r3, [r0, #32]
				CKGR_MOR_KEY_PASSWD | CKGR_MOR_MOSCXTEN |
				CKGR_MOR_MOSCXTST(ul_xtal_startup_time);
  400cd6:	0209      	lsls	r1, r1, #8
  400cd8:	b289      	uxth	r1, r1
				CKGR_MOR_KEY_PASSWD | CKGR_MOR_MOSCXTEN |
  400cda:	4a0d      	ldr	r2, [pc, #52]	; (400d10 <pmc_switch_mainck_to_xtal+0x40>)
  400cdc:	401a      	ands	r2, r3
  400cde:	4b0d      	ldr	r3, [pc, #52]	; (400d14 <pmc_switch_mainck_to_xtal+0x44>)
  400ce0:	4313      	orrs	r3, r2
  400ce2:	4319      	orrs	r1, r3
		PMC->CKGR_MOR = (PMC->CKGR_MOR & ~CKGR_MOR_MOSCXTBY) |
  400ce4:	6201      	str	r1, [r0, #32]
		/* Wait the Xtal to stabilize */
		while (!(PMC->PMC_SR & PMC_SR_MOSCXTS));
  400ce6:	4602      	mov	r2, r0
  400ce8:	6e93      	ldr	r3, [r2, #104]	; 0x68
  400cea:	f013 0f01 	tst.w	r3, #1
  400cee:	d0fb      	beq.n	400ce8 <pmc_switch_mainck_to_xtal+0x18>

		PMC->CKGR_MOR |= CKGR_MOR_KEY_PASSWD | CKGR_MOR_MOSCSEL;
  400cf0:	4a06      	ldr	r2, [pc, #24]	; (400d0c <pmc_switch_mainck_to_xtal+0x3c>)
  400cf2:	6a11      	ldr	r1, [r2, #32]
  400cf4:	4b08      	ldr	r3, [pc, #32]	; (400d18 <pmc_switch_mainck_to_xtal+0x48>)
  400cf6:	430b      	orrs	r3, r1
  400cf8:	6213      	str	r3, [r2, #32]
  400cfa:	4770      	bx	lr
		PMC->CKGR_MOR = (PMC->CKGR_MOR & ~CKGR_MOR_MOSCXTEN) |
  400cfc:	4903      	ldr	r1, [pc, #12]	; (400d0c <pmc_switch_mainck_to_xtal+0x3c>)
  400cfe:	6a0b      	ldr	r3, [r1, #32]
				CKGR_MOR_KEY_PASSWD | CKGR_MOR_MOSCXTBY |
  400d00:	4a06      	ldr	r2, [pc, #24]	; (400d1c <pmc_switch_mainck_to_xtal+0x4c>)
  400d02:	401a      	ands	r2, r3
  400d04:	4b06      	ldr	r3, [pc, #24]	; (400d20 <pmc_switch_mainck_to_xtal+0x50>)
  400d06:	4313      	orrs	r3, r2
		PMC->CKGR_MOR = (PMC->CKGR_MOR & ~CKGR_MOR_MOSCXTEN) |
  400d08:	620b      	str	r3, [r1, #32]
  400d0a:	4770      	bx	lr
  400d0c:	400e0600 	.word	0x400e0600
  400d10:	ffc8fffc 	.word	0xffc8fffc
  400d14:	00370001 	.word	0x00370001
  400d18:	01370000 	.word	0x01370000
  400d1c:	fec8fffc 	.word	0xfec8fffc
  400d20:	01370002 	.word	0x01370002

00400d24 <pmc_osc_is_ready_mainck>:
 * \retval 1 Xtal is ready.
 * \retval 0 Xtal is not ready.
 */
uint32_t pmc_osc_is_ready_mainck(void)
{
	return PMC->PMC_SR & PMC_SR_MOSCSELS;
  400d24:	4b02      	ldr	r3, [pc, #8]	; (400d30 <pmc_osc_is_ready_mainck+0xc>)
  400d26:	6e98      	ldr	r0, [r3, #104]	; 0x68
}
  400d28:	f400 3080 	and.w	r0, r0, #65536	; 0x10000
  400d2c:	4770      	bx	lr
  400d2e:	bf00      	nop
  400d30:	400e0600 	.word	0x400e0600

00400d34 <pmc_disable_pllack>:
void pmc_disable_pllack(void)
{
#if (SAM4C || SAM4CM || SAM4CP || SAMG)
	PMC->CKGR_PLLAR = CKGR_PLLAR_MULA(0);
#else
	PMC->CKGR_PLLAR = CKGR_PLLAR_ONE | CKGR_PLLAR_MULA(0);
  400d34:	f04f 5200 	mov.w	r2, #536870912	; 0x20000000
  400d38:	4b01      	ldr	r3, [pc, #4]	; (400d40 <pmc_disable_pllack+0xc>)
  400d3a:	629a      	str	r2, [r3, #40]	; 0x28
  400d3c:	4770      	bx	lr
  400d3e:	bf00      	nop
  400d40:	400e0600 	.word	0x400e0600

00400d44 <pmc_is_locked_pllack>:
 * \retval 0 Not locked.
 * \retval 1 Locked.
 */
uint32_t pmc_is_locked_pllack(void)
{
	return (PMC->PMC_SR & PMC_SR_LOCKA);
  400d44:	4b02      	ldr	r3, [pc, #8]	; (400d50 <pmc_is_locked_pllack+0xc>)
  400d46:	6e98      	ldr	r0, [r3, #104]	; 0x68
}
  400d48:	f000 0002 	and.w	r0, r0, #2
  400d4c:	4770      	bx	lr
  400d4e:	bf00      	nop
  400d50:	400e0600 	.word	0x400e0600

00400d54 <pmc_enable_periph_clk>:
 * \retval 0 Success.
 * \retval 1 Invalid parameter.
 */
uint32_t pmc_enable_periph_clk(uint32_t ul_id)
{
	if (ul_id > MAX_PERIPH_ID) {
  400d54:	283f      	cmp	r0, #63	; 0x3f
  400d56:	d81e      	bhi.n	400d96 <pmc_enable_periph_clk+0x42>
		return 1;
	}

	if (ul_id < 32) {
  400d58:	281f      	cmp	r0, #31
  400d5a:	d80c      	bhi.n	400d76 <pmc_enable_periph_clk+0x22>
		if ((PMC->PMC_PCSR0 & (1u << ul_id)) != (1u << ul_id)) {
  400d5c:	4b11      	ldr	r3, [pc, #68]	; (400da4 <pmc_enable_periph_clk+0x50>)
  400d5e:	699a      	ldr	r2, [r3, #24]
  400d60:	2301      	movs	r3, #1
  400d62:	4083      	lsls	r3, r0
  400d64:	4393      	bics	r3, r2
  400d66:	d018      	beq.n	400d9a <pmc_enable_periph_clk+0x46>
			PMC->PMC_PCER0 = 1 << ul_id;
  400d68:	2301      	movs	r3, #1
  400d6a:	fa03 f000 	lsl.w	r0, r3, r0
  400d6e:	4b0d      	ldr	r3, [pc, #52]	; (400da4 <pmc_enable_periph_clk+0x50>)
  400d70:	6118      	str	r0, [r3, #16]
			PMC->PMC_PCER1 = 1 << ul_id;
		}
#endif
	}

	return 0;
  400d72:	2000      	movs	r0, #0
  400d74:	4770      	bx	lr
		ul_id -= 32;
  400d76:	3820      	subs	r0, #32
		if ((PMC->PMC_PCSR1 & (1u << ul_id)) != (1u << ul_id)) {
  400d78:	4b0a      	ldr	r3, [pc, #40]	; (400da4 <pmc_enable_periph_clk+0x50>)
  400d7a:	f8d3 2108 	ldr.w	r2, [r3, #264]	; 0x108
  400d7e:	2301      	movs	r3, #1
  400d80:	4083      	lsls	r3, r0
  400d82:	4393      	bics	r3, r2
  400d84:	d00b      	beq.n	400d9e <pmc_enable_periph_clk+0x4a>
			PMC->PMC_PCER1 = 1 << ul_id;
  400d86:	2301      	movs	r3, #1
  400d88:	fa03 f000 	lsl.w	r0, r3, r0
  400d8c:	4b05      	ldr	r3, [pc, #20]	; (400da4 <pmc_enable_periph_clk+0x50>)
  400d8e:	f8c3 0100 	str.w	r0, [r3, #256]	; 0x100
	return 0;
  400d92:	2000      	movs	r0, #0
  400d94:	4770      	bx	lr
		return 1;
  400d96:	2001      	movs	r0, #1
  400d98:	4770      	bx	lr
	return 0;
  400d9a:	2000      	movs	r0, #0
  400d9c:	4770      	bx	lr
  400d9e:	2000      	movs	r0, #0
}
  400da0:	4770      	bx	lr
  400da2:	bf00      	nop
  400da4:	400e0600 	.word	0x400e0600

00400da8 <Dummy_Handler>:

/**
 * \brief Default interrupt handler for unused IRQs.
 */
void Dummy_Handler(void)
{
  400da8:	e7fe      	b.n	400da8 <Dummy_Handler>
	...

00400dac <Reset_Handler>:
{
  400dac:	b500      	push	{lr}
  400dae:	b083      	sub	sp, #12
        if (pSrc != pDest) {
  400db0:	4b25      	ldr	r3, [pc, #148]	; (400e48 <Reset_Handler+0x9c>)
  400db2:	4a26      	ldr	r2, [pc, #152]	; (400e4c <Reset_Handler+0xa0>)
  400db4:	429a      	cmp	r2, r3
  400db6:	d010      	beq.n	400dda <Reset_Handler+0x2e>
                for (; pDest < &_erelocate;) {
  400db8:	4b25      	ldr	r3, [pc, #148]	; (400e50 <Reset_Handler+0xa4>)
  400dba:	4a23      	ldr	r2, [pc, #140]	; (400e48 <Reset_Handler+0x9c>)
  400dbc:	429a      	cmp	r2, r3
  400dbe:	d20c      	bcs.n	400dda <Reset_Handler+0x2e>
  400dc0:	3b01      	subs	r3, #1
  400dc2:	1a9b      	subs	r3, r3, r2
  400dc4:	f023 0303 	bic.w	r3, r3, #3
  400dc8:	3304      	adds	r3, #4
  400dca:	4413      	add	r3, r2
  400dcc:	491f      	ldr	r1, [pc, #124]	; (400e4c <Reset_Handler+0xa0>)
                        *pDest++ = *pSrc++;
  400dce:	f851 0b04 	ldr.w	r0, [r1], #4
  400dd2:	f842 0b04 	str.w	r0, [r2], #4
                for (; pDest < &_erelocate;) {
  400dd6:	429a      	cmp	r2, r3
  400dd8:	d1f9      	bne.n	400dce <Reset_Handler+0x22>
        for (pDest = &_szero; pDest < &_ezero;) {
  400dda:	4b1e      	ldr	r3, [pc, #120]	; (400e54 <Reset_Handler+0xa8>)
  400ddc:	4a1e      	ldr	r2, [pc, #120]	; (400e58 <Reset_Handler+0xac>)
  400dde:	429a      	cmp	r2, r3
  400de0:	d20a      	bcs.n	400df8 <Reset_Handler+0x4c>
  400de2:	3b01      	subs	r3, #1
  400de4:	1a9b      	subs	r3, r3, r2
  400de6:	f023 0303 	bic.w	r3, r3, #3
  400dea:	3304      	adds	r3, #4
  400dec:	4413      	add	r3, r2
                *pDest++ = 0;
  400dee:	2100      	movs	r1, #0
  400df0:	f842 1b04 	str.w	r1, [r2], #4
        for (pDest = &_szero; pDest < &_ezero;) {
  400df4:	4293      	cmp	r3, r2
  400df6:	d1fb      	bne.n	400df0 <Reset_Handler+0x44>
        SCB->VTOR = ((uint32_t) pSrc & SCB_VTOR_TBLOFF_Msk);
  400df8:	4a18      	ldr	r2, [pc, #96]	; (400e5c <Reset_Handler+0xb0>)
  400dfa:	4b19      	ldr	r3, [pc, #100]	; (400e60 <Reset_Handler+0xb4>)
  400dfc:	f023 037f 	bic.w	r3, r3, #127	; 0x7f
  400e00:	6093      	str	r3, [r2, #8]
  __ASM volatile ("MRS %0, primask" : "=r" (result) );
  400e02:	f3ef 8310 	mrs	r3, PRIMASK
	volatile irqflags_t flags = cpu_irq_is_enabled();
  400e06:	fab3 f383 	clz	r3, r3
  400e0a:	095b      	lsrs	r3, r3, #5
  400e0c:	9301      	str	r3, [sp, #4]
  __ASM volatile ("cpsid i" : : : "memory");
  400e0e:	b672      	cpsid	i
  __ASM volatile ("dmb");
  400e10:	f3bf 8f5f 	dmb	sy
	cpu_irq_disable();
  400e14:	2200      	movs	r2, #0
  400e16:	4b13      	ldr	r3, [pc, #76]	; (400e64 <Reset_Handler+0xb8>)
  400e18:	701a      	strb	r2, [r3, #0]
	return flags;
  400e1a:	9901      	ldr	r1, [sp, #4]
 */
__always_inline static void fpu_enable(void)
{
	irqflags_t flags;
	flags = cpu_irq_save();
	REG_CPACR |=  (0xFu << 20);
  400e1c:	4a12      	ldr	r2, [pc, #72]	; (400e68 <Reset_Handler+0xbc>)
  400e1e:	6813      	ldr	r3, [r2, #0]
  400e20:	f443 0370 	orr.w	r3, r3, #15728640	; 0xf00000
  400e24:	6013      	str	r3, [r2, #0]
  __ASM volatile ("dsb");
  400e26:	f3bf 8f4f 	dsb	sy
  __ASM volatile ("isb");
  400e2a:	f3bf 8f6f 	isb	sy
	if (cpu_irq_is_enabled_flags(flags))
  400e2e:	b129      	cbz	r1, 400e3c <Reset_Handler+0x90>
		cpu_irq_enable();
  400e30:	2201      	movs	r2, #1
  400e32:	4b0c      	ldr	r3, [pc, #48]	; (400e64 <Reset_Handler+0xb8>)
  400e34:	701a      	strb	r2, [r3, #0]
  __ASM volatile ("dmb");
  400e36:	f3bf 8f5f 	dmb	sy
  __ASM volatile ("cpsie i" : : : "memory");
  400e3a:	b662      	cpsie	i
        __libc_init_array();
  400e3c:	4b0b      	ldr	r3, [pc, #44]	; (400e6c <Reset_Handler+0xc0>)
  400e3e:	4798      	blx	r3
        main();
  400e40:	4b0b      	ldr	r3, [pc, #44]	; (400e70 <Reset_Handler+0xc4>)
  400e42:	4798      	blx	r3
  400e44:	e7fe      	b.n	400e44 <Reset_Handler+0x98>
  400e46:	bf00      	nop
  400e48:	20400000 	.word	0x20400000
  400e4c:	004030ac 	.word	0x004030ac
  400e50:	20400854 	.word	0x20400854
  400e54:	20400ae8 	.word	0x20400ae8
  400e58:	20400854 	.word	0x20400854
  400e5c:	e000ed00 	.word	0xe000ed00
  400e60:	00400000 	.word	0x00400000
  400e64:	2040000a 	.word	0x2040000a
  400e68:	e000ed88 	.word	0xe000ed88
  400e6c:	00401335 	.word	0x00401335
  400e70:	0040120d 	.word	0x0040120d

00400e74 <SystemCoreClockUpdate>:
}

void SystemCoreClockUpdate( void )
{
  /* Determine clock frequency according to clock register values */
  switch (PMC->PMC_MCKR & (uint32_t) PMC_MCKR_CSS_Msk)
  400e74:	4b3b      	ldr	r3, [pc, #236]	; (400f64 <SystemCoreClockUpdate+0xf0>)
  400e76:	6b1b      	ldr	r3, [r3, #48]	; 0x30
  400e78:	f003 0303 	and.w	r3, r3, #3
  400e7c:	2b01      	cmp	r3, #1
  400e7e:	d01d      	beq.n	400ebc <SystemCoreClockUpdate+0x48>
  400e80:	b183      	cbz	r3, 400ea4 <SystemCoreClockUpdate+0x30>
  400e82:	2b02      	cmp	r3, #2
  400e84:	d036      	beq.n	400ef4 <SystemCoreClockUpdate+0x80>

    default:
    break;
  }

  if ( (PMC->PMC_MCKR & PMC_MCKR_PRES_Msk) == PMC_MCKR_PRES_CLK_3 )
  400e86:	4b37      	ldr	r3, [pc, #220]	; (400f64 <SystemCoreClockUpdate+0xf0>)
  400e88:	6b1b      	ldr	r3, [r3, #48]	; 0x30
  400e8a:	f003 0370 	and.w	r3, r3, #112	; 0x70
  400e8e:	2b70      	cmp	r3, #112	; 0x70
  400e90:	d05f      	beq.n	400f52 <SystemCoreClockUpdate+0xde>
  {
    SystemCoreClock /= 3U;
  }
  else
  {
    SystemCoreClock >>= ((PMC->PMC_MCKR & PMC_MCKR_PRES_Msk) >> PMC_MCKR_PRES_Pos);
  400e92:	4b34      	ldr	r3, [pc, #208]	; (400f64 <SystemCoreClockUpdate+0xf0>)
  400e94:	6b1a      	ldr	r2, [r3, #48]	; 0x30
  400e96:	4934      	ldr	r1, [pc, #208]	; (400f68 <SystemCoreClockUpdate+0xf4>)
  400e98:	f3c2 1202 	ubfx	r2, r2, #4, #3
  400e9c:	680b      	ldr	r3, [r1, #0]
  400e9e:	40d3      	lsrs	r3, r2
  400ea0:	600b      	str	r3, [r1, #0]
  400ea2:	4770      	bx	lr
      if ( SUPC->SUPC_SR & SUPC_SR_OSCSEL )
  400ea4:	4b31      	ldr	r3, [pc, #196]	; (400f6c <SystemCoreClockUpdate+0xf8>)
  400ea6:	695b      	ldr	r3, [r3, #20]
  400ea8:	f013 0f80 	tst.w	r3, #128	; 0x80
        SystemCoreClock = CHIP_FREQ_XTAL_32K;
  400eac:	bf14      	ite	ne
  400eae:	f44f 4200 	movne.w	r2, #32768	; 0x8000
        SystemCoreClock = CHIP_FREQ_SLCK_RC;
  400eb2:	f44f 42fa 	moveq.w	r2, #32000	; 0x7d00
  400eb6:	4b2c      	ldr	r3, [pc, #176]	; (400f68 <SystemCoreClockUpdate+0xf4>)
  400eb8:	601a      	str	r2, [r3, #0]
  400eba:	e7e4      	b.n	400e86 <SystemCoreClockUpdate+0x12>
      if ( PMC->CKGR_MOR & CKGR_MOR_MOSCSEL )
  400ebc:	4b29      	ldr	r3, [pc, #164]	; (400f64 <SystemCoreClockUpdate+0xf0>)
  400ebe:	6a1b      	ldr	r3, [r3, #32]
  400ec0:	f013 7f80 	tst.w	r3, #16777216	; 0x1000000
  400ec4:	d003      	beq.n	400ece <SystemCoreClockUpdate+0x5a>
        SystemCoreClock = CHIP_FREQ_XTAL_12M;
  400ec6:	4a2a      	ldr	r2, [pc, #168]	; (400f70 <SystemCoreClockUpdate+0xfc>)
  400ec8:	4b27      	ldr	r3, [pc, #156]	; (400f68 <SystemCoreClockUpdate+0xf4>)
  400eca:	601a      	str	r2, [r3, #0]
  400ecc:	e7db      	b.n	400e86 <SystemCoreClockUpdate+0x12>
        SystemCoreClock = CHIP_FREQ_MAINCK_RC_4MHZ;
  400ece:	4a29      	ldr	r2, [pc, #164]	; (400f74 <SystemCoreClockUpdate+0x100>)
  400ed0:	4b25      	ldr	r3, [pc, #148]	; (400f68 <SystemCoreClockUpdate+0xf4>)
  400ed2:	601a      	str	r2, [r3, #0]
        switch ( PMC->CKGR_MOR & CKGR_MOR_MOSCRCF_Msk )
  400ed4:	4b23      	ldr	r3, [pc, #140]	; (400f64 <SystemCoreClockUpdate+0xf0>)
  400ed6:	6a1b      	ldr	r3, [r3, #32]
  400ed8:	f003 0370 	and.w	r3, r3, #112	; 0x70
  400edc:	2b10      	cmp	r3, #16
  400ede:	d005      	beq.n	400eec <SystemCoreClockUpdate+0x78>
  400ee0:	2b20      	cmp	r3, #32
  400ee2:	d1d0      	bne.n	400e86 <SystemCoreClockUpdate+0x12>
            SystemCoreClock *= 3U;
  400ee4:	4a22      	ldr	r2, [pc, #136]	; (400f70 <SystemCoreClockUpdate+0xfc>)
  400ee6:	4b20      	ldr	r3, [pc, #128]	; (400f68 <SystemCoreClockUpdate+0xf4>)
  400ee8:	601a      	str	r2, [r3, #0]
          break;
  400eea:	e7cc      	b.n	400e86 <SystemCoreClockUpdate+0x12>
            SystemCoreClock *= 2U;
  400eec:	4a22      	ldr	r2, [pc, #136]	; (400f78 <SystemCoreClockUpdate+0x104>)
  400eee:	4b1e      	ldr	r3, [pc, #120]	; (400f68 <SystemCoreClockUpdate+0xf4>)
  400ef0:	601a      	str	r2, [r3, #0]
          break;
  400ef2:	e7c8      	b.n	400e86 <SystemCoreClockUpdate+0x12>
      if ( PMC->CKGR_MOR & CKGR_MOR_MOSCSEL )
  400ef4:	4b1b      	ldr	r3, [pc, #108]	; (400f64 <SystemCoreClockUpdate+0xf0>)
  400ef6:	6a1b      	ldr	r3, [r3, #32]
  400ef8:	f013 7f80 	tst.w	r3, #16777216	; 0x1000000
  400efc:	d016      	beq.n	400f2c <SystemCoreClockUpdate+0xb8>
        SystemCoreClock = CHIP_FREQ_XTAL_12M ;
  400efe:	4a1c      	ldr	r2, [pc, #112]	; (400f70 <SystemCoreClockUpdate+0xfc>)
  400f00:	4b19      	ldr	r3, [pc, #100]	; (400f68 <SystemCoreClockUpdate+0xf4>)
  400f02:	601a      	str	r2, [r3, #0]
      if ( (uint32_t) (PMC->PMC_MCKR & (uint32_t) PMC_MCKR_CSS_Msk) == PMC_MCKR_CSS_PLLA_CLK )
  400f04:	4b17      	ldr	r3, [pc, #92]	; (400f64 <SystemCoreClockUpdate+0xf0>)
  400f06:	6b1b      	ldr	r3, [r3, #48]	; 0x30
  400f08:	f003 0303 	and.w	r3, r3, #3
  400f0c:	2b02      	cmp	r3, #2
  400f0e:	d1ba      	bne.n	400e86 <SystemCoreClockUpdate+0x12>
        SystemCoreClock *= ((((PMC->CKGR_PLLAR) & CKGR_PLLAR_MULA_Msk) >> CKGR_PLLAR_MULA_Pos) + 1U);
  400f10:	4a14      	ldr	r2, [pc, #80]	; (400f64 <SystemCoreClockUpdate+0xf0>)
  400f12:	6a91      	ldr	r1, [r2, #40]	; 0x28
        SystemCoreClock /= ((((PMC->CKGR_PLLAR) & CKGR_PLLAR_DIVA_Msk) >> CKGR_PLLAR_DIVA_Pos));
  400f14:	6a92      	ldr	r2, [r2, #40]	; 0x28
  400f16:	4814      	ldr	r0, [pc, #80]	; (400f68 <SystemCoreClockUpdate+0xf4>)
        SystemCoreClock *= ((((PMC->CKGR_PLLAR) & CKGR_PLLAR_MULA_Msk) >> CKGR_PLLAR_MULA_Pos) + 1U);
  400f18:	f3c1 410a 	ubfx	r1, r1, #16, #11
  400f1c:	6803      	ldr	r3, [r0, #0]
  400f1e:	fb01 3303 	mla	r3, r1, r3, r3
        SystemCoreClock /= ((((PMC->CKGR_PLLAR) & CKGR_PLLAR_DIVA_Msk) >> CKGR_PLLAR_DIVA_Pos));
  400f22:	b2d2      	uxtb	r2, r2
  400f24:	fbb3 f3f2 	udiv	r3, r3, r2
  400f28:	6003      	str	r3, [r0, #0]
  400f2a:	e7ac      	b.n	400e86 <SystemCoreClockUpdate+0x12>
        SystemCoreClock = CHIP_FREQ_MAINCK_RC_4MHZ;
  400f2c:	4a11      	ldr	r2, [pc, #68]	; (400f74 <SystemCoreClockUpdate+0x100>)
  400f2e:	4b0e      	ldr	r3, [pc, #56]	; (400f68 <SystemCoreClockUpdate+0xf4>)
  400f30:	601a      	str	r2, [r3, #0]
        switch ( PMC->CKGR_MOR & CKGR_MOR_MOSCRCF_Msk )
  400f32:	4b0c      	ldr	r3, [pc, #48]	; (400f64 <SystemCoreClockUpdate+0xf0>)
  400f34:	6a1b      	ldr	r3, [r3, #32]
  400f36:	f003 0370 	and.w	r3, r3, #112	; 0x70
  400f3a:	2b10      	cmp	r3, #16
  400f3c:	d005      	beq.n	400f4a <SystemCoreClockUpdate+0xd6>
  400f3e:	2b20      	cmp	r3, #32
  400f40:	d1e0      	bne.n	400f04 <SystemCoreClockUpdate+0x90>
            SystemCoreClock *= 3U;
  400f42:	4a0b      	ldr	r2, [pc, #44]	; (400f70 <SystemCoreClockUpdate+0xfc>)
  400f44:	4b08      	ldr	r3, [pc, #32]	; (400f68 <SystemCoreClockUpdate+0xf4>)
  400f46:	601a      	str	r2, [r3, #0]
          break;
  400f48:	e7dc      	b.n	400f04 <SystemCoreClockUpdate+0x90>
            SystemCoreClock *= 2U;
  400f4a:	4a0b      	ldr	r2, [pc, #44]	; (400f78 <SystemCoreClockUpdate+0x104>)
  400f4c:	4b06      	ldr	r3, [pc, #24]	; (400f68 <SystemCoreClockUpdate+0xf4>)
  400f4e:	601a      	str	r2, [r3, #0]
          break;
  400f50:	e7d8      	b.n	400f04 <SystemCoreClockUpdate+0x90>
    SystemCoreClock /= 3U;
  400f52:	4a05      	ldr	r2, [pc, #20]	; (400f68 <SystemCoreClockUpdate+0xf4>)
  400f54:	6813      	ldr	r3, [r2, #0]
  400f56:	4909      	ldr	r1, [pc, #36]	; (400f7c <SystemCoreClockUpdate+0x108>)
  400f58:	fba1 1303 	umull	r1, r3, r1, r3
  400f5c:	085b      	lsrs	r3, r3, #1
  400f5e:	6013      	str	r3, [r2, #0]
  400f60:	4770      	bx	lr
  400f62:	bf00      	nop
  400f64:	400e0600 	.word	0x400e0600
  400f68:	2040000c 	.word	0x2040000c
  400f6c:	400e1810 	.word	0x400e1810
  400f70:	00b71b00 	.word	0x00b71b00
  400f74:	003d0900 	.word	0x003d0900
  400f78:	007a1200 	.word	0x007a1200
  400f7c:	aaaaaaab 	.word	0xaaaaaaab

00400f80 <system_init_flash>:
 * Initialize flash.
 */
void system_init_flash( uint32_t ul_clk )
{
  /* Set FWS for embedded Flash access according to operating frequency */
  if ( ul_clk < CHIP_FREQ_FWS_0 )
  400f80:	4b16      	ldr	r3, [pc, #88]	; (400fdc <system_init_flash+0x5c>)
  400f82:	4298      	cmp	r0, r3
  400f84:	d913      	bls.n	400fae <system_init_flash+0x2e>
  {
    EFC->EEFC_FMR = EEFC_FMR_FWS(0)|EEFC_FMR_CLOE;
  }
  else
  {
    if (ul_clk < CHIP_FREQ_FWS_1)
  400f86:	4b16      	ldr	r3, [pc, #88]	; (400fe0 <system_init_flash+0x60>)
  400f88:	4298      	cmp	r0, r3
  400f8a:	d915      	bls.n	400fb8 <system_init_flash+0x38>
    {
      EFC->EEFC_FMR = EEFC_FMR_FWS(1)|EEFC_FMR_CLOE;
    }
    else
    {
      if (ul_clk < CHIP_FREQ_FWS_2)
  400f8c:	4b15      	ldr	r3, [pc, #84]	; (400fe4 <system_init_flash+0x64>)
  400f8e:	4298      	cmp	r0, r3
  400f90:	d916      	bls.n	400fc0 <system_init_flash+0x40>
      {
        EFC->EEFC_FMR = EEFC_FMR_FWS(2)|EEFC_FMR_CLOE;
      }
      else
      {
        if ( ul_clk < CHIP_FREQ_FWS_3 )
  400f92:	4b15      	ldr	r3, [pc, #84]	; (400fe8 <system_init_flash+0x68>)
  400f94:	4298      	cmp	r0, r3
  400f96:	d917      	bls.n	400fc8 <system_init_flash+0x48>
        {
          EFC->EEFC_FMR = EEFC_FMR_FWS(3)|EEFC_FMR_CLOE;
        }
        else
        {
          if ( ul_clk < CHIP_FREQ_FWS_4 )
  400f98:	4b14      	ldr	r3, [pc, #80]	; (400fec <system_init_flash+0x6c>)
  400f9a:	4298      	cmp	r0, r3
  400f9c:	d918      	bls.n	400fd0 <system_init_flash+0x50>
          {
            EFC->EEFC_FMR = EEFC_FMR_FWS(4)|EEFC_FMR_CLOE;
          }
          else
          {
            if ( ul_clk < CHIP_FREQ_FWS_5 )
  400f9e:	4b14      	ldr	r3, [pc, #80]	; (400ff0 <system_init_flash+0x70>)
  400fa0:	4298      	cmp	r0, r3
            {
              EFC->EEFC_FMR = EEFC_FMR_FWS(5)|EEFC_FMR_CLOE;
  400fa2:	bf94      	ite	ls
  400fa4:	4a13      	ldrls	r2, [pc, #76]	; (400ff4 <system_init_flash+0x74>)
            }
            else
            {
              EFC->EEFC_FMR = EEFC_FMR_FWS(6)|EEFC_FMR_CLOE;
  400fa6:	4a14      	ldrhi	r2, [pc, #80]	; (400ff8 <system_init_flash+0x78>)
  400fa8:	4b14      	ldr	r3, [pc, #80]	; (400ffc <system_init_flash+0x7c>)
  400faa:	601a      	str	r2, [r3, #0]
  400fac:	4770      	bx	lr
    EFC->EEFC_FMR = EEFC_FMR_FWS(0)|EEFC_FMR_CLOE;
  400fae:	f04f 6280 	mov.w	r2, #67108864	; 0x4000000
  400fb2:	4b12      	ldr	r3, [pc, #72]	; (400ffc <system_init_flash+0x7c>)
  400fb4:	601a      	str	r2, [r3, #0]
  400fb6:	4770      	bx	lr
      EFC->EEFC_FMR = EEFC_FMR_FWS(1)|EEFC_FMR_CLOE;
  400fb8:	4a11      	ldr	r2, [pc, #68]	; (401000 <system_init_flash+0x80>)
  400fba:	4b10      	ldr	r3, [pc, #64]	; (400ffc <system_init_flash+0x7c>)
  400fbc:	601a      	str	r2, [r3, #0]
  400fbe:	4770      	bx	lr
        EFC->EEFC_FMR = EEFC_FMR_FWS(2)|EEFC_FMR_CLOE;
  400fc0:	4a10      	ldr	r2, [pc, #64]	; (401004 <system_init_flash+0x84>)
  400fc2:	4b0e      	ldr	r3, [pc, #56]	; (400ffc <system_init_flash+0x7c>)
  400fc4:	601a      	str	r2, [r3, #0]
  400fc6:	4770      	bx	lr
          EFC->EEFC_FMR = EEFC_FMR_FWS(3)|EEFC_FMR_CLOE;
  400fc8:	4a0f      	ldr	r2, [pc, #60]	; (401008 <system_init_flash+0x88>)
  400fca:	4b0c      	ldr	r3, [pc, #48]	; (400ffc <system_init_flash+0x7c>)
  400fcc:	601a      	str	r2, [r3, #0]
  400fce:	4770      	bx	lr
            EFC->EEFC_FMR = EEFC_FMR_FWS(4)|EEFC_FMR_CLOE;
  400fd0:	f04f 2204 	mov.w	r2, #67109888	; 0x4000400
  400fd4:	4b09      	ldr	r3, [pc, #36]	; (400ffc <system_init_flash+0x7c>)
  400fd6:	601a      	str	r2, [r3, #0]
  400fd8:	4770      	bx	lr
  400fda:	bf00      	nop
  400fdc:	015ef3bf 	.word	0x015ef3bf
  400fe0:	02bde77f 	.word	0x02bde77f
  400fe4:	041cdb3f 	.word	0x041cdb3f
  400fe8:	057bceff 	.word	0x057bceff
  400fec:	06dac2bf 	.word	0x06dac2bf
  400ff0:	0839b67f 	.word	0x0839b67f
  400ff4:	04000500 	.word	0x04000500
  400ff8:	04000600 	.word	0x04000600
  400ffc:	400e0c00 	.word	0x400e0c00
  401000:	04000100 	.word	0x04000100
  401004:	04000200 	.word	0x04000200
  401008:	04000300 	.word	0x04000300

0040100c <_sbrk>:
{
	static unsigned char *heap = NULL;
	unsigned char *prev_heap;
	int ramend = (int)&__ram_end__;

	if (heap == NULL) {
  40100c:	4b0a      	ldr	r3, [pc, #40]	; (401038 <_sbrk+0x2c>)
  40100e:	681b      	ldr	r3, [r3, #0]
  401010:	b153      	cbz	r3, 401028 <_sbrk+0x1c>
		heap = (unsigned char *)&_end;
	}
	prev_heap = heap;
  401012:	4b09      	ldr	r3, [pc, #36]	; (401038 <_sbrk+0x2c>)
  401014:	681b      	ldr	r3, [r3, #0]

	if (((int)prev_heap + incr) > ramend) {
  401016:	181a      	adds	r2, r3, r0
  401018:	4908      	ldr	r1, [pc, #32]	; (40103c <_sbrk+0x30>)
  40101a:	4291      	cmp	r1, r2
  40101c:	db08      	blt.n	401030 <_sbrk+0x24>
		return (caddr_t) -1;	
	}

	heap += incr;
  40101e:	4610      	mov	r0, r2
  401020:	4a05      	ldr	r2, [pc, #20]	; (401038 <_sbrk+0x2c>)
  401022:	6010      	str	r0, [r2, #0]

	return (caddr_t) prev_heap;
  401024:	4618      	mov	r0, r3
  401026:	4770      	bx	lr
		heap = (unsigned char *)&_end;
  401028:	4a05      	ldr	r2, [pc, #20]	; (401040 <_sbrk+0x34>)
  40102a:	4b03      	ldr	r3, [pc, #12]	; (401038 <_sbrk+0x2c>)
  40102c:	601a      	str	r2, [r3, #0]
  40102e:	e7f0      	b.n	401012 <_sbrk+0x6>
		return (caddr_t) -1;	
  401030:	f04f 30ff 	mov.w	r0, #4294967295
}
  401034:	4770      	bx	lr
  401036:	bf00      	nop
  401038:	204008ec 	.word	0x204008ec
  40103c:	2045fffc 	.word	0x2045fffc
  401040:	20402ce8 	.word	0x20402ce8

00401044 <_close>:
}

extern int _close(int file)
{
	return -1;
}
  401044:	f04f 30ff 	mov.w	r0, #4294967295
  401048:	4770      	bx	lr

0040104a <_fstat>:

extern int _fstat(int file, struct stat *st)
{
	st->st_mode = S_IFCHR;
  40104a:	f44f 5300 	mov.w	r3, #8192	; 0x2000
  40104e:	604b      	str	r3, [r1, #4]

	return 0;
}
  401050:	2000      	movs	r0, #0
  401052:	4770      	bx	lr

00401054 <_isatty>:

extern int _isatty(int file)
{
	return 1;
}
  401054:	2001      	movs	r0, #1
  401056:	4770      	bx	lr

00401058 <_lseek>:

extern int _lseek(int file, int ptr, int dir)
{
	return 0;
}
  401058:	2000      	movs	r0, #0
  40105a:	4770      	bx	lr

0040105c <usart_serial_getchar>:
 * \param p_usart   Base address of the USART instance.
 * \param data   Data to read
 *
 */
static inline void usart_serial_getchar(usart_if p_usart, uint8_t *data)
{
  40105c:	b5f0      	push	{r4, r5, r6, r7, lr}
  40105e:	b083      	sub	sp, #12
  401060:	4605      	mov	r5, r0
  401062:	460c      	mov	r4, r1
	uint32_t val = 0;
  401064:	2300      	movs	r3, #0
  401066:	9301      	str	r3, [sp, #4]
	if (UART == (Uart*)p_usart) {
		while (uart_read((Uart*)p_usart, data));
	}
#else
# ifdef UART0
	if (UART0 == (Uart*)p_usart) {
  401068:	4b2a      	ldr	r3, [pc, #168]	; (401114 <usart_serial_getchar+0xb8>)
  40106a:	4298      	cmp	r0, r3
  40106c:	d013      	beq.n	401096 <usart_serial_getchar+0x3a>
		while (uart_read((Uart*)p_usart, data));
	}
# endif
# ifdef UART1
	if (UART1 == (Uart*)p_usart) {
  40106e:	4b2a      	ldr	r3, [pc, #168]	; (401118 <usart_serial_getchar+0xbc>)
  401070:	4298      	cmp	r0, r3
  401072:	d018      	beq.n	4010a6 <usart_serial_getchar+0x4a>
		while (uart_read((Uart*)p_usart, data));
	}
# endif
# ifdef UART2
	if (UART2 == (Uart*)p_usart) {
  401074:	4b29      	ldr	r3, [pc, #164]	; (40111c <usart_serial_getchar+0xc0>)
  401076:	4298      	cmp	r0, r3
  401078:	d01d      	beq.n	4010b6 <usart_serial_getchar+0x5a>
		while (uart_read((Uart*)p_usart, data));
	}
# endif
# ifdef UART3
	if (UART3 == (Uart*)p_usart) {
  40107a:	4b29      	ldr	r3, [pc, #164]	; (401120 <usart_serial_getchar+0xc4>)
  40107c:	429d      	cmp	r5, r3
  40107e:	d022      	beq.n	4010c6 <usart_serial_getchar+0x6a>
		while (usart_read(p_usart, &val));
		*data = (uint8_t)(val & 0xFF);
	}
#else
# ifdef USART0
	if (USART0 == p_usart) {
  401080:	4b28      	ldr	r3, [pc, #160]	; (401124 <usart_serial_getchar+0xc8>)
  401082:	429d      	cmp	r5, r3
  401084:	d027      	beq.n	4010d6 <usart_serial_getchar+0x7a>
		while (usart_read(p_usart, &val));
		*data = (uint8_t)(val & 0xFF);
	}
# endif
# ifdef USART1
	if (USART1 == p_usart) {
  401086:	4b28      	ldr	r3, [pc, #160]	; (401128 <usart_serial_getchar+0xcc>)
  401088:	429d      	cmp	r5, r3
  40108a:	d02e      	beq.n	4010ea <usart_serial_getchar+0x8e>
		while (usart_read(p_usart, &val));
		*data = (uint8_t)(val & 0xFF);
	}
# endif
# ifdef USART2
	if (USART2 == p_usart) {
  40108c:	4b27      	ldr	r3, [pc, #156]	; (40112c <usart_serial_getchar+0xd0>)
  40108e:	429d      	cmp	r5, r3
  401090:	d035      	beq.n	4010fe <usart_serial_getchar+0xa2>
		*data = (uint8_t)(val & 0xFF);
	}
# endif
#endif /* ifdef USART */

}
  401092:	b003      	add	sp, #12
  401094:	bdf0      	pop	{r4, r5, r6, r7, pc}
		while (uart_read((Uart*)p_usart, data));
  401096:	461f      	mov	r7, r3
  401098:	4e25      	ldr	r6, [pc, #148]	; (401130 <usart_serial_getchar+0xd4>)
  40109a:	4621      	mov	r1, r4
  40109c:	4638      	mov	r0, r7
  40109e:	47b0      	blx	r6
  4010a0:	2800      	cmp	r0, #0
  4010a2:	d1fa      	bne.n	40109a <usart_serial_getchar+0x3e>
  4010a4:	e7e9      	b.n	40107a <usart_serial_getchar+0x1e>
		while (uart_read((Uart*)p_usart, data));
  4010a6:	461f      	mov	r7, r3
  4010a8:	4e21      	ldr	r6, [pc, #132]	; (401130 <usart_serial_getchar+0xd4>)
  4010aa:	4621      	mov	r1, r4
  4010ac:	4638      	mov	r0, r7
  4010ae:	47b0      	blx	r6
  4010b0:	2800      	cmp	r0, #0
  4010b2:	d1fa      	bne.n	4010aa <usart_serial_getchar+0x4e>
  4010b4:	e7e4      	b.n	401080 <usart_serial_getchar+0x24>
		while (uart_read((Uart*)p_usart, data));
  4010b6:	461f      	mov	r7, r3
  4010b8:	4e1d      	ldr	r6, [pc, #116]	; (401130 <usart_serial_getchar+0xd4>)
  4010ba:	4621      	mov	r1, r4
  4010bc:	4638      	mov	r0, r7
  4010be:	47b0      	blx	r6
  4010c0:	2800      	cmp	r0, #0
  4010c2:	d1fa      	bne.n	4010ba <usart_serial_getchar+0x5e>
  4010c4:	e7df      	b.n	401086 <usart_serial_getchar+0x2a>
		while (uart_read((Uart*)p_usart, data));
  4010c6:	461f      	mov	r7, r3
  4010c8:	4e19      	ldr	r6, [pc, #100]	; (401130 <usart_serial_getchar+0xd4>)
  4010ca:	4621      	mov	r1, r4
  4010cc:	4638      	mov	r0, r7
  4010ce:	47b0      	blx	r6
  4010d0:	2800      	cmp	r0, #0
  4010d2:	d1fa      	bne.n	4010ca <usart_serial_getchar+0x6e>
  4010d4:	e7da      	b.n	40108c <usart_serial_getchar+0x30>
		while (usart_read(p_usart, &val));
  4010d6:	461e      	mov	r6, r3
  4010d8:	4d16      	ldr	r5, [pc, #88]	; (401134 <usart_serial_getchar+0xd8>)
  4010da:	a901      	add	r1, sp, #4
  4010dc:	4630      	mov	r0, r6
  4010de:	47a8      	blx	r5
  4010e0:	2800      	cmp	r0, #0
  4010e2:	d1fa      	bne.n	4010da <usart_serial_getchar+0x7e>
		*data = (uint8_t)(val & 0xFF);
  4010e4:	9b01      	ldr	r3, [sp, #4]
  4010e6:	7023      	strb	r3, [r4, #0]
  4010e8:	e7d3      	b.n	401092 <usart_serial_getchar+0x36>
		while (usart_read(p_usart, &val));
  4010ea:	461e      	mov	r6, r3
  4010ec:	4d11      	ldr	r5, [pc, #68]	; (401134 <usart_serial_getchar+0xd8>)
  4010ee:	a901      	add	r1, sp, #4
  4010f0:	4630      	mov	r0, r6
  4010f2:	47a8      	blx	r5
  4010f4:	2800      	cmp	r0, #0
  4010f6:	d1fa      	bne.n	4010ee <usart_serial_getchar+0x92>
		*data = (uint8_t)(val & 0xFF);
  4010f8:	9b01      	ldr	r3, [sp, #4]
  4010fa:	7023      	strb	r3, [r4, #0]
  4010fc:	e7c9      	b.n	401092 <usart_serial_getchar+0x36>
		while (usart_read(p_usart, &val));
  4010fe:	461e      	mov	r6, r3
  401100:	4d0c      	ldr	r5, [pc, #48]	; (401134 <usart_serial_getchar+0xd8>)
  401102:	a901      	add	r1, sp, #4
  401104:	4630      	mov	r0, r6
  401106:	47a8      	blx	r5
  401108:	2800      	cmp	r0, #0
  40110a:	d1fa      	bne.n	401102 <usart_serial_getchar+0xa6>
		*data = (uint8_t)(val & 0xFF);
  40110c:	9b01      	ldr	r3, [sp, #4]
  40110e:	7023      	strb	r3, [r4, #0]
}
  401110:	e7bf      	b.n	401092 <usart_serial_getchar+0x36>
  401112:	bf00      	nop
  401114:	400e0800 	.word	0x400e0800
  401118:	400e0a00 	.word	0x400e0a00
  40111c:	400e1a00 	.word	0x400e1a00
  401120:	400e1c00 	.word	0x400e1c00
  401124:	40024000 	.word	0x40024000
  401128:	40028000 	.word	0x40028000
  40112c:	4002c000 	.word	0x4002c000
  401130:	0040035d 	.word	0x0040035d
  401134:	00400333 	.word	0x00400333

00401138 <usart_serial_putchar>:
{
  401138:	b570      	push	{r4, r5, r6, lr}
  40113a:	460c      	mov	r4, r1
	if (UART0 == (Uart*)p_usart) {
  40113c:	4b2a      	ldr	r3, [pc, #168]	; (4011e8 <usart_serial_putchar+0xb0>)
  40113e:	4298      	cmp	r0, r3
  401140:	d013      	beq.n	40116a <usart_serial_putchar+0x32>
	if (UART1 == (Uart*)p_usart) {
  401142:	4b2a      	ldr	r3, [pc, #168]	; (4011ec <usart_serial_putchar+0xb4>)
  401144:	4298      	cmp	r0, r3
  401146:	d019      	beq.n	40117c <usart_serial_putchar+0x44>
	if (UART2 == (Uart*)p_usart) {
  401148:	4b29      	ldr	r3, [pc, #164]	; (4011f0 <usart_serial_putchar+0xb8>)
  40114a:	4298      	cmp	r0, r3
  40114c:	d01f      	beq.n	40118e <usart_serial_putchar+0x56>
	if (UART3 == (Uart*)p_usart) {
  40114e:	4b29      	ldr	r3, [pc, #164]	; (4011f4 <usart_serial_putchar+0xbc>)
  401150:	4298      	cmp	r0, r3
  401152:	d025      	beq.n	4011a0 <usart_serial_putchar+0x68>
	if (USART0 == p_usart) {
  401154:	4b28      	ldr	r3, [pc, #160]	; (4011f8 <usart_serial_putchar+0xc0>)
  401156:	4298      	cmp	r0, r3
  401158:	d02b      	beq.n	4011b2 <usart_serial_putchar+0x7a>
	if (USART1 == p_usart) {
  40115a:	4b28      	ldr	r3, [pc, #160]	; (4011fc <usart_serial_putchar+0xc4>)
  40115c:	4298      	cmp	r0, r3
  40115e:	d031      	beq.n	4011c4 <usart_serial_putchar+0x8c>
	if (USART2 == p_usart) {
  401160:	4b27      	ldr	r3, [pc, #156]	; (401200 <usart_serial_putchar+0xc8>)
  401162:	4298      	cmp	r0, r3
  401164:	d037      	beq.n	4011d6 <usart_serial_putchar+0x9e>
	return 0;
  401166:	2000      	movs	r0, #0
}
  401168:	bd70      	pop	{r4, r5, r6, pc}
		while (uart_write((Uart*)p_usart, c)!=0);
  40116a:	461e      	mov	r6, r3
  40116c:	4d25      	ldr	r5, [pc, #148]	; (401204 <usart_serial_putchar+0xcc>)
  40116e:	4621      	mov	r1, r4
  401170:	4630      	mov	r0, r6
  401172:	47a8      	blx	r5
  401174:	2800      	cmp	r0, #0
  401176:	d1fa      	bne.n	40116e <usart_serial_putchar+0x36>
		return 1;
  401178:	2001      	movs	r0, #1
  40117a:	bd70      	pop	{r4, r5, r6, pc}
		while (uart_write((Uart*)p_usart, c)!=0);
  40117c:	461e      	mov	r6, r3
  40117e:	4d21      	ldr	r5, [pc, #132]	; (401204 <usart_serial_putchar+0xcc>)
  401180:	4621      	mov	r1, r4
  401182:	4630      	mov	r0, r6
  401184:	47a8      	blx	r5
  401186:	2800      	cmp	r0, #0
  401188:	d1fa      	bne.n	401180 <usart_serial_putchar+0x48>
		return 1;
  40118a:	2001      	movs	r0, #1
  40118c:	bd70      	pop	{r4, r5, r6, pc}
		while (uart_write((Uart*)p_usart, c)!=0);
  40118e:	461e      	mov	r6, r3
  401190:	4d1c      	ldr	r5, [pc, #112]	; (401204 <usart_serial_putchar+0xcc>)
  401192:	4621      	mov	r1, r4
  401194:	4630      	mov	r0, r6
  401196:	47a8      	blx	r5
  401198:	2800      	cmp	r0, #0
  40119a:	d1fa      	bne.n	401192 <usart_serial_putchar+0x5a>
		return 1;
  40119c:	2001      	movs	r0, #1
  40119e:	bd70      	pop	{r4, r5, r6, pc}
		while (uart_write((Uart*)p_usart, c)!=0);
  4011a0:	461e      	mov	r6, r3
  4011a2:	4d18      	ldr	r5, [pc, #96]	; (401204 <usart_serial_putchar+0xcc>)
  4011a4:	4621      	mov	r1, r4
  4011a6:	4630      	mov	r0, r6
  4011a8:	47a8      	blx	r5
  4011aa:	2800      	cmp	r0, #0
  4011ac:	d1fa      	bne.n	4011a4 <usart_serial_putchar+0x6c>
		return 1;
  4011ae:	2001      	movs	r0, #1
  4011b0:	bd70      	pop	{r4, r5, r6, pc}
		while (usart_write(p_usart, c)!=0);
  4011b2:	461e      	mov	r6, r3
  4011b4:	4d14      	ldr	r5, [pc, #80]	; (401208 <usart_serial_putchar+0xd0>)
  4011b6:	4621      	mov	r1, r4
  4011b8:	4630      	mov	r0, r6
  4011ba:	47a8      	blx	r5
  4011bc:	2800      	cmp	r0, #0
  4011be:	d1fa      	bne.n	4011b6 <usart_serial_putchar+0x7e>
		return 1;
  4011c0:	2001      	movs	r0, #1
  4011c2:	bd70      	pop	{r4, r5, r6, pc}
		while (usart_write(p_usart, c)!=0);
  4011c4:	461e      	mov	r6, r3
  4011c6:	4d10      	ldr	r5, [pc, #64]	; (401208 <usart_serial_putchar+0xd0>)
  4011c8:	4621      	mov	r1, r4
  4011ca:	4630      	mov	r0, r6
  4011cc:	47a8      	blx	r5
  4011ce:	2800      	cmp	r0, #0
  4011d0:	d1fa      	bne.n	4011c8 <usart_serial_putchar+0x90>
		return 1;
  4011d2:	2001      	movs	r0, #1
  4011d4:	bd70      	pop	{r4, r5, r6, pc}
		while (usart_write(p_usart, c)!=0);
  4011d6:	461e      	mov	r6, r3
  4011d8:	4d0b      	ldr	r5, [pc, #44]	; (401208 <usart_serial_putchar+0xd0>)
  4011da:	4621      	mov	r1, r4
  4011dc:	4630      	mov	r0, r6
  4011de:	47a8      	blx	r5
  4011e0:	2800      	cmp	r0, #0
  4011e2:	d1fa      	bne.n	4011da <usart_serial_putchar+0xa2>
		return 1;
  4011e4:	2001      	movs	r0, #1
  4011e6:	bd70      	pop	{r4, r5, r6, pc}
  4011e8:	400e0800 	.word	0x400e0800
  4011ec:	400e0a00 	.word	0x400e0a00
  4011f0:	400e1a00 	.word	0x400e1a00
  4011f4:	400e1c00 	.word	0x400e1c00
  4011f8:	40024000 	.word	0x40024000
  4011fc:	40028000 	.word	0x40028000
  401200:	4002c000 	.word	0x4002c000
  401204:	0040034b 	.word	0x0040034b
  401208:	0040031d 	.word	0x0040031d

0040120c <main>:
 * \brief Application entry point.
 *
 * \return Unused (ANSI-C compatibility).
 */
int main(void)
{
  40120c:	b500      	push	{lr}
  40120e:	b087      	sub	sp, #28
	/* Initialize the SAM system. */
	sysclk_init();
  401210:	4b2c      	ldr	r3, [pc, #176]	; (4012c4 <main+0xb8>)
  401212:	4798      	blx	r3
	board_init();
  401214:	4b2c      	ldr	r3, [pc, #176]	; (4012c8 <main+0xbc>)
  401216:	4798      	blx	r3
  401218:	200e      	movs	r0, #14
  40121a:	4e2c      	ldr	r6, [pc, #176]	; (4012cc <main+0xc0>)
  40121c:	47b0      	blx	r6
 * \param opt         Options needed to set up RS232 communication (see \ref usart_options_t).
 *
 */
static inline void stdio_serial_init(volatile void *usart, const usart_serial_options_t *opt)
{
	stdio_base = (void *)usart;
  40121e:	4d2c      	ldr	r5, [pc, #176]	; (4012d0 <main+0xc4>)
  401220:	4b2c      	ldr	r3, [pc, #176]	; (4012d4 <main+0xc8>)
  401222:	601d      	str	r5, [r3, #0]
	ptr_put = (int (*)(void volatile*,char))&usart_serial_putchar;
  401224:	4a2c      	ldr	r2, [pc, #176]	; (4012d8 <main+0xcc>)
  401226:	4b2d      	ldr	r3, [pc, #180]	; (4012dc <main+0xd0>)
  401228:	601a      	str	r2, [r3, #0]
	ptr_get = (void (*)(void volatile*,char*))&usart_serial_getchar;
  40122a:	4a2d      	ldr	r2, [pc, #180]	; (4012e0 <main+0xd4>)
  40122c:	4b2d      	ldr	r3, [pc, #180]	; (4012e4 <main+0xd8>)
  40122e:	601a      	str	r2, [r3, #0]
	usart_settings.baudrate = opt->baudrate;
  401230:	f44f 33e1 	mov.w	r3, #115200	; 0x1c200
  401234:	9300      	str	r3, [sp, #0]
	usart_settings.char_length = opt->charlength;
  401236:	23c0      	movs	r3, #192	; 0xc0
  401238:	9301      	str	r3, [sp, #4]
	usart_settings.parity_type = opt->paritytype;
  40123a:	f44f 6300 	mov.w	r3, #2048	; 0x800
  40123e:	9302      	str	r3, [sp, #8]
	usart_settings.stop_bits= opt->stopbits;
  401240:	2400      	movs	r4, #0
  401242:	9403      	str	r4, [sp, #12]
	usart_settings.channel_mode= US_MR_CHMODE_NORMAL;
  401244:	9404      	str	r4, [sp, #16]
  401246:	200e      	movs	r0, #14
  401248:	47b0      	blx	r6
		usart_init_rs232(p_usart, &usart_settings,
  40124a:	4a27      	ldr	r2, [pc, #156]	; (4012e8 <main+0xdc>)
  40124c:	4669      	mov	r1, sp
  40124e:	4628      	mov	r0, r5
  401250:	4b26      	ldr	r3, [pc, #152]	; (4012ec <main+0xe0>)
  401252:	4798      	blx	r3
		usart_enable_tx(p_usart);
  401254:	4628      	mov	r0, r5
  401256:	4b26      	ldr	r3, [pc, #152]	; (4012f0 <main+0xe4>)
  401258:	4798      	blx	r3
		usart_enable_rx(p_usart);
  40125a:	4628      	mov	r0, r5
  40125c:	4b25      	ldr	r3, [pc, #148]	; (4012f4 <main+0xe8>)
  40125e:	4798      	blx	r3
	fdevopen((int (*)(char, FILE*))(_write),(int (*)(FILE*))(_read));
#  endif
#  if UC3 || SAM
	// For AVR32 and SAM GCC
	// Specify that stdout and stdin should not be buffered.
	setbuf(stdout, NULL);
  401260:	4e25      	ldr	r6, [pc, #148]	; (4012f8 <main+0xec>)
  401262:	6833      	ldr	r3, [r6, #0]
  401264:	4621      	mov	r1, r4
  401266:	6898      	ldr	r0, [r3, #8]
  401268:	4d24      	ldr	r5, [pc, #144]	; (4012fc <main+0xf0>)
  40126a:	47a8      	blx	r5
	setbuf(stdin, NULL);
  40126c:	6833      	ldr	r3, [r6, #0]
  40126e:	4621      	mov	r1, r4
  401270:	6858      	ldr	r0, [r3, #4]
  401272:	47a8      	blx	r5
	configure_console();
    
	pio_configure(PIOC, PIO_OUTPUT_1, 1 << 8, PIO_DEFAULT);
  401274:	4623      	mov	r3, r4
  401276:	f44f 7280 	mov.w	r2, #256	; 0x100
  40127a:	f04f 5160 	mov.w	r1, #939524096	; 0x38000000
  40127e:	4820      	ldr	r0, [pc, #128]	; (401300 <main+0xf4>)
  401280:	4c20      	ldr	r4, [pc, #128]	; (401304 <main+0xf8>)
  401282:	47a0      	blx	r4
	
	/* Output example information. */
	puts(STRING_HEADER);
  401284:	4820      	ldr	r0, [pc, #128]	; (401308 <main+0xfc>)
  401286:	4b21      	ldr	r3, [pc, #132]	; (40130c <main+0x100>)
  401288:	4798      	blx	r3
	
	h4d69_init();
  40128a:	4b21      	ldr	r3, [pc, #132]	; (401310 <main+0x104>)
  40128c:	4798      	blx	r3
	h4d69_enable_interrupt();
  40128e:	4b21      	ldr	r3, [pc, #132]	; (401314 <main+0x108>)
  401290:	4798      	blx	r3
	
	while (1) {
		h4d69_update();
  401292:	4e21      	ldr	r6, [pc, #132]	; (401318 <main+0x10c>)
		if(h4d69_has_beat()) {
  401294:	4d21      	ldr	r5, [pc, #132]	; (40131c <main+0x110>)
			pio_clear(PIOC, 1 << 8);
		} else {
			pio_set(PIOC, 1 << 8);
  401296:	4c1a      	ldr	r4, [pc, #104]	; (401300 <main+0xf4>)
  401298:	e009      	b.n	4012ae <main+0xa2>
  40129a:	f44f 7180 	mov.w	r1, #256	; 0x100
  40129e:	4620      	mov	r0, r4
  4012a0:	4b1f      	ldr	r3, [pc, #124]	; (401320 <main+0x114>)
  4012a2:	4798      	blx	r3
		}
		h4d69_convert();
  4012a4:	4b1f      	ldr	r3, [pc, #124]	; (401324 <main+0x118>)
  4012a6:	4798      	blx	r3
		delay_ms(10);
  4012a8:	481f      	ldr	r0, [pc, #124]	; (401328 <main+0x11c>)
  4012aa:	4b20      	ldr	r3, [pc, #128]	; (40132c <main+0x120>)
  4012ac:	4798      	blx	r3
		h4d69_update();
  4012ae:	47b0      	blx	r6
		if(h4d69_has_beat()) {
  4012b0:	47a8      	blx	r5
  4012b2:	2800      	cmp	r0, #0
  4012b4:	d0f1      	beq.n	40129a <main+0x8e>
			pio_clear(PIOC, 1 << 8);
  4012b6:	f44f 7180 	mov.w	r1, #256	; 0x100
  4012ba:	4620      	mov	r0, r4
  4012bc:	4b1c      	ldr	r3, [pc, #112]	; (401330 <main+0x124>)
  4012be:	4798      	blx	r3
  4012c0:	e7f0      	b.n	4012a4 <main+0x98>
  4012c2:	bf00      	nop
  4012c4:	00400841 	.word	0x00400841
  4012c8:	004008b1 	.word	0x004008b1
  4012cc:	00400d55 	.word	0x00400d55
  4012d0:	40028000 	.word	0x40028000
  4012d4:	2040092c 	.word	0x2040092c
  4012d8:	00401139 	.word	0x00401139
  4012dc:	20400928 	.word	0x20400928
  4012e0:	0040105d 	.word	0x0040105d
  4012e4:	20400924 	.word	0x20400924
  4012e8:	08f0d180 	.word	0x08f0d180
  4012ec:	004002bd 	.word	0x004002bd
  4012f0:	00400311 	.word	0x00400311
  4012f4:	00400317 	.word	0x00400317
  4012f8:	20400010 	.word	0x20400010
  4012fc:	004014cd 	.word	0x004014cd
  401300:	400e1200 	.word	0x400e1200
  401304:	00400ae9 	.word	0x00400ae9
  401308:	00403020 	.word	0x00403020
  40130c:	004014bd 	.word	0x004014bd
  401310:	004003e9 	.word	0x004003e9
  401314:	00400481 	.word	0x00400481
  401318:	004004a1 	.word	0x004004a1
  40131c:	00400555 	.word	0x00400555
  401320:	004009f1 	.word	0x004009f1
  401324:	00400509 	.word	0x00400509
  401328:	0007b784 	.word	0x0007b784
  40132c:	20400001 	.word	0x20400001
  401330:	004009f5 	.word	0x004009f5

00401334 <__libc_init_array>:
  401334:	b570      	push	{r4, r5, r6, lr}
  401336:	4e0f      	ldr	r6, [pc, #60]	; (401374 <__libc_init_array+0x40>)
  401338:	4d0f      	ldr	r5, [pc, #60]	; (401378 <__libc_init_array+0x44>)
  40133a:	1b76      	subs	r6, r6, r5
  40133c:	10b6      	asrs	r6, r6, #2
  40133e:	bf18      	it	ne
  401340:	2400      	movne	r4, #0
  401342:	d005      	beq.n	401350 <__libc_init_array+0x1c>
  401344:	3401      	adds	r4, #1
  401346:	f855 3b04 	ldr.w	r3, [r5], #4
  40134a:	4798      	blx	r3
  40134c:	42a6      	cmp	r6, r4
  40134e:	d1f9      	bne.n	401344 <__libc_init_array+0x10>
  401350:	4e0a      	ldr	r6, [pc, #40]	; (40137c <__libc_init_array+0x48>)
  401352:	4d0b      	ldr	r5, [pc, #44]	; (401380 <__libc_init_array+0x4c>)
  401354:	1b76      	subs	r6, r6, r5
  401356:	f001 fe97 	bl	403088 <_init>
  40135a:	10b6      	asrs	r6, r6, #2
  40135c:	bf18      	it	ne
  40135e:	2400      	movne	r4, #0
  401360:	d006      	beq.n	401370 <__libc_init_array+0x3c>
  401362:	3401      	adds	r4, #1
  401364:	f855 3b04 	ldr.w	r3, [r5], #4
  401368:	4798      	blx	r3
  40136a:	42a6      	cmp	r6, r4
  40136c:	d1f9      	bne.n	401362 <__libc_init_array+0x2e>
  40136e:	bd70      	pop	{r4, r5, r6, pc}
  401370:	bd70      	pop	{r4, r5, r6, pc}
  401372:	bf00      	nop
  401374:	00403094 	.word	0x00403094
  401378:	00403094 	.word	0x00403094
  40137c:	0040309c 	.word	0x0040309c
  401380:	00403094 	.word	0x00403094

00401384 <memset>:
  401384:	b470      	push	{r4, r5, r6}
  401386:	0786      	lsls	r6, r0, #30
  401388:	d046      	beq.n	401418 <memset+0x94>
  40138a:	1e54      	subs	r4, r2, #1
  40138c:	2a00      	cmp	r2, #0
  40138e:	d041      	beq.n	401414 <memset+0x90>
  401390:	b2ca      	uxtb	r2, r1
  401392:	4603      	mov	r3, r0
  401394:	e002      	b.n	40139c <memset+0x18>
  401396:	f114 34ff 	adds.w	r4, r4, #4294967295
  40139a:	d33b      	bcc.n	401414 <memset+0x90>
  40139c:	f803 2b01 	strb.w	r2, [r3], #1
  4013a0:	079d      	lsls	r5, r3, #30
  4013a2:	d1f8      	bne.n	401396 <memset+0x12>
  4013a4:	2c03      	cmp	r4, #3
  4013a6:	d92e      	bls.n	401406 <memset+0x82>
  4013a8:	b2cd      	uxtb	r5, r1
  4013aa:	ea45 2505 	orr.w	r5, r5, r5, lsl #8
  4013ae:	2c0f      	cmp	r4, #15
  4013b0:	ea45 4505 	orr.w	r5, r5, r5, lsl #16
  4013b4:	d919      	bls.n	4013ea <memset+0x66>
  4013b6:	f103 0210 	add.w	r2, r3, #16
  4013ba:	4626      	mov	r6, r4
  4013bc:	3e10      	subs	r6, #16
  4013be:	2e0f      	cmp	r6, #15
  4013c0:	f842 5c10 	str.w	r5, [r2, #-16]
  4013c4:	f842 5c0c 	str.w	r5, [r2, #-12]
  4013c8:	f842 5c08 	str.w	r5, [r2, #-8]
  4013cc:	f842 5c04 	str.w	r5, [r2, #-4]
  4013d0:	f102 0210 	add.w	r2, r2, #16
  4013d4:	d8f2      	bhi.n	4013bc <memset+0x38>
  4013d6:	f1a4 0210 	sub.w	r2, r4, #16
  4013da:	f022 020f 	bic.w	r2, r2, #15
  4013de:	f004 040f 	and.w	r4, r4, #15
  4013e2:	3210      	adds	r2, #16
  4013e4:	2c03      	cmp	r4, #3
  4013e6:	4413      	add	r3, r2
  4013e8:	d90d      	bls.n	401406 <memset+0x82>
  4013ea:	461e      	mov	r6, r3
  4013ec:	4622      	mov	r2, r4
  4013ee:	3a04      	subs	r2, #4
  4013f0:	2a03      	cmp	r2, #3
  4013f2:	f846 5b04 	str.w	r5, [r6], #4
  4013f6:	d8fa      	bhi.n	4013ee <memset+0x6a>
  4013f8:	1f22      	subs	r2, r4, #4
  4013fa:	f022 0203 	bic.w	r2, r2, #3
  4013fe:	3204      	adds	r2, #4
  401400:	4413      	add	r3, r2
  401402:	f004 0403 	and.w	r4, r4, #3
  401406:	b12c      	cbz	r4, 401414 <memset+0x90>
  401408:	b2c9      	uxtb	r1, r1
  40140a:	441c      	add	r4, r3
  40140c:	f803 1b01 	strb.w	r1, [r3], #1
  401410:	429c      	cmp	r4, r3
  401412:	d1fb      	bne.n	40140c <memset+0x88>
  401414:	bc70      	pop	{r4, r5, r6}
  401416:	4770      	bx	lr
  401418:	4614      	mov	r4, r2
  40141a:	4603      	mov	r3, r0
  40141c:	e7c2      	b.n	4013a4 <memset+0x20>
  40141e:	bf00      	nop

00401420 <_puts_r>:
  401420:	b5f0      	push	{r4, r5, r6, r7, lr}
  401422:	4605      	mov	r5, r0
  401424:	b089      	sub	sp, #36	; 0x24
  401426:	4608      	mov	r0, r1
  401428:	460c      	mov	r4, r1
  40142a:	f000 f929 	bl	401680 <strlen>
  40142e:	6bab      	ldr	r3, [r5, #56]	; 0x38
  401430:	4f21      	ldr	r7, [pc, #132]	; (4014b8 <_puts_r+0x98>)
  401432:	9404      	str	r4, [sp, #16]
  401434:	2601      	movs	r6, #1
  401436:	1c44      	adds	r4, r0, #1
  401438:	a904      	add	r1, sp, #16
  40143a:	2202      	movs	r2, #2
  40143c:	9403      	str	r4, [sp, #12]
  40143e:	9005      	str	r0, [sp, #20]
  401440:	68ac      	ldr	r4, [r5, #8]
  401442:	9706      	str	r7, [sp, #24]
  401444:	9607      	str	r6, [sp, #28]
  401446:	9101      	str	r1, [sp, #4]
  401448:	9202      	str	r2, [sp, #8]
  40144a:	b353      	cbz	r3, 4014a2 <_puts_r+0x82>
  40144c:	6e63      	ldr	r3, [r4, #100]	; 0x64
  40144e:	f013 0f01 	tst.w	r3, #1
  401452:	f9b4 300c 	ldrsh.w	r3, [r4, #12]
  401456:	b29a      	uxth	r2, r3
  401458:	d101      	bne.n	40145e <_puts_r+0x3e>
  40145a:	0590      	lsls	r0, r2, #22
  40145c:	d525      	bpl.n	4014aa <_puts_r+0x8a>
  40145e:	0491      	lsls	r1, r2, #18
  401460:	d406      	bmi.n	401470 <_puts_r+0x50>
  401462:	6e62      	ldr	r2, [r4, #100]	; 0x64
  401464:	f443 5300 	orr.w	r3, r3, #8192	; 0x2000
  401468:	f422 5200 	bic.w	r2, r2, #8192	; 0x2000
  40146c:	81a3      	strh	r3, [r4, #12]
  40146e:	6662      	str	r2, [r4, #100]	; 0x64
  401470:	4628      	mov	r0, r5
  401472:	aa01      	add	r2, sp, #4
  401474:	4621      	mov	r1, r4
  401476:	f000 fc01 	bl	401c7c <__sfvwrite_r>
  40147a:	6e63      	ldr	r3, [r4, #100]	; 0x64
  40147c:	2800      	cmp	r0, #0
  40147e:	bf0c      	ite	eq
  401480:	250a      	moveq	r5, #10
  401482:	f04f 35ff 	movne.w	r5, #4294967295
  401486:	07da      	lsls	r2, r3, #31
  401488:	d402      	bmi.n	401490 <_puts_r+0x70>
  40148a:	89a3      	ldrh	r3, [r4, #12]
  40148c:	059b      	lsls	r3, r3, #22
  40148e:	d502      	bpl.n	401496 <_puts_r+0x76>
  401490:	4628      	mov	r0, r5
  401492:	b009      	add	sp, #36	; 0x24
  401494:	bdf0      	pop	{r4, r5, r6, r7, pc}
  401496:	6da0      	ldr	r0, [r4, #88]	; 0x58
  401498:	f000 fd98 	bl	401fcc <__retarget_lock_release_recursive>
  40149c:	4628      	mov	r0, r5
  40149e:	b009      	add	sp, #36	; 0x24
  4014a0:	bdf0      	pop	{r4, r5, r6, r7, pc}
  4014a2:	4628      	mov	r0, r5
  4014a4:	f000 fa62 	bl	40196c <__sinit>
  4014a8:	e7d0      	b.n	40144c <_puts_r+0x2c>
  4014aa:	6da0      	ldr	r0, [r4, #88]	; 0x58
  4014ac:	f000 fd8c 	bl	401fc8 <__retarget_lock_acquire_recursive>
  4014b0:	f9b4 300c 	ldrsh.w	r3, [r4, #12]
  4014b4:	b29a      	uxth	r2, r3
  4014b6:	e7d2      	b.n	40145e <_puts_r+0x3e>
  4014b8:	00403084 	.word	0x00403084

004014bc <puts>:
  4014bc:	4b02      	ldr	r3, [pc, #8]	; (4014c8 <puts+0xc>)
  4014be:	4601      	mov	r1, r0
  4014c0:	6818      	ldr	r0, [r3, #0]
  4014c2:	f7ff bfad 	b.w	401420 <_puts_r>
  4014c6:	bf00      	nop
  4014c8:	20400010 	.word	0x20400010

004014cc <setbuf>:
  4014cc:	2900      	cmp	r1, #0
  4014ce:	bf0c      	ite	eq
  4014d0:	2202      	moveq	r2, #2
  4014d2:	2200      	movne	r2, #0
  4014d4:	f44f 6380 	mov.w	r3, #1024	; 0x400
  4014d8:	f000 b800 	b.w	4014dc <setvbuf>

004014dc <setvbuf>:
  4014dc:	e92d 43f0 	stmdb	sp!, {r4, r5, r6, r7, r8, r9, lr}
  4014e0:	4c61      	ldr	r4, [pc, #388]	; (401668 <setvbuf+0x18c>)
  4014e2:	6825      	ldr	r5, [r4, #0]
  4014e4:	b083      	sub	sp, #12
  4014e6:	4604      	mov	r4, r0
  4014e8:	460f      	mov	r7, r1
  4014ea:	4690      	mov	r8, r2
  4014ec:	461e      	mov	r6, r3
  4014ee:	b115      	cbz	r5, 4014f6 <setvbuf+0x1a>
  4014f0:	6bab      	ldr	r3, [r5, #56]	; 0x38
  4014f2:	2b00      	cmp	r3, #0
  4014f4:	d064      	beq.n	4015c0 <setvbuf+0xe4>
  4014f6:	f1b8 0f02 	cmp.w	r8, #2
  4014fa:	d006      	beq.n	40150a <setvbuf+0x2e>
  4014fc:	f1b8 0f01 	cmp.w	r8, #1
  401500:	f200 809f 	bhi.w	401642 <setvbuf+0x166>
  401504:	2e00      	cmp	r6, #0
  401506:	f2c0 809c 	blt.w	401642 <setvbuf+0x166>
  40150a:	6e63      	ldr	r3, [r4, #100]	; 0x64
  40150c:	07d8      	lsls	r0, r3, #31
  40150e:	d534      	bpl.n	40157a <setvbuf+0x9e>
  401510:	4621      	mov	r1, r4
  401512:	4628      	mov	r0, r5
  401514:	f000 f9d2 	bl	4018bc <_fflush_r>
  401518:	6b21      	ldr	r1, [r4, #48]	; 0x30
  40151a:	b141      	cbz	r1, 40152e <setvbuf+0x52>
  40151c:	f104 0340 	add.w	r3, r4, #64	; 0x40
  401520:	4299      	cmp	r1, r3
  401522:	d002      	beq.n	40152a <setvbuf+0x4e>
  401524:	4628      	mov	r0, r5
  401526:	f000 fac3 	bl	401ab0 <_free_r>
  40152a:	2300      	movs	r3, #0
  40152c:	6323      	str	r3, [r4, #48]	; 0x30
  40152e:	f9b4 300c 	ldrsh.w	r3, [r4, #12]
  401532:	2200      	movs	r2, #0
  401534:	61a2      	str	r2, [r4, #24]
  401536:	6062      	str	r2, [r4, #4]
  401538:	061a      	lsls	r2, r3, #24
  40153a:	d43a      	bmi.n	4015b2 <setvbuf+0xd6>
  40153c:	f423 634a 	bic.w	r3, r3, #3232	; 0xca0
  401540:	f023 0303 	bic.w	r3, r3, #3
  401544:	f1b8 0f02 	cmp.w	r8, #2
  401548:	81a3      	strh	r3, [r4, #12]
  40154a:	d01d      	beq.n	401588 <setvbuf+0xac>
  40154c:	ab01      	add	r3, sp, #4
  40154e:	466a      	mov	r2, sp
  401550:	4621      	mov	r1, r4
  401552:	4628      	mov	r0, r5
  401554:	f000 fd3c 	bl	401fd0 <__swhatbuf_r>
  401558:	89a3      	ldrh	r3, [r4, #12]
  40155a:	4318      	orrs	r0, r3
  40155c:	81a0      	strh	r0, [r4, #12]
  40155e:	2e00      	cmp	r6, #0
  401560:	d132      	bne.n	4015c8 <setvbuf+0xec>
  401562:	9e00      	ldr	r6, [sp, #0]
  401564:	4630      	mov	r0, r6
  401566:	f000 fdab 	bl	4020c0 <malloc>
  40156a:	4607      	mov	r7, r0
  40156c:	2800      	cmp	r0, #0
  40156e:	d06b      	beq.n	401648 <setvbuf+0x16c>
  401570:	89a3      	ldrh	r3, [r4, #12]
  401572:	f043 0380 	orr.w	r3, r3, #128	; 0x80
  401576:	81a3      	strh	r3, [r4, #12]
  401578:	e028      	b.n	4015cc <setvbuf+0xf0>
  40157a:	89a3      	ldrh	r3, [r4, #12]
  40157c:	0599      	lsls	r1, r3, #22
  40157e:	d4c7      	bmi.n	401510 <setvbuf+0x34>
  401580:	6da0      	ldr	r0, [r4, #88]	; 0x58
  401582:	f000 fd21 	bl	401fc8 <__retarget_lock_acquire_recursive>
  401586:	e7c3      	b.n	401510 <setvbuf+0x34>
  401588:	2500      	movs	r5, #0
  40158a:	6e61      	ldr	r1, [r4, #100]	; 0x64
  40158c:	2600      	movs	r6, #0
  40158e:	f104 0243 	add.w	r2, r4, #67	; 0x43
  401592:	f043 0302 	orr.w	r3, r3, #2
  401596:	2001      	movs	r0, #1
  401598:	60a6      	str	r6, [r4, #8]
  40159a:	07ce      	lsls	r6, r1, #31
  40159c:	81a3      	strh	r3, [r4, #12]
  40159e:	6022      	str	r2, [r4, #0]
  4015a0:	6122      	str	r2, [r4, #16]
  4015a2:	6160      	str	r0, [r4, #20]
  4015a4:	d401      	bmi.n	4015aa <setvbuf+0xce>
  4015a6:	0598      	lsls	r0, r3, #22
  4015a8:	d53e      	bpl.n	401628 <setvbuf+0x14c>
  4015aa:	4628      	mov	r0, r5
  4015ac:	b003      	add	sp, #12
  4015ae:	e8bd 83f0 	ldmia.w	sp!, {r4, r5, r6, r7, r8, r9, pc}
  4015b2:	6921      	ldr	r1, [r4, #16]
  4015b4:	4628      	mov	r0, r5
  4015b6:	f000 fa7b 	bl	401ab0 <_free_r>
  4015ba:	f9b4 300c 	ldrsh.w	r3, [r4, #12]
  4015be:	e7bd      	b.n	40153c <setvbuf+0x60>
  4015c0:	4628      	mov	r0, r5
  4015c2:	f000 f9d3 	bl	40196c <__sinit>
  4015c6:	e796      	b.n	4014f6 <setvbuf+0x1a>
  4015c8:	2f00      	cmp	r7, #0
  4015ca:	d0cb      	beq.n	401564 <setvbuf+0x88>
  4015cc:	6bab      	ldr	r3, [r5, #56]	; 0x38
  4015ce:	2b00      	cmp	r3, #0
  4015d0:	d033      	beq.n	40163a <setvbuf+0x15e>
  4015d2:	9b00      	ldr	r3, [sp, #0]
  4015d4:	f9b4 200c 	ldrsh.w	r2, [r4, #12]
  4015d8:	6027      	str	r7, [r4, #0]
  4015da:	429e      	cmp	r6, r3
  4015dc:	bf1c      	itt	ne
  4015de:	f442 6200 	orrne.w	r2, r2, #2048	; 0x800
  4015e2:	81a2      	strhne	r2, [r4, #12]
  4015e4:	f1b8 0f01 	cmp.w	r8, #1
  4015e8:	bf04      	itt	eq
  4015ea:	f042 0201 	orreq.w	r2, r2, #1
  4015ee:	81a2      	strheq	r2, [r4, #12]
  4015f0:	b292      	uxth	r2, r2
  4015f2:	f012 0308 	ands.w	r3, r2, #8
  4015f6:	6127      	str	r7, [r4, #16]
  4015f8:	6166      	str	r6, [r4, #20]
  4015fa:	d00e      	beq.n	40161a <setvbuf+0x13e>
  4015fc:	07d1      	lsls	r1, r2, #31
  4015fe:	d51a      	bpl.n	401636 <setvbuf+0x15a>
  401600:	6e65      	ldr	r5, [r4, #100]	; 0x64
  401602:	4276      	negs	r6, r6
  401604:	2300      	movs	r3, #0
  401606:	f015 0501 	ands.w	r5, r5, #1
  40160a:	61a6      	str	r6, [r4, #24]
  40160c:	60a3      	str	r3, [r4, #8]
  40160e:	d009      	beq.n	401624 <setvbuf+0x148>
  401610:	2500      	movs	r5, #0
  401612:	4628      	mov	r0, r5
  401614:	b003      	add	sp, #12
  401616:	e8bd 83f0 	ldmia.w	sp!, {r4, r5, r6, r7, r8, r9, pc}
  40161a:	60a3      	str	r3, [r4, #8]
  40161c:	6e65      	ldr	r5, [r4, #100]	; 0x64
  40161e:	f015 0501 	ands.w	r5, r5, #1
  401622:	d1f5      	bne.n	401610 <setvbuf+0x134>
  401624:	0593      	lsls	r3, r2, #22
  401626:	d4c0      	bmi.n	4015aa <setvbuf+0xce>
  401628:	6da0      	ldr	r0, [r4, #88]	; 0x58
  40162a:	f000 fccf 	bl	401fcc <__retarget_lock_release_recursive>
  40162e:	4628      	mov	r0, r5
  401630:	b003      	add	sp, #12
  401632:	e8bd 83f0 	ldmia.w	sp!, {r4, r5, r6, r7, r8, r9, pc}
  401636:	60a6      	str	r6, [r4, #8]
  401638:	e7f0      	b.n	40161c <setvbuf+0x140>
  40163a:	4628      	mov	r0, r5
  40163c:	f000 f996 	bl	40196c <__sinit>
  401640:	e7c7      	b.n	4015d2 <setvbuf+0xf6>
  401642:	f04f 35ff 	mov.w	r5, #4294967295
  401646:	e7b0      	b.n	4015aa <setvbuf+0xce>
  401648:	f8dd 9000 	ldr.w	r9, [sp]
  40164c:	45b1      	cmp	r9, r6
  40164e:	d004      	beq.n	40165a <setvbuf+0x17e>
  401650:	4648      	mov	r0, r9
  401652:	f000 fd35 	bl	4020c0 <malloc>
  401656:	4607      	mov	r7, r0
  401658:	b920      	cbnz	r0, 401664 <setvbuf+0x188>
  40165a:	f9b4 300c 	ldrsh.w	r3, [r4, #12]
  40165e:	f04f 35ff 	mov.w	r5, #4294967295
  401662:	e792      	b.n	40158a <setvbuf+0xae>
  401664:	464e      	mov	r6, r9
  401666:	e783      	b.n	401570 <setvbuf+0x94>
  401668:	20400010 	.word	0x20400010
	...

00401680 <strlen>:
  401680:	f890 f000 	pld	[r0]
  401684:	e96d 4502 	strd	r4, r5, [sp, #-8]!
  401688:	f020 0107 	bic.w	r1, r0, #7
  40168c:	f06f 0c00 	mvn.w	ip, #0
  401690:	f010 0407 	ands.w	r4, r0, #7
  401694:	f891 f020 	pld	[r1, #32]
  401698:	f040 8049 	bne.w	40172e <strlen+0xae>
  40169c:	f04f 0400 	mov.w	r4, #0
  4016a0:	f06f 0007 	mvn.w	r0, #7
  4016a4:	e9d1 2300 	ldrd	r2, r3, [r1]
  4016a8:	f891 f040 	pld	[r1, #64]	; 0x40
  4016ac:	f100 0008 	add.w	r0, r0, #8
  4016b0:	fa82 f24c 	uadd8	r2, r2, ip
  4016b4:	faa4 f28c 	sel	r2, r4, ip
  4016b8:	fa83 f34c 	uadd8	r3, r3, ip
  4016bc:	faa2 f38c 	sel	r3, r2, ip
  4016c0:	bb4b      	cbnz	r3, 401716 <strlen+0x96>
  4016c2:	e9d1 2302 	ldrd	r2, r3, [r1, #8]
  4016c6:	fa82 f24c 	uadd8	r2, r2, ip
  4016ca:	f100 0008 	add.w	r0, r0, #8
  4016ce:	faa4 f28c 	sel	r2, r4, ip
  4016d2:	fa83 f34c 	uadd8	r3, r3, ip
  4016d6:	faa2 f38c 	sel	r3, r2, ip
  4016da:	b9e3      	cbnz	r3, 401716 <strlen+0x96>
  4016dc:	e9d1 2304 	ldrd	r2, r3, [r1, #16]
  4016e0:	fa82 f24c 	uadd8	r2, r2, ip
  4016e4:	f100 0008 	add.w	r0, r0, #8
  4016e8:	faa4 f28c 	sel	r2, r4, ip
  4016ec:	fa83 f34c 	uadd8	r3, r3, ip
  4016f0:	faa2 f38c 	sel	r3, r2, ip
  4016f4:	b97b      	cbnz	r3, 401716 <strlen+0x96>
  4016f6:	e9d1 2306 	ldrd	r2, r3, [r1, #24]
  4016fa:	f101 0120 	add.w	r1, r1, #32
  4016fe:	fa82 f24c 	uadd8	r2, r2, ip
  401702:	f100 0008 	add.w	r0, r0, #8
  401706:	faa4 f28c 	sel	r2, r4, ip
  40170a:	fa83 f34c 	uadd8	r3, r3, ip
  40170e:	faa2 f38c 	sel	r3, r2, ip
  401712:	2b00      	cmp	r3, #0
  401714:	d0c6      	beq.n	4016a4 <strlen+0x24>
  401716:	2a00      	cmp	r2, #0
  401718:	bf04      	itt	eq
  40171a:	3004      	addeq	r0, #4
  40171c:	461a      	moveq	r2, r3
  40171e:	ba12      	rev	r2, r2
  401720:	fab2 f282 	clz	r2, r2
  401724:	e8fd 4502 	ldrd	r4, r5, [sp], #8
  401728:	eb00 00d2 	add.w	r0, r0, r2, lsr #3
  40172c:	4770      	bx	lr
  40172e:	e9d1 2300 	ldrd	r2, r3, [r1]
  401732:	f004 0503 	and.w	r5, r4, #3
  401736:	f1c4 0000 	rsb	r0, r4, #0
  40173a:	ea4f 05c5 	mov.w	r5, r5, lsl #3
  40173e:	f014 0f04 	tst.w	r4, #4
  401742:	f891 f040 	pld	[r1, #64]	; 0x40
  401746:	fa0c f505 	lsl.w	r5, ip, r5
  40174a:	ea62 0205 	orn	r2, r2, r5
  40174e:	bf1c      	itt	ne
  401750:	ea63 0305 	ornne	r3, r3, r5
  401754:	4662      	movne	r2, ip
  401756:	f04f 0400 	mov.w	r4, #0
  40175a:	e7a9      	b.n	4016b0 <strlen+0x30>

0040175c <register_fini>:
  40175c:	4b02      	ldr	r3, [pc, #8]	; (401768 <register_fini+0xc>)
  40175e:	b113      	cbz	r3, 401766 <register_fini+0xa>
  401760:	4802      	ldr	r0, [pc, #8]	; (40176c <register_fini+0x10>)
  401762:	f000 b805 	b.w	401770 <atexit>
  401766:	4770      	bx	lr
  401768:	00000000 	.word	0x00000000
  40176c:	004019dd 	.word	0x004019dd

00401770 <atexit>:
  401770:	2300      	movs	r3, #0
  401772:	4601      	mov	r1, r0
  401774:	461a      	mov	r2, r3
  401776:	4618      	mov	r0, r3
  401778:	f001 bb2a 	b.w	402dd0 <__register_exitproc>

0040177c <__sflush_r>:
  40177c:	f9b1 300c 	ldrsh.w	r3, [r1, #12]
  401780:	b29a      	uxth	r2, r3
  401782:	e92d 41f0 	stmdb	sp!, {r4, r5, r6, r7, r8, lr}
  401786:	460d      	mov	r5, r1
  401788:	0711      	lsls	r1, r2, #28
  40178a:	4680      	mov	r8, r0
  40178c:	d43a      	bmi.n	401804 <__sflush_r+0x88>
  40178e:	686a      	ldr	r2, [r5, #4]
  401790:	f443 6300 	orr.w	r3, r3, #2048	; 0x800
  401794:	2a00      	cmp	r2, #0
  401796:	81ab      	strh	r3, [r5, #12]
  401798:	dd6f      	ble.n	40187a <__sflush_r+0xfe>
  40179a:	6aac      	ldr	r4, [r5, #40]	; 0x28
  40179c:	2c00      	cmp	r4, #0
  40179e:	d049      	beq.n	401834 <__sflush_r+0xb8>
  4017a0:	2200      	movs	r2, #0
  4017a2:	b29b      	uxth	r3, r3
  4017a4:	f8d8 6000 	ldr.w	r6, [r8]
  4017a8:	f8c8 2000 	str.w	r2, [r8]
  4017ac:	f413 5280 	ands.w	r2, r3, #4096	; 0x1000
  4017b0:	d067      	beq.n	401882 <__sflush_r+0x106>
  4017b2:	6d2a      	ldr	r2, [r5, #80]	; 0x50
  4017b4:	075f      	lsls	r7, r3, #29
  4017b6:	d505      	bpl.n	4017c4 <__sflush_r+0x48>
  4017b8:	6869      	ldr	r1, [r5, #4]
  4017ba:	6b2b      	ldr	r3, [r5, #48]	; 0x30
  4017bc:	1a52      	subs	r2, r2, r1
  4017be:	b10b      	cbz	r3, 4017c4 <__sflush_r+0x48>
  4017c0:	6beb      	ldr	r3, [r5, #60]	; 0x3c
  4017c2:	1ad2      	subs	r2, r2, r3
  4017c4:	2300      	movs	r3, #0
  4017c6:	69e9      	ldr	r1, [r5, #28]
  4017c8:	4640      	mov	r0, r8
  4017ca:	47a0      	blx	r4
  4017cc:	1c44      	adds	r4, r0, #1
  4017ce:	d03c      	beq.n	40184a <__sflush_r+0xce>
  4017d0:	f9b5 300c 	ldrsh.w	r3, [r5, #12]
  4017d4:	692a      	ldr	r2, [r5, #16]
  4017d6:	602a      	str	r2, [r5, #0]
  4017d8:	f423 6300 	bic.w	r3, r3, #2048	; 0x800
  4017dc:	2200      	movs	r2, #0
  4017de:	81ab      	strh	r3, [r5, #12]
  4017e0:	04db      	lsls	r3, r3, #19
  4017e2:	606a      	str	r2, [r5, #4]
  4017e4:	d447      	bmi.n	401876 <__sflush_r+0xfa>
  4017e6:	6b29      	ldr	r1, [r5, #48]	; 0x30
  4017e8:	f8c8 6000 	str.w	r6, [r8]
  4017ec:	b311      	cbz	r1, 401834 <__sflush_r+0xb8>
  4017ee:	f105 0340 	add.w	r3, r5, #64	; 0x40
  4017f2:	4299      	cmp	r1, r3
  4017f4:	d002      	beq.n	4017fc <__sflush_r+0x80>
  4017f6:	4640      	mov	r0, r8
  4017f8:	f000 f95a 	bl	401ab0 <_free_r>
  4017fc:	2000      	movs	r0, #0
  4017fe:	6328      	str	r0, [r5, #48]	; 0x30
  401800:	e8bd 81f0 	ldmia.w	sp!, {r4, r5, r6, r7, r8, pc}
  401804:	692e      	ldr	r6, [r5, #16]
  401806:	b1ae      	cbz	r6, 401834 <__sflush_r+0xb8>
  401808:	682c      	ldr	r4, [r5, #0]
  40180a:	602e      	str	r6, [r5, #0]
  40180c:	0791      	lsls	r1, r2, #30
  40180e:	bf0c      	ite	eq
  401810:	696b      	ldreq	r3, [r5, #20]
  401812:	2300      	movne	r3, #0
  401814:	1ba4      	subs	r4, r4, r6
  401816:	60ab      	str	r3, [r5, #8]
  401818:	e00a      	b.n	401830 <__sflush_r+0xb4>
  40181a:	4623      	mov	r3, r4
  40181c:	4632      	mov	r2, r6
  40181e:	6a6f      	ldr	r7, [r5, #36]	; 0x24
  401820:	69e9      	ldr	r1, [r5, #28]
  401822:	4640      	mov	r0, r8
  401824:	47b8      	blx	r7
  401826:	2800      	cmp	r0, #0
  401828:	eba4 0400 	sub.w	r4, r4, r0
  40182c:	4406      	add	r6, r0
  40182e:	dd04      	ble.n	40183a <__sflush_r+0xbe>
  401830:	2c00      	cmp	r4, #0
  401832:	dcf2      	bgt.n	40181a <__sflush_r+0x9e>
  401834:	2000      	movs	r0, #0
  401836:	e8bd 81f0 	ldmia.w	sp!, {r4, r5, r6, r7, r8, pc}
  40183a:	89ab      	ldrh	r3, [r5, #12]
  40183c:	f043 0340 	orr.w	r3, r3, #64	; 0x40
  401840:	81ab      	strh	r3, [r5, #12]
  401842:	f04f 30ff 	mov.w	r0, #4294967295
  401846:	e8bd 81f0 	ldmia.w	sp!, {r4, r5, r6, r7, r8, pc}
  40184a:	f8d8 4000 	ldr.w	r4, [r8]
  40184e:	2c1d      	cmp	r4, #29
  401850:	d8f3      	bhi.n	40183a <__sflush_r+0xbe>
  401852:	4b19      	ldr	r3, [pc, #100]	; (4018b8 <__sflush_r+0x13c>)
  401854:	40e3      	lsrs	r3, r4
  401856:	43db      	mvns	r3, r3
  401858:	f013 0301 	ands.w	r3, r3, #1
  40185c:	d1ed      	bne.n	40183a <__sflush_r+0xbe>
  40185e:	f9b5 200c 	ldrsh.w	r2, [r5, #12]
  401862:	606b      	str	r3, [r5, #4]
  401864:	f422 6300 	bic.w	r3, r2, #2048	; 0x800
  401868:	6929      	ldr	r1, [r5, #16]
  40186a:	81ab      	strh	r3, [r5, #12]
  40186c:	04da      	lsls	r2, r3, #19
  40186e:	6029      	str	r1, [r5, #0]
  401870:	d5b9      	bpl.n	4017e6 <__sflush_r+0x6a>
  401872:	2c00      	cmp	r4, #0
  401874:	d1b7      	bne.n	4017e6 <__sflush_r+0x6a>
  401876:	6528      	str	r0, [r5, #80]	; 0x50
  401878:	e7b5      	b.n	4017e6 <__sflush_r+0x6a>
  40187a:	6bea      	ldr	r2, [r5, #60]	; 0x3c
  40187c:	2a00      	cmp	r2, #0
  40187e:	dc8c      	bgt.n	40179a <__sflush_r+0x1e>
  401880:	e7d8      	b.n	401834 <__sflush_r+0xb8>
  401882:	2301      	movs	r3, #1
  401884:	69e9      	ldr	r1, [r5, #28]
  401886:	4640      	mov	r0, r8
  401888:	47a0      	blx	r4
  40188a:	1c43      	adds	r3, r0, #1
  40188c:	4602      	mov	r2, r0
  40188e:	d002      	beq.n	401896 <__sflush_r+0x11a>
  401890:	89ab      	ldrh	r3, [r5, #12]
  401892:	6aac      	ldr	r4, [r5, #40]	; 0x28
  401894:	e78e      	b.n	4017b4 <__sflush_r+0x38>
  401896:	f8d8 3000 	ldr.w	r3, [r8]
  40189a:	2b00      	cmp	r3, #0
  40189c:	d0f8      	beq.n	401890 <__sflush_r+0x114>
  40189e:	2b1d      	cmp	r3, #29
  4018a0:	d001      	beq.n	4018a6 <__sflush_r+0x12a>
  4018a2:	2b16      	cmp	r3, #22
  4018a4:	d102      	bne.n	4018ac <__sflush_r+0x130>
  4018a6:	f8c8 6000 	str.w	r6, [r8]
  4018aa:	e7c3      	b.n	401834 <__sflush_r+0xb8>
  4018ac:	89ab      	ldrh	r3, [r5, #12]
  4018ae:	f043 0340 	orr.w	r3, r3, #64	; 0x40
  4018b2:	81ab      	strh	r3, [r5, #12]
  4018b4:	e8bd 81f0 	ldmia.w	sp!, {r4, r5, r6, r7, r8, pc}
  4018b8:	20400001 	.word	0x20400001

004018bc <_fflush_r>:
  4018bc:	b538      	push	{r3, r4, r5, lr}
  4018be:	460d      	mov	r5, r1
  4018c0:	4604      	mov	r4, r0
  4018c2:	b108      	cbz	r0, 4018c8 <_fflush_r+0xc>
  4018c4:	6b83      	ldr	r3, [r0, #56]	; 0x38
  4018c6:	b1bb      	cbz	r3, 4018f8 <_fflush_r+0x3c>
  4018c8:	f9b5 000c 	ldrsh.w	r0, [r5, #12]
  4018cc:	b188      	cbz	r0, 4018f2 <_fflush_r+0x36>
  4018ce:	6e6b      	ldr	r3, [r5, #100]	; 0x64
  4018d0:	07db      	lsls	r3, r3, #31
  4018d2:	d401      	bmi.n	4018d8 <_fflush_r+0x1c>
  4018d4:	0581      	lsls	r1, r0, #22
  4018d6:	d517      	bpl.n	401908 <_fflush_r+0x4c>
  4018d8:	4620      	mov	r0, r4
  4018da:	4629      	mov	r1, r5
  4018dc:	f7ff ff4e 	bl	40177c <__sflush_r>
  4018e0:	6e6b      	ldr	r3, [r5, #100]	; 0x64
  4018e2:	07da      	lsls	r2, r3, #31
  4018e4:	4604      	mov	r4, r0
  4018e6:	d402      	bmi.n	4018ee <_fflush_r+0x32>
  4018e8:	89ab      	ldrh	r3, [r5, #12]
  4018ea:	059b      	lsls	r3, r3, #22
  4018ec:	d507      	bpl.n	4018fe <_fflush_r+0x42>
  4018ee:	4620      	mov	r0, r4
  4018f0:	bd38      	pop	{r3, r4, r5, pc}
  4018f2:	4604      	mov	r4, r0
  4018f4:	4620      	mov	r0, r4
  4018f6:	bd38      	pop	{r3, r4, r5, pc}
  4018f8:	f000 f838 	bl	40196c <__sinit>
  4018fc:	e7e4      	b.n	4018c8 <_fflush_r+0xc>
  4018fe:	6da8      	ldr	r0, [r5, #88]	; 0x58
  401900:	f000 fb64 	bl	401fcc <__retarget_lock_release_recursive>
  401904:	4620      	mov	r0, r4
  401906:	bd38      	pop	{r3, r4, r5, pc}
  401908:	6da8      	ldr	r0, [r5, #88]	; 0x58
  40190a:	f000 fb5d 	bl	401fc8 <__retarget_lock_acquire_recursive>
  40190e:	e7e3      	b.n	4018d8 <_fflush_r+0x1c>

00401910 <_cleanup_r>:
  401910:	4901      	ldr	r1, [pc, #4]	; (401918 <_cleanup_r+0x8>)
  401912:	f000 bb2b 	b.w	401f6c <_fwalk_reent>
  401916:	bf00      	nop
  401918:	00402eb9 	.word	0x00402eb9

0040191c <std.isra.0>:
  40191c:	b510      	push	{r4, lr}
  40191e:	2300      	movs	r3, #0
  401920:	4604      	mov	r4, r0
  401922:	8181      	strh	r1, [r0, #12]
  401924:	81c2      	strh	r2, [r0, #14]
  401926:	6003      	str	r3, [r0, #0]
  401928:	6043      	str	r3, [r0, #4]
  40192a:	6083      	str	r3, [r0, #8]
  40192c:	6643      	str	r3, [r0, #100]	; 0x64
  40192e:	6103      	str	r3, [r0, #16]
  401930:	6143      	str	r3, [r0, #20]
  401932:	6183      	str	r3, [r0, #24]
  401934:	4619      	mov	r1, r3
  401936:	2208      	movs	r2, #8
  401938:	305c      	adds	r0, #92	; 0x5c
  40193a:	f7ff fd23 	bl	401384 <memset>
  40193e:	4807      	ldr	r0, [pc, #28]	; (40195c <std.isra.0+0x40>)
  401940:	4907      	ldr	r1, [pc, #28]	; (401960 <std.isra.0+0x44>)
  401942:	4a08      	ldr	r2, [pc, #32]	; (401964 <std.isra.0+0x48>)
  401944:	4b08      	ldr	r3, [pc, #32]	; (401968 <std.isra.0+0x4c>)
  401946:	6220      	str	r0, [r4, #32]
  401948:	61e4      	str	r4, [r4, #28]
  40194a:	6261      	str	r1, [r4, #36]	; 0x24
  40194c:	62a2      	str	r2, [r4, #40]	; 0x28
  40194e:	62e3      	str	r3, [r4, #44]	; 0x2c
  401950:	f104 0058 	add.w	r0, r4, #88	; 0x58
  401954:	e8bd 4010 	ldmia.w	sp!, {r4, lr}
  401958:	f000 bb32 	b.w	401fc0 <__retarget_lock_init_recursive>
  40195c:	00402c55 	.word	0x00402c55
  401960:	00402c79 	.word	0x00402c79
  401964:	00402cb5 	.word	0x00402cb5
  401968:	00402cd5 	.word	0x00402cd5

0040196c <__sinit>:
  40196c:	b510      	push	{r4, lr}
  40196e:	4604      	mov	r4, r0
  401970:	4812      	ldr	r0, [pc, #72]	; (4019bc <__sinit+0x50>)
  401972:	f000 fb29 	bl	401fc8 <__retarget_lock_acquire_recursive>
  401976:	6ba2      	ldr	r2, [r4, #56]	; 0x38
  401978:	b9d2      	cbnz	r2, 4019b0 <__sinit+0x44>
  40197a:	f504 733b 	add.w	r3, r4, #748	; 0x2ec
  40197e:	4810      	ldr	r0, [pc, #64]	; (4019c0 <__sinit+0x54>)
  401980:	f8c4 32e8 	str.w	r3, [r4, #744]	; 0x2e8
  401984:	2103      	movs	r1, #3
  401986:	f8c4 22e0 	str.w	r2, [r4, #736]	; 0x2e0
  40198a:	63e0      	str	r0, [r4, #60]	; 0x3c
  40198c:	f8c4 12e4 	str.w	r1, [r4, #740]	; 0x2e4
  401990:	6860      	ldr	r0, [r4, #4]
  401992:	2104      	movs	r1, #4
  401994:	f7ff ffc2 	bl	40191c <std.isra.0>
  401998:	2201      	movs	r2, #1
  40199a:	2109      	movs	r1, #9
  40199c:	68a0      	ldr	r0, [r4, #8]
  40199e:	f7ff ffbd 	bl	40191c <std.isra.0>
  4019a2:	2202      	movs	r2, #2
  4019a4:	2112      	movs	r1, #18
  4019a6:	68e0      	ldr	r0, [r4, #12]
  4019a8:	f7ff ffb8 	bl	40191c <std.isra.0>
  4019ac:	2301      	movs	r3, #1
  4019ae:	63a3      	str	r3, [r4, #56]	; 0x38
  4019b0:	4802      	ldr	r0, [pc, #8]	; (4019bc <__sinit+0x50>)
  4019b2:	e8bd 4010 	ldmia.w	sp!, {r4, lr}
  4019b6:	f000 bb09 	b.w	401fcc <__retarget_lock_release_recursive>
  4019ba:	bf00      	nop
  4019bc:	20400acc 	.word	0x20400acc
  4019c0:	00401911 	.word	0x00401911

004019c4 <__sfp_lock_acquire>:
  4019c4:	4801      	ldr	r0, [pc, #4]	; (4019cc <__sfp_lock_acquire+0x8>)
  4019c6:	f000 baff 	b.w	401fc8 <__retarget_lock_acquire_recursive>
  4019ca:	bf00      	nop
  4019cc:	20400ae0 	.word	0x20400ae0

004019d0 <__sfp_lock_release>:
  4019d0:	4801      	ldr	r0, [pc, #4]	; (4019d8 <__sfp_lock_release+0x8>)
  4019d2:	f000 bafb 	b.w	401fcc <__retarget_lock_release_recursive>
  4019d6:	bf00      	nop
  4019d8:	20400ae0 	.word	0x20400ae0

004019dc <__libc_fini_array>:
  4019dc:	b538      	push	{r3, r4, r5, lr}
  4019de:	4c0a      	ldr	r4, [pc, #40]	; (401a08 <__libc_fini_array+0x2c>)
  4019e0:	4d0a      	ldr	r5, [pc, #40]	; (401a0c <__libc_fini_array+0x30>)
  4019e2:	1b64      	subs	r4, r4, r5
  4019e4:	10a4      	asrs	r4, r4, #2
  4019e6:	d00a      	beq.n	4019fe <__libc_fini_array+0x22>
  4019e8:	f104 4380 	add.w	r3, r4, #1073741824	; 0x40000000
  4019ec:	3b01      	subs	r3, #1
  4019ee:	eb05 0583 	add.w	r5, r5, r3, lsl #2
  4019f2:	3c01      	subs	r4, #1
  4019f4:	f855 3904 	ldr.w	r3, [r5], #-4
  4019f8:	4798      	blx	r3
  4019fa:	2c00      	cmp	r4, #0
  4019fc:	d1f9      	bne.n	4019f2 <__libc_fini_array+0x16>
  4019fe:	e8bd 4038 	ldmia.w	sp!, {r3, r4, r5, lr}
  401a02:	f001 bb4b 	b.w	40309c <_fini>
  401a06:	bf00      	nop
  401a08:	004030ac 	.word	0x004030ac
  401a0c:	004030a8 	.word	0x004030a8

00401a10 <_malloc_trim_r>:
  401a10:	b5f8      	push	{r3, r4, r5, r6, r7, lr}
  401a12:	4f24      	ldr	r7, [pc, #144]	; (401aa4 <_malloc_trim_r+0x94>)
  401a14:	460c      	mov	r4, r1
  401a16:	4606      	mov	r6, r0
  401a18:	f000 ff58 	bl	4028cc <__malloc_lock>
  401a1c:	68bb      	ldr	r3, [r7, #8]
  401a1e:	685d      	ldr	r5, [r3, #4]
  401a20:	f5c4 617e 	rsb	r1, r4, #4064	; 0xfe0
  401a24:	310f      	adds	r1, #15
  401a26:	f025 0503 	bic.w	r5, r5, #3
  401a2a:	4429      	add	r1, r5
  401a2c:	f421 617f 	bic.w	r1, r1, #4080	; 0xff0
  401a30:	f021 010f 	bic.w	r1, r1, #15
  401a34:	f5a1 5480 	sub.w	r4, r1, #4096	; 0x1000
  401a38:	f5b4 5f80 	cmp.w	r4, #4096	; 0x1000
  401a3c:	db07      	blt.n	401a4e <_malloc_trim_r+0x3e>
  401a3e:	2100      	movs	r1, #0
  401a40:	4630      	mov	r0, r6
  401a42:	f001 f8f5 	bl	402c30 <_sbrk_r>
  401a46:	68bb      	ldr	r3, [r7, #8]
  401a48:	442b      	add	r3, r5
  401a4a:	4298      	cmp	r0, r3
  401a4c:	d004      	beq.n	401a58 <_malloc_trim_r+0x48>
  401a4e:	4630      	mov	r0, r6
  401a50:	f000 ff42 	bl	4028d8 <__malloc_unlock>
  401a54:	2000      	movs	r0, #0
  401a56:	bdf8      	pop	{r3, r4, r5, r6, r7, pc}
  401a58:	4261      	negs	r1, r4
  401a5a:	4630      	mov	r0, r6
  401a5c:	f001 f8e8 	bl	402c30 <_sbrk_r>
  401a60:	3001      	adds	r0, #1
  401a62:	d00d      	beq.n	401a80 <_malloc_trim_r+0x70>
  401a64:	4b10      	ldr	r3, [pc, #64]	; (401aa8 <_malloc_trim_r+0x98>)
  401a66:	68ba      	ldr	r2, [r7, #8]
  401a68:	6819      	ldr	r1, [r3, #0]
  401a6a:	1b2d      	subs	r5, r5, r4
  401a6c:	f045 0501 	orr.w	r5, r5, #1
  401a70:	4630      	mov	r0, r6
  401a72:	1b09      	subs	r1, r1, r4
  401a74:	6055      	str	r5, [r2, #4]
  401a76:	6019      	str	r1, [r3, #0]
  401a78:	f000 ff2e 	bl	4028d8 <__malloc_unlock>
  401a7c:	2001      	movs	r0, #1
  401a7e:	bdf8      	pop	{r3, r4, r5, r6, r7, pc}
  401a80:	2100      	movs	r1, #0
  401a82:	4630      	mov	r0, r6
  401a84:	f001 f8d4 	bl	402c30 <_sbrk_r>
  401a88:	68ba      	ldr	r2, [r7, #8]
  401a8a:	1a83      	subs	r3, r0, r2
  401a8c:	2b0f      	cmp	r3, #15
  401a8e:	ddde      	ble.n	401a4e <_malloc_trim_r+0x3e>
  401a90:	4c06      	ldr	r4, [pc, #24]	; (401aac <_malloc_trim_r+0x9c>)
  401a92:	4905      	ldr	r1, [pc, #20]	; (401aa8 <_malloc_trim_r+0x98>)
  401a94:	6824      	ldr	r4, [r4, #0]
  401a96:	f043 0301 	orr.w	r3, r3, #1
  401a9a:	1b00      	subs	r0, r0, r4
  401a9c:	6053      	str	r3, [r2, #4]
  401a9e:	6008      	str	r0, [r1, #0]
  401aa0:	e7d5      	b.n	401a4e <_malloc_trim_r+0x3e>
  401aa2:	bf00      	nop
  401aa4:	20400444 	.word	0x20400444
  401aa8:	204008f0 	.word	0x204008f0
  401aac:	2040084c 	.word	0x2040084c

00401ab0 <_free_r>:
  401ab0:	2900      	cmp	r1, #0
  401ab2:	d044      	beq.n	401b3e <_free_r+0x8e>
  401ab4:	e92d 41f0 	stmdb	sp!, {r4, r5, r6, r7, r8, lr}
  401ab8:	460d      	mov	r5, r1
  401aba:	4680      	mov	r8, r0
  401abc:	f000 ff06 	bl	4028cc <__malloc_lock>
  401ac0:	f855 7c04 	ldr.w	r7, [r5, #-4]
  401ac4:	4969      	ldr	r1, [pc, #420]	; (401c6c <_free_r+0x1bc>)
  401ac6:	f027 0301 	bic.w	r3, r7, #1
  401aca:	f1a5 0408 	sub.w	r4, r5, #8
  401ace:	18e2      	adds	r2, r4, r3
  401ad0:	688e      	ldr	r6, [r1, #8]
  401ad2:	6850      	ldr	r0, [r2, #4]
  401ad4:	42b2      	cmp	r2, r6
  401ad6:	f020 0003 	bic.w	r0, r0, #3
  401ada:	d05e      	beq.n	401b9a <_free_r+0xea>
  401adc:	07fe      	lsls	r6, r7, #31
  401ade:	6050      	str	r0, [r2, #4]
  401ae0:	d40b      	bmi.n	401afa <_free_r+0x4a>
  401ae2:	f855 7c08 	ldr.w	r7, [r5, #-8]
  401ae6:	1be4      	subs	r4, r4, r7
  401ae8:	f101 0e08 	add.w	lr, r1, #8
  401aec:	68a5      	ldr	r5, [r4, #8]
  401aee:	4575      	cmp	r5, lr
  401af0:	443b      	add	r3, r7
  401af2:	d06d      	beq.n	401bd0 <_free_r+0x120>
  401af4:	68e7      	ldr	r7, [r4, #12]
  401af6:	60ef      	str	r7, [r5, #12]
  401af8:	60bd      	str	r5, [r7, #8]
  401afa:	1815      	adds	r5, r2, r0
  401afc:	686d      	ldr	r5, [r5, #4]
  401afe:	07ed      	lsls	r5, r5, #31
  401b00:	d53e      	bpl.n	401b80 <_free_r+0xd0>
  401b02:	f043 0201 	orr.w	r2, r3, #1
  401b06:	6062      	str	r2, [r4, #4]
  401b08:	50e3      	str	r3, [r4, r3]
  401b0a:	f5b3 7f00 	cmp.w	r3, #512	; 0x200
  401b0e:	d217      	bcs.n	401b40 <_free_r+0x90>
  401b10:	08db      	lsrs	r3, r3, #3
  401b12:	1c58      	adds	r0, r3, #1
  401b14:	109a      	asrs	r2, r3, #2
  401b16:	684d      	ldr	r5, [r1, #4]
  401b18:	f851 7030 	ldr.w	r7, [r1, r0, lsl #3]
  401b1c:	60a7      	str	r7, [r4, #8]
  401b1e:	2301      	movs	r3, #1
  401b20:	4093      	lsls	r3, r2
  401b22:	eb01 02c0 	add.w	r2, r1, r0, lsl #3
  401b26:	432b      	orrs	r3, r5
  401b28:	3a08      	subs	r2, #8
  401b2a:	60e2      	str	r2, [r4, #12]
  401b2c:	604b      	str	r3, [r1, #4]
  401b2e:	f841 4030 	str.w	r4, [r1, r0, lsl #3]
  401b32:	60fc      	str	r4, [r7, #12]
  401b34:	4640      	mov	r0, r8
  401b36:	e8bd 41f0 	ldmia.w	sp!, {r4, r5, r6, r7, r8, lr}
  401b3a:	f000 becd 	b.w	4028d8 <__malloc_unlock>
  401b3e:	4770      	bx	lr
  401b40:	0a5a      	lsrs	r2, r3, #9
  401b42:	2a04      	cmp	r2, #4
  401b44:	d852      	bhi.n	401bec <_free_r+0x13c>
  401b46:	099a      	lsrs	r2, r3, #6
  401b48:	f102 0739 	add.w	r7, r2, #57	; 0x39
  401b4c:	00ff      	lsls	r7, r7, #3
  401b4e:	f102 0538 	add.w	r5, r2, #56	; 0x38
  401b52:	19c8      	adds	r0, r1, r7
  401b54:	59ca      	ldr	r2, [r1, r7]
  401b56:	3808      	subs	r0, #8
  401b58:	4290      	cmp	r0, r2
  401b5a:	d04f      	beq.n	401bfc <_free_r+0x14c>
  401b5c:	6851      	ldr	r1, [r2, #4]
  401b5e:	f021 0103 	bic.w	r1, r1, #3
  401b62:	428b      	cmp	r3, r1
  401b64:	d232      	bcs.n	401bcc <_free_r+0x11c>
  401b66:	6892      	ldr	r2, [r2, #8]
  401b68:	4290      	cmp	r0, r2
  401b6a:	d1f7      	bne.n	401b5c <_free_r+0xac>
  401b6c:	68c3      	ldr	r3, [r0, #12]
  401b6e:	60a0      	str	r0, [r4, #8]
  401b70:	60e3      	str	r3, [r4, #12]
  401b72:	609c      	str	r4, [r3, #8]
  401b74:	60c4      	str	r4, [r0, #12]
  401b76:	4640      	mov	r0, r8
  401b78:	e8bd 41f0 	ldmia.w	sp!, {r4, r5, r6, r7, r8, lr}
  401b7c:	f000 beac 	b.w	4028d8 <__malloc_unlock>
  401b80:	6895      	ldr	r5, [r2, #8]
  401b82:	4f3b      	ldr	r7, [pc, #236]	; (401c70 <_free_r+0x1c0>)
  401b84:	42bd      	cmp	r5, r7
  401b86:	4403      	add	r3, r0
  401b88:	d040      	beq.n	401c0c <_free_r+0x15c>
  401b8a:	68d0      	ldr	r0, [r2, #12]
  401b8c:	60e8      	str	r0, [r5, #12]
  401b8e:	f043 0201 	orr.w	r2, r3, #1
  401b92:	6085      	str	r5, [r0, #8]
  401b94:	6062      	str	r2, [r4, #4]
  401b96:	50e3      	str	r3, [r4, r3]
  401b98:	e7b7      	b.n	401b0a <_free_r+0x5a>
  401b9a:	07ff      	lsls	r7, r7, #31
  401b9c:	4403      	add	r3, r0
  401b9e:	d407      	bmi.n	401bb0 <_free_r+0x100>
  401ba0:	f855 2c08 	ldr.w	r2, [r5, #-8]
  401ba4:	1aa4      	subs	r4, r4, r2
  401ba6:	4413      	add	r3, r2
  401ba8:	68a0      	ldr	r0, [r4, #8]
  401baa:	68e2      	ldr	r2, [r4, #12]
  401bac:	60c2      	str	r2, [r0, #12]
  401bae:	6090      	str	r0, [r2, #8]
  401bb0:	4a30      	ldr	r2, [pc, #192]	; (401c74 <_free_r+0x1c4>)
  401bb2:	6812      	ldr	r2, [r2, #0]
  401bb4:	f043 0001 	orr.w	r0, r3, #1
  401bb8:	4293      	cmp	r3, r2
  401bba:	6060      	str	r0, [r4, #4]
  401bbc:	608c      	str	r4, [r1, #8]
  401bbe:	d3b9      	bcc.n	401b34 <_free_r+0x84>
  401bc0:	4b2d      	ldr	r3, [pc, #180]	; (401c78 <_free_r+0x1c8>)
  401bc2:	4640      	mov	r0, r8
  401bc4:	6819      	ldr	r1, [r3, #0]
  401bc6:	f7ff ff23 	bl	401a10 <_malloc_trim_r>
  401bca:	e7b3      	b.n	401b34 <_free_r+0x84>
  401bcc:	4610      	mov	r0, r2
  401bce:	e7cd      	b.n	401b6c <_free_r+0xbc>
  401bd0:	1811      	adds	r1, r2, r0
  401bd2:	6849      	ldr	r1, [r1, #4]
  401bd4:	07c9      	lsls	r1, r1, #31
  401bd6:	d444      	bmi.n	401c62 <_free_r+0x1b2>
  401bd8:	6891      	ldr	r1, [r2, #8]
  401bda:	68d2      	ldr	r2, [r2, #12]
  401bdc:	60ca      	str	r2, [r1, #12]
  401bde:	4403      	add	r3, r0
  401be0:	f043 0001 	orr.w	r0, r3, #1
  401be4:	6091      	str	r1, [r2, #8]
  401be6:	6060      	str	r0, [r4, #4]
  401be8:	50e3      	str	r3, [r4, r3]
  401bea:	e7a3      	b.n	401b34 <_free_r+0x84>
  401bec:	2a14      	cmp	r2, #20
  401bee:	d816      	bhi.n	401c1e <_free_r+0x16e>
  401bf0:	f102 075c 	add.w	r7, r2, #92	; 0x5c
  401bf4:	00ff      	lsls	r7, r7, #3
  401bf6:	f102 055b 	add.w	r5, r2, #91	; 0x5b
  401bfa:	e7aa      	b.n	401b52 <_free_r+0xa2>
  401bfc:	10aa      	asrs	r2, r5, #2
  401bfe:	2301      	movs	r3, #1
  401c00:	684d      	ldr	r5, [r1, #4]
  401c02:	4093      	lsls	r3, r2
  401c04:	432b      	orrs	r3, r5
  401c06:	604b      	str	r3, [r1, #4]
  401c08:	4603      	mov	r3, r0
  401c0a:	e7b0      	b.n	401b6e <_free_r+0xbe>
  401c0c:	f043 0201 	orr.w	r2, r3, #1
  401c10:	614c      	str	r4, [r1, #20]
  401c12:	610c      	str	r4, [r1, #16]
  401c14:	60e5      	str	r5, [r4, #12]
  401c16:	60a5      	str	r5, [r4, #8]
  401c18:	6062      	str	r2, [r4, #4]
  401c1a:	50e3      	str	r3, [r4, r3]
  401c1c:	e78a      	b.n	401b34 <_free_r+0x84>
  401c1e:	2a54      	cmp	r2, #84	; 0x54
  401c20:	d806      	bhi.n	401c30 <_free_r+0x180>
  401c22:	0b1a      	lsrs	r2, r3, #12
  401c24:	f102 076f 	add.w	r7, r2, #111	; 0x6f
  401c28:	00ff      	lsls	r7, r7, #3
  401c2a:	f102 056e 	add.w	r5, r2, #110	; 0x6e
  401c2e:	e790      	b.n	401b52 <_free_r+0xa2>
  401c30:	f5b2 7faa 	cmp.w	r2, #340	; 0x154
  401c34:	d806      	bhi.n	401c44 <_free_r+0x194>
  401c36:	0bda      	lsrs	r2, r3, #15
  401c38:	f102 0778 	add.w	r7, r2, #120	; 0x78
  401c3c:	00ff      	lsls	r7, r7, #3
  401c3e:	f102 0577 	add.w	r5, r2, #119	; 0x77
  401c42:	e786      	b.n	401b52 <_free_r+0xa2>
  401c44:	f240 5054 	movw	r0, #1364	; 0x554
  401c48:	4282      	cmp	r2, r0
  401c4a:	d806      	bhi.n	401c5a <_free_r+0x1aa>
  401c4c:	0c9a      	lsrs	r2, r3, #18
  401c4e:	f102 077d 	add.w	r7, r2, #125	; 0x7d
  401c52:	00ff      	lsls	r7, r7, #3
  401c54:	f102 057c 	add.w	r5, r2, #124	; 0x7c
  401c58:	e77b      	b.n	401b52 <_free_r+0xa2>
  401c5a:	f44f 777e 	mov.w	r7, #1016	; 0x3f8
  401c5e:	257e      	movs	r5, #126	; 0x7e
  401c60:	e777      	b.n	401b52 <_free_r+0xa2>
  401c62:	f043 0101 	orr.w	r1, r3, #1
  401c66:	6061      	str	r1, [r4, #4]
  401c68:	6013      	str	r3, [r2, #0]
  401c6a:	e763      	b.n	401b34 <_free_r+0x84>
  401c6c:	20400444 	.word	0x20400444
  401c70:	2040044c 	.word	0x2040044c
  401c74:	20400850 	.word	0x20400850
  401c78:	20400920 	.word	0x20400920

00401c7c <__sfvwrite_r>:
  401c7c:	6893      	ldr	r3, [r2, #8]
  401c7e:	2b00      	cmp	r3, #0
  401c80:	d073      	beq.n	401d6a <__sfvwrite_r+0xee>
  401c82:	e92d 4ff0 	stmdb	sp!, {r4, r5, r6, r7, r8, r9, sl, fp, lr}
  401c86:	898b      	ldrh	r3, [r1, #12]
  401c88:	b083      	sub	sp, #12
  401c8a:	460c      	mov	r4, r1
  401c8c:	0719      	lsls	r1, r3, #28
  401c8e:	9000      	str	r0, [sp, #0]
  401c90:	4616      	mov	r6, r2
  401c92:	d526      	bpl.n	401ce2 <__sfvwrite_r+0x66>
  401c94:	6922      	ldr	r2, [r4, #16]
  401c96:	b322      	cbz	r2, 401ce2 <__sfvwrite_r+0x66>
  401c98:	f013 0002 	ands.w	r0, r3, #2
  401c9c:	6835      	ldr	r5, [r6, #0]
  401c9e:	d02c      	beq.n	401cfa <__sfvwrite_r+0x7e>
  401ca0:	f04f 0900 	mov.w	r9, #0
  401ca4:	4fb0      	ldr	r7, [pc, #704]	; (401f68 <__sfvwrite_r+0x2ec>)
  401ca6:	46c8      	mov	r8, r9
  401ca8:	46b2      	mov	sl, r6
  401caa:	45b8      	cmp	r8, r7
  401cac:	4643      	mov	r3, r8
  401cae:	464a      	mov	r2, r9
  401cb0:	bf28      	it	cs
  401cb2:	463b      	movcs	r3, r7
  401cb4:	9800      	ldr	r0, [sp, #0]
  401cb6:	f1b8 0f00 	cmp.w	r8, #0
  401cba:	d050      	beq.n	401d5e <__sfvwrite_r+0xe2>
  401cbc:	69e1      	ldr	r1, [r4, #28]
  401cbe:	6a66      	ldr	r6, [r4, #36]	; 0x24
  401cc0:	47b0      	blx	r6
  401cc2:	2800      	cmp	r0, #0
  401cc4:	dd58      	ble.n	401d78 <__sfvwrite_r+0xfc>
  401cc6:	f8da 3008 	ldr.w	r3, [sl, #8]
  401cca:	1a1b      	subs	r3, r3, r0
  401ccc:	4481      	add	r9, r0
  401cce:	eba8 0800 	sub.w	r8, r8, r0
  401cd2:	f8ca 3008 	str.w	r3, [sl, #8]
  401cd6:	2b00      	cmp	r3, #0
  401cd8:	d1e7      	bne.n	401caa <__sfvwrite_r+0x2e>
  401cda:	2000      	movs	r0, #0
  401cdc:	b003      	add	sp, #12
  401cde:	e8bd 8ff0 	ldmia.w	sp!, {r4, r5, r6, r7, r8, r9, sl, fp, pc}
  401ce2:	4621      	mov	r1, r4
  401ce4:	9800      	ldr	r0, [sp, #0]
  401ce6:	f001 f80f 	bl	402d08 <__swsetup_r>
  401cea:	2800      	cmp	r0, #0
  401cec:	f040 8133 	bne.w	401f56 <__sfvwrite_r+0x2da>
  401cf0:	89a3      	ldrh	r3, [r4, #12]
  401cf2:	6835      	ldr	r5, [r6, #0]
  401cf4:	f013 0002 	ands.w	r0, r3, #2
  401cf8:	d1d2      	bne.n	401ca0 <__sfvwrite_r+0x24>
  401cfa:	f013 0901 	ands.w	r9, r3, #1
  401cfe:	d145      	bne.n	401d8c <__sfvwrite_r+0x110>
  401d00:	464f      	mov	r7, r9
  401d02:	9601      	str	r6, [sp, #4]
  401d04:	b337      	cbz	r7, 401d54 <__sfvwrite_r+0xd8>
  401d06:	059a      	lsls	r2, r3, #22
  401d08:	f8d4 8008 	ldr.w	r8, [r4, #8]
  401d0c:	f140 8083 	bpl.w	401e16 <__sfvwrite_r+0x19a>
  401d10:	4547      	cmp	r7, r8
  401d12:	46c3      	mov	fp, r8
  401d14:	f0c0 80ab 	bcc.w	401e6e <__sfvwrite_r+0x1f2>
  401d18:	f413 6f90 	tst.w	r3, #1152	; 0x480
  401d1c:	f040 80ac 	bne.w	401e78 <__sfvwrite_r+0x1fc>
  401d20:	6820      	ldr	r0, [r4, #0]
  401d22:	46ba      	mov	sl, r7
  401d24:	465a      	mov	r2, fp
  401d26:	4649      	mov	r1, r9
  401d28:	f000 fd6c 	bl	402804 <memmove>
  401d2c:	68a2      	ldr	r2, [r4, #8]
  401d2e:	6823      	ldr	r3, [r4, #0]
  401d30:	eba2 0208 	sub.w	r2, r2, r8
  401d34:	445b      	add	r3, fp
  401d36:	60a2      	str	r2, [r4, #8]
  401d38:	6023      	str	r3, [r4, #0]
  401d3a:	9a01      	ldr	r2, [sp, #4]
  401d3c:	6893      	ldr	r3, [r2, #8]
  401d3e:	eba3 030a 	sub.w	r3, r3, sl
  401d42:	44d1      	add	r9, sl
  401d44:	eba7 070a 	sub.w	r7, r7, sl
  401d48:	6093      	str	r3, [r2, #8]
  401d4a:	2b00      	cmp	r3, #0
  401d4c:	d0c5      	beq.n	401cda <__sfvwrite_r+0x5e>
  401d4e:	89a3      	ldrh	r3, [r4, #12]
  401d50:	2f00      	cmp	r7, #0
  401d52:	d1d8      	bne.n	401d06 <__sfvwrite_r+0x8a>
  401d54:	f8d5 9000 	ldr.w	r9, [r5]
  401d58:	686f      	ldr	r7, [r5, #4]
  401d5a:	3508      	adds	r5, #8
  401d5c:	e7d2      	b.n	401d04 <__sfvwrite_r+0x88>
  401d5e:	f8d5 9000 	ldr.w	r9, [r5]
  401d62:	f8d5 8004 	ldr.w	r8, [r5, #4]
  401d66:	3508      	adds	r5, #8
  401d68:	e79f      	b.n	401caa <__sfvwrite_r+0x2e>
  401d6a:	2000      	movs	r0, #0
  401d6c:	4770      	bx	lr
  401d6e:	4621      	mov	r1, r4
  401d70:	9800      	ldr	r0, [sp, #0]
  401d72:	f7ff fda3 	bl	4018bc <_fflush_r>
  401d76:	b370      	cbz	r0, 401dd6 <__sfvwrite_r+0x15a>
  401d78:	f9b4 300c 	ldrsh.w	r3, [r4, #12]
  401d7c:	f043 0340 	orr.w	r3, r3, #64	; 0x40
  401d80:	f04f 30ff 	mov.w	r0, #4294967295
  401d84:	81a3      	strh	r3, [r4, #12]
  401d86:	b003      	add	sp, #12
  401d88:	e8bd 8ff0 	ldmia.w	sp!, {r4, r5, r6, r7, r8, r9, sl, fp, pc}
  401d8c:	4681      	mov	r9, r0
  401d8e:	4633      	mov	r3, r6
  401d90:	464e      	mov	r6, r9
  401d92:	46a8      	mov	r8, r5
  401d94:	469a      	mov	sl, r3
  401d96:	464d      	mov	r5, r9
  401d98:	b34e      	cbz	r6, 401dee <__sfvwrite_r+0x172>
  401d9a:	b380      	cbz	r0, 401dfe <__sfvwrite_r+0x182>
  401d9c:	6820      	ldr	r0, [r4, #0]
  401d9e:	6923      	ldr	r3, [r4, #16]
  401da0:	6962      	ldr	r2, [r4, #20]
  401da2:	45b1      	cmp	r9, r6
  401da4:	46cb      	mov	fp, r9
  401da6:	bf28      	it	cs
  401da8:	46b3      	movcs	fp, r6
  401daa:	4298      	cmp	r0, r3
  401dac:	465f      	mov	r7, fp
  401dae:	d904      	bls.n	401dba <__sfvwrite_r+0x13e>
  401db0:	68a3      	ldr	r3, [r4, #8]
  401db2:	4413      	add	r3, r2
  401db4:	459b      	cmp	fp, r3
  401db6:	f300 80a6 	bgt.w	401f06 <__sfvwrite_r+0x28a>
  401dba:	4593      	cmp	fp, r2
  401dbc:	db4b      	blt.n	401e56 <__sfvwrite_r+0x1da>
  401dbe:	4613      	mov	r3, r2
  401dc0:	6a67      	ldr	r7, [r4, #36]	; 0x24
  401dc2:	69e1      	ldr	r1, [r4, #28]
  401dc4:	9800      	ldr	r0, [sp, #0]
  401dc6:	462a      	mov	r2, r5
  401dc8:	47b8      	blx	r7
  401dca:	1e07      	subs	r7, r0, #0
  401dcc:	ddd4      	ble.n	401d78 <__sfvwrite_r+0xfc>
  401dce:	ebb9 0907 	subs.w	r9, r9, r7
  401dd2:	d0cc      	beq.n	401d6e <__sfvwrite_r+0xf2>
  401dd4:	2001      	movs	r0, #1
  401dd6:	f8da 3008 	ldr.w	r3, [sl, #8]
  401dda:	1bdb      	subs	r3, r3, r7
  401ddc:	443d      	add	r5, r7
  401dde:	1bf6      	subs	r6, r6, r7
  401de0:	f8ca 3008 	str.w	r3, [sl, #8]
  401de4:	2b00      	cmp	r3, #0
  401de6:	f43f af78 	beq.w	401cda <__sfvwrite_r+0x5e>
  401dea:	2e00      	cmp	r6, #0
  401dec:	d1d5      	bne.n	401d9a <__sfvwrite_r+0x11e>
  401dee:	f108 0308 	add.w	r3, r8, #8
  401df2:	e913 0060 	ldmdb	r3, {r5, r6}
  401df6:	4698      	mov	r8, r3
  401df8:	3308      	adds	r3, #8
  401dfa:	2e00      	cmp	r6, #0
  401dfc:	d0f9      	beq.n	401df2 <__sfvwrite_r+0x176>
  401dfe:	4632      	mov	r2, r6
  401e00:	210a      	movs	r1, #10
  401e02:	4628      	mov	r0, r5
  401e04:	f000 fc14 	bl	402630 <memchr>
  401e08:	2800      	cmp	r0, #0
  401e0a:	f000 80a1 	beq.w	401f50 <__sfvwrite_r+0x2d4>
  401e0e:	3001      	adds	r0, #1
  401e10:	eba0 0905 	sub.w	r9, r0, r5
  401e14:	e7c2      	b.n	401d9c <__sfvwrite_r+0x120>
  401e16:	6820      	ldr	r0, [r4, #0]
  401e18:	6923      	ldr	r3, [r4, #16]
  401e1a:	4298      	cmp	r0, r3
  401e1c:	d802      	bhi.n	401e24 <__sfvwrite_r+0x1a8>
  401e1e:	6963      	ldr	r3, [r4, #20]
  401e20:	429f      	cmp	r7, r3
  401e22:	d25d      	bcs.n	401ee0 <__sfvwrite_r+0x264>
  401e24:	45b8      	cmp	r8, r7
  401e26:	bf28      	it	cs
  401e28:	46b8      	movcs	r8, r7
  401e2a:	4642      	mov	r2, r8
  401e2c:	4649      	mov	r1, r9
  401e2e:	f000 fce9 	bl	402804 <memmove>
  401e32:	68a3      	ldr	r3, [r4, #8]
  401e34:	6822      	ldr	r2, [r4, #0]
  401e36:	eba3 0308 	sub.w	r3, r3, r8
  401e3a:	4442      	add	r2, r8
  401e3c:	60a3      	str	r3, [r4, #8]
  401e3e:	6022      	str	r2, [r4, #0]
  401e40:	b10b      	cbz	r3, 401e46 <__sfvwrite_r+0x1ca>
  401e42:	46c2      	mov	sl, r8
  401e44:	e779      	b.n	401d3a <__sfvwrite_r+0xbe>
  401e46:	4621      	mov	r1, r4
  401e48:	9800      	ldr	r0, [sp, #0]
  401e4a:	f7ff fd37 	bl	4018bc <_fflush_r>
  401e4e:	2800      	cmp	r0, #0
  401e50:	d192      	bne.n	401d78 <__sfvwrite_r+0xfc>
  401e52:	46c2      	mov	sl, r8
  401e54:	e771      	b.n	401d3a <__sfvwrite_r+0xbe>
  401e56:	465a      	mov	r2, fp
  401e58:	4629      	mov	r1, r5
  401e5a:	f000 fcd3 	bl	402804 <memmove>
  401e5e:	68a2      	ldr	r2, [r4, #8]
  401e60:	6823      	ldr	r3, [r4, #0]
  401e62:	eba2 020b 	sub.w	r2, r2, fp
  401e66:	445b      	add	r3, fp
  401e68:	60a2      	str	r2, [r4, #8]
  401e6a:	6023      	str	r3, [r4, #0]
  401e6c:	e7af      	b.n	401dce <__sfvwrite_r+0x152>
  401e6e:	6820      	ldr	r0, [r4, #0]
  401e70:	46b8      	mov	r8, r7
  401e72:	46ba      	mov	sl, r7
  401e74:	46bb      	mov	fp, r7
  401e76:	e755      	b.n	401d24 <__sfvwrite_r+0xa8>
  401e78:	6962      	ldr	r2, [r4, #20]
  401e7a:	6820      	ldr	r0, [r4, #0]
  401e7c:	6921      	ldr	r1, [r4, #16]
  401e7e:	eb02 0842 	add.w	r8, r2, r2, lsl #1
  401e82:	eba0 0a01 	sub.w	sl, r0, r1
  401e86:	eb08 78d8 	add.w	r8, r8, r8, lsr #31
  401e8a:	f10a 0001 	add.w	r0, sl, #1
  401e8e:	ea4f 0868 	mov.w	r8, r8, asr #1
  401e92:	4438      	add	r0, r7
  401e94:	4540      	cmp	r0, r8
  401e96:	4642      	mov	r2, r8
  401e98:	bf84      	itt	hi
  401e9a:	4680      	movhi	r8, r0
  401e9c:	4642      	movhi	r2, r8
  401e9e:	055b      	lsls	r3, r3, #21
  401ea0:	d544      	bpl.n	401f2c <__sfvwrite_r+0x2b0>
  401ea2:	4611      	mov	r1, r2
  401ea4:	9800      	ldr	r0, [sp, #0]
  401ea6:	f000 f913 	bl	4020d0 <_malloc_r>
  401eaa:	4683      	mov	fp, r0
  401eac:	2800      	cmp	r0, #0
  401eae:	d055      	beq.n	401f5c <__sfvwrite_r+0x2e0>
  401eb0:	4652      	mov	r2, sl
  401eb2:	6921      	ldr	r1, [r4, #16]
  401eb4:	f000 fc0c 	bl	4026d0 <memcpy>
  401eb8:	89a3      	ldrh	r3, [r4, #12]
  401eba:	f423 6390 	bic.w	r3, r3, #1152	; 0x480
  401ebe:	f043 0380 	orr.w	r3, r3, #128	; 0x80
  401ec2:	81a3      	strh	r3, [r4, #12]
  401ec4:	eb0b 000a 	add.w	r0, fp, sl
  401ec8:	eba8 030a 	sub.w	r3, r8, sl
  401ecc:	f8c4 b010 	str.w	fp, [r4, #16]
  401ed0:	f8c4 8014 	str.w	r8, [r4, #20]
  401ed4:	6020      	str	r0, [r4, #0]
  401ed6:	60a3      	str	r3, [r4, #8]
  401ed8:	46b8      	mov	r8, r7
  401eda:	46ba      	mov	sl, r7
  401edc:	46bb      	mov	fp, r7
  401ede:	e721      	b.n	401d24 <__sfvwrite_r+0xa8>
  401ee0:	f06f 4100 	mvn.w	r1, #2147483648	; 0x80000000
  401ee4:	42b9      	cmp	r1, r7
  401ee6:	bf28      	it	cs
  401ee8:	4639      	movcs	r1, r7
  401eea:	464a      	mov	r2, r9
  401eec:	fb91 f1f3 	sdiv	r1, r1, r3
  401ef0:	9800      	ldr	r0, [sp, #0]
  401ef2:	6a66      	ldr	r6, [r4, #36]	; 0x24
  401ef4:	fb03 f301 	mul.w	r3, r3, r1
  401ef8:	69e1      	ldr	r1, [r4, #28]
  401efa:	47b0      	blx	r6
  401efc:	f1b0 0a00 	subs.w	sl, r0, #0
  401f00:	f73f af1b 	bgt.w	401d3a <__sfvwrite_r+0xbe>
  401f04:	e738      	b.n	401d78 <__sfvwrite_r+0xfc>
  401f06:	461a      	mov	r2, r3
  401f08:	4629      	mov	r1, r5
  401f0a:	9301      	str	r3, [sp, #4]
  401f0c:	f000 fc7a 	bl	402804 <memmove>
  401f10:	6822      	ldr	r2, [r4, #0]
  401f12:	9b01      	ldr	r3, [sp, #4]
  401f14:	9800      	ldr	r0, [sp, #0]
  401f16:	441a      	add	r2, r3
  401f18:	6022      	str	r2, [r4, #0]
  401f1a:	4621      	mov	r1, r4
  401f1c:	f7ff fcce 	bl	4018bc <_fflush_r>
  401f20:	9b01      	ldr	r3, [sp, #4]
  401f22:	2800      	cmp	r0, #0
  401f24:	f47f af28 	bne.w	401d78 <__sfvwrite_r+0xfc>
  401f28:	461f      	mov	r7, r3
  401f2a:	e750      	b.n	401dce <__sfvwrite_r+0x152>
  401f2c:	9800      	ldr	r0, [sp, #0]
  401f2e:	f000 fcd9 	bl	4028e4 <_realloc_r>
  401f32:	4683      	mov	fp, r0
  401f34:	2800      	cmp	r0, #0
  401f36:	d1c5      	bne.n	401ec4 <__sfvwrite_r+0x248>
  401f38:	9d00      	ldr	r5, [sp, #0]
  401f3a:	6921      	ldr	r1, [r4, #16]
  401f3c:	4628      	mov	r0, r5
  401f3e:	f7ff fdb7 	bl	401ab0 <_free_r>
  401f42:	f9b4 300c 	ldrsh.w	r3, [r4, #12]
  401f46:	220c      	movs	r2, #12
  401f48:	f023 0380 	bic.w	r3, r3, #128	; 0x80
  401f4c:	602a      	str	r2, [r5, #0]
  401f4e:	e715      	b.n	401d7c <__sfvwrite_r+0x100>
  401f50:	f106 0901 	add.w	r9, r6, #1
  401f54:	e722      	b.n	401d9c <__sfvwrite_r+0x120>
  401f56:	f04f 30ff 	mov.w	r0, #4294967295
  401f5a:	e6bf      	b.n	401cdc <__sfvwrite_r+0x60>
  401f5c:	9a00      	ldr	r2, [sp, #0]
  401f5e:	230c      	movs	r3, #12
  401f60:	6013      	str	r3, [r2, #0]
  401f62:	f9b4 300c 	ldrsh.w	r3, [r4, #12]
  401f66:	e709      	b.n	401d7c <__sfvwrite_r+0x100>
  401f68:	7ffffc00 	.word	0x7ffffc00

00401f6c <_fwalk_reent>:
  401f6c:	e92d 43f8 	stmdb	sp!, {r3, r4, r5, r6, r7, r8, r9, lr}
  401f70:	f510 7738 	adds.w	r7, r0, #736	; 0x2e0
  401f74:	d01f      	beq.n	401fb6 <_fwalk_reent+0x4a>
  401f76:	4688      	mov	r8, r1
  401f78:	4606      	mov	r6, r0
  401f7a:	f04f 0900 	mov.w	r9, #0
  401f7e:	687d      	ldr	r5, [r7, #4]
  401f80:	68bc      	ldr	r4, [r7, #8]
  401f82:	3d01      	subs	r5, #1
  401f84:	d411      	bmi.n	401faa <_fwalk_reent+0x3e>
  401f86:	89a3      	ldrh	r3, [r4, #12]
  401f88:	2b01      	cmp	r3, #1
  401f8a:	f105 35ff 	add.w	r5, r5, #4294967295
  401f8e:	d908      	bls.n	401fa2 <_fwalk_reent+0x36>
  401f90:	f9b4 300e 	ldrsh.w	r3, [r4, #14]
  401f94:	3301      	adds	r3, #1
  401f96:	4621      	mov	r1, r4
  401f98:	4630      	mov	r0, r6
  401f9a:	d002      	beq.n	401fa2 <_fwalk_reent+0x36>
  401f9c:	47c0      	blx	r8
  401f9e:	ea49 0900 	orr.w	r9, r9, r0
  401fa2:	1c6b      	adds	r3, r5, #1
  401fa4:	f104 0468 	add.w	r4, r4, #104	; 0x68
  401fa8:	d1ed      	bne.n	401f86 <_fwalk_reent+0x1a>
  401faa:	683f      	ldr	r7, [r7, #0]
  401fac:	2f00      	cmp	r7, #0
  401fae:	d1e6      	bne.n	401f7e <_fwalk_reent+0x12>
  401fb0:	4648      	mov	r0, r9
  401fb2:	e8bd 83f8 	ldmia.w	sp!, {r3, r4, r5, r6, r7, r8, r9, pc}
  401fb6:	46b9      	mov	r9, r7
  401fb8:	4648      	mov	r0, r9
  401fba:	e8bd 83f8 	ldmia.w	sp!, {r3, r4, r5, r6, r7, r8, r9, pc}
  401fbe:	bf00      	nop

00401fc0 <__retarget_lock_init_recursive>:
  401fc0:	4770      	bx	lr
  401fc2:	bf00      	nop

00401fc4 <__retarget_lock_close_recursive>:
  401fc4:	4770      	bx	lr
  401fc6:	bf00      	nop

00401fc8 <__retarget_lock_acquire_recursive>:
  401fc8:	4770      	bx	lr
  401fca:	bf00      	nop

00401fcc <__retarget_lock_release_recursive>:
  401fcc:	4770      	bx	lr
  401fce:	bf00      	nop

00401fd0 <__swhatbuf_r>:
  401fd0:	b570      	push	{r4, r5, r6, lr}
  401fd2:	460c      	mov	r4, r1
  401fd4:	f9b1 100e 	ldrsh.w	r1, [r1, #14]
  401fd8:	2900      	cmp	r1, #0
  401fda:	b090      	sub	sp, #64	; 0x40
  401fdc:	4615      	mov	r5, r2
  401fde:	461e      	mov	r6, r3
  401fe0:	db14      	blt.n	40200c <__swhatbuf_r+0x3c>
  401fe2:	aa01      	add	r2, sp, #4
  401fe4:	f000 ffca 	bl	402f7c <_fstat_r>
  401fe8:	2800      	cmp	r0, #0
  401fea:	db0f      	blt.n	40200c <__swhatbuf_r+0x3c>
  401fec:	9a02      	ldr	r2, [sp, #8]
  401fee:	f402 4270 	and.w	r2, r2, #61440	; 0xf000
  401ff2:	f5a2 5200 	sub.w	r2, r2, #8192	; 0x2000
  401ff6:	fab2 f282 	clz	r2, r2
  401ffa:	0952      	lsrs	r2, r2, #5
  401ffc:	f44f 6380 	mov.w	r3, #1024	; 0x400
  402000:	f44f 6000 	mov.w	r0, #2048	; 0x800
  402004:	6032      	str	r2, [r6, #0]
  402006:	602b      	str	r3, [r5, #0]
  402008:	b010      	add	sp, #64	; 0x40
  40200a:	bd70      	pop	{r4, r5, r6, pc}
  40200c:	89a2      	ldrh	r2, [r4, #12]
  40200e:	2300      	movs	r3, #0
  402010:	f012 0080 	ands.w	r0, r2, #128	; 0x80
  402014:	6033      	str	r3, [r6, #0]
  402016:	d004      	beq.n	402022 <__swhatbuf_r+0x52>
  402018:	2240      	movs	r2, #64	; 0x40
  40201a:	4618      	mov	r0, r3
  40201c:	602a      	str	r2, [r5, #0]
  40201e:	b010      	add	sp, #64	; 0x40
  402020:	bd70      	pop	{r4, r5, r6, pc}
  402022:	f44f 6380 	mov.w	r3, #1024	; 0x400
  402026:	602b      	str	r3, [r5, #0]
  402028:	b010      	add	sp, #64	; 0x40
  40202a:	bd70      	pop	{r4, r5, r6, pc}

0040202c <__smakebuf_r>:
  40202c:	898a      	ldrh	r2, [r1, #12]
  40202e:	0792      	lsls	r2, r2, #30
  402030:	460b      	mov	r3, r1
  402032:	d506      	bpl.n	402042 <__smakebuf_r+0x16>
  402034:	f101 0243 	add.w	r2, r1, #67	; 0x43
  402038:	2101      	movs	r1, #1
  40203a:	601a      	str	r2, [r3, #0]
  40203c:	611a      	str	r2, [r3, #16]
  40203e:	6159      	str	r1, [r3, #20]
  402040:	4770      	bx	lr
  402042:	b5f0      	push	{r4, r5, r6, r7, lr}
  402044:	b083      	sub	sp, #12
  402046:	ab01      	add	r3, sp, #4
  402048:	466a      	mov	r2, sp
  40204a:	460c      	mov	r4, r1
  40204c:	4606      	mov	r6, r0
  40204e:	f7ff ffbf 	bl	401fd0 <__swhatbuf_r>
  402052:	9900      	ldr	r1, [sp, #0]
  402054:	4605      	mov	r5, r0
  402056:	4630      	mov	r0, r6
  402058:	f000 f83a 	bl	4020d0 <_malloc_r>
  40205c:	f9b4 300c 	ldrsh.w	r3, [r4, #12]
  402060:	b1d8      	cbz	r0, 40209a <__smakebuf_r+0x6e>
  402062:	9a01      	ldr	r2, [sp, #4]
  402064:	4f15      	ldr	r7, [pc, #84]	; (4020bc <__smakebuf_r+0x90>)
  402066:	9900      	ldr	r1, [sp, #0]
  402068:	63f7      	str	r7, [r6, #60]	; 0x3c
  40206a:	f043 0380 	orr.w	r3, r3, #128	; 0x80
  40206e:	81a3      	strh	r3, [r4, #12]
  402070:	6020      	str	r0, [r4, #0]
  402072:	6120      	str	r0, [r4, #16]
  402074:	6161      	str	r1, [r4, #20]
  402076:	b91a      	cbnz	r2, 402080 <__smakebuf_r+0x54>
  402078:	432b      	orrs	r3, r5
  40207a:	81a3      	strh	r3, [r4, #12]
  40207c:	b003      	add	sp, #12
  40207e:	bdf0      	pop	{r4, r5, r6, r7, pc}
  402080:	4630      	mov	r0, r6
  402082:	f9b4 100e 	ldrsh.w	r1, [r4, #14]
  402086:	f000 ff8d 	bl	402fa4 <_isatty_r>
  40208a:	b1a0      	cbz	r0, 4020b6 <__smakebuf_r+0x8a>
  40208c:	89a3      	ldrh	r3, [r4, #12]
  40208e:	f023 0303 	bic.w	r3, r3, #3
  402092:	f043 0301 	orr.w	r3, r3, #1
  402096:	b21b      	sxth	r3, r3
  402098:	e7ee      	b.n	402078 <__smakebuf_r+0x4c>
  40209a:	059a      	lsls	r2, r3, #22
  40209c:	d4ee      	bmi.n	40207c <__smakebuf_r+0x50>
  40209e:	f023 0303 	bic.w	r3, r3, #3
  4020a2:	f104 0243 	add.w	r2, r4, #67	; 0x43
  4020a6:	f043 0302 	orr.w	r3, r3, #2
  4020aa:	2101      	movs	r1, #1
  4020ac:	81a3      	strh	r3, [r4, #12]
  4020ae:	6022      	str	r2, [r4, #0]
  4020b0:	6122      	str	r2, [r4, #16]
  4020b2:	6161      	str	r1, [r4, #20]
  4020b4:	e7e2      	b.n	40207c <__smakebuf_r+0x50>
  4020b6:	f9b4 300c 	ldrsh.w	r3, [r4, #12]
  4020ba:	e7dd      	b.n	402078 <__smakebuf_r+0x4c>
  4020bc:	00401911 	.word	0x00401911

004020c0 <malloc>:
  4020c0:	4b02      	ldr	r3, [pc, #8]	; (4020cc <malloc+0xc>)
  4020c2:	4601      	mov	r1, r0
  4020c4:	6818      	ldr	r0, [r3, #0]
  4020c6:	f000 b803 	b.w	4020d0 <_malloc_r>
  4020ca:	bf00      	nop
  4020cc:	20400010 	.word	0x20400010

004020d0 <_malloc_r>:
  4020d0:	e92d 4ff0 	stmdb	sp!, {r4, r5, r6, r7, r8, r9, sl, fp, lr}
  4020d4:	f101 060b 	add.w	r6, r1, #11
  4020d8:	2e16      	cmp	r6, #22
  4020da:	b083      	sub	sp, #12
  4020dc:	4605      	mov	r5, r0
  4020de:	f240 809e 	bls.w	40221e <_malloc_r+0x14e>
  4020e2:	f036 0607 	bics.w	r6, r6, #7
  4020e6:	f100 80bd 	bmi.w	402264 <_malloc_r+0x194>
  4020ea:	42b1      	cmp	r1, r6
  4020ec:	f200 80ba 	bhi.w	402264 <_malloc_r+0x194>
  4020f0:	f000 fbec 	bl	4028cc <__malloc_lock>
  4020f4:	f5b6 7ffc 	cmp.w	r6, #504	; 0x1f8
  4020f8:	f0c0 8293 	bcc.w	402622 <_malloc_r+0x552>
  4020fc:	0a73      	lsrs	r3, r6, #9
  4020fe:	f000 80b8 	beq.w	402272 <_malloc_r+0x1a2>
  402102:	2b04      	cmp	r3, #4
  402104:	f200 8179 	bhi.w	4023fa <_malloc_r+0x32a>
  402108:	09b3      	lsrs	r3, r6, #6
  40210a:	f103 0039 	add.w	r0, r3, #57	; 0x39
  40210e:	f103 0e38 	add.w	lr, r3, #56	; 0x38
  402112:	00c3      	lsls	r3, r0, #3
  402114:	4fbf      	ldr	r7, [pc, #764]	; (402414 <_malloc_r+0x344>)
  402116:	443b      	add	r3, r7
  402118:	f1a3 0108 	sub.w	r1, r3, #8
  40211c:	685c      	ldr	r4, [r3, #4]
  40211e:	42a1      	cmp	r1, r4
  402120:	d106      	bne.n	402130 <_malloc_r+0x60>
  402122:	e00c      	b.n	40213e <_malloc_r+0x6e>
  402124:	2a00      	cmp	r2, #0
  402126:	f280 80aa 	bge.w	40227e <_malloc_r+0x1ae>
  40212a:	68e4      	ldr	r4, [r4, #12]
  40212c:	42a1      	cmp	r1, r4
  40212e:	d006      	beq.n	40213e <_malloc_r+0x6e>
  402130:	6863      	ldr	r3, [r4, #4]
  402132:	f023 0303 	bic.w	r3, r3, #3
  402136:	1b9a      	subs	r2, r3, r6
  402138:	2a0f      	cmp	r2, #15
  40213a:	ddf3      	ble.n	402124 <_malloc_r+0x54>
  40213c:	4670      	mov	r0, lr
  40213e:	693c      	ldr	r4, [r7, #16]
  402140:	f8df e2e4 	ldr.w	lr, [pc, #740]	; 402428 <_malloc_r+0x358>
  402144:	4574      	cmp	r4, lr
  402146:	f000 81ab 	beq.w	4024a0 <_malloc_r+0x3d0>
  40214a:	6863      	ldr	r3, [r4, #4]
  40214c:	f023 0303 	bic.w	r3, r3, #3
  402150:	1b9a      	subs	r2, r3, r6
  402152:	2a0f      	cmp	r2, #15
  402154:	f300 8190 	bgt.w	402478 <_malloc_r+0x3a8>
  402158:	2a00      	cmp	r2, #0
  40215a:	f8c7 e014 	str.w	lr, [r7, #20]
  40215e:	f8c7 e010 	str.w	lr, [r7, #16]
  402162:	f280 809d 	bge.w	4022a0 <_malloc_r+0x1d0>
  402166:	f5b3 7f00 	cmp.w	r3, #512	; 0x200
  40216a:	f080 8161 	bcs.w	402430 <_malloc_r+0x360>
  40216e:	08db      	lsrs	r3, r3, #3
  402170:	f103 0c01 	add.w	ip, r3, #1
  402174:	1099      	asrs	r1, r3, #2
  402176:	687a      	ldr	r2, [r7, #4]
  402178:	f857 803c 	ldr.w	r8, [r7, ip, lsl #3]
  40217c:	f8c4 8008 	str.w	r8, [r4, #8]
  402180:	2301      	movs	r3, #1
  402182:	408b      	lsls	r3, r1
  402184:	eb07 01cc 	add.w	r1, r7, ip, lsl #3
  402188:	4313      	orrs	r3, r2
  40218a:	3908      	subs	r1, #8
  40218c:	60e1      	str	r1, [r4, #12]
  40218e:	607b      	str	r3, [r7, #4]
  402190:	f847 403c 	str.w	r4, [r7, ip, lsl #3]
  402194:	f8c8 400c 	str.w	r4, [r8, #12]
  402198:	1082      	asrs	r2, r0, #2
  40219a:	2401      	movs	r4, #1
  40219c:	4094      	lsls	r4, r2
  40219e:	429c      	cmp	r4, r3
  4021a0:	f200 808b 	bhi.w	4022ba <_malloc_r+0x1ea>
  4021a4:	421c      	tst	r4, r3
  4021a6:	d106      	bne.n	4021b6 <_malloc_r+0xe6>
  4021a8:	f020 0003 	bic.w	r0, r0, #3
  4021ac:	0064      	lsls	r4, r4, #1
  4021ae:	421c      	tst	r4, r3
  4021b0:	f100 0004 	add.w	r0, r0, #4
  4021b4:	d0fa      	beq.n	4021ac <_malloc_r+0xdc>
  4021b6:	eb07 09c0 	add.w	r9, r7, r0, lsl #3
  4021ba:	46cc      	mov	ip, r9
  4021bc:	4680      	mov	r8, r0
  4021be:	f8dc 300c 	ldr.w	r3, [ip, #12]
  4021c2:	459c      	cmp	ip, r3
  4021c4:	d107      	bne.n	4021d6 <_malloc_r+0x106>
  4021c6:	e16d      	b.n	4024a4 <_malloc_r+0x3d4>
  4021c8:	2a00      	cmp	r2, #0
  4021ca:	f280 817b 	bge.w	4024c4 <_malloc_r+0x3f4>
  4021ce:	68db      	ldr	r3, [r3, #12]
  4021d0:	459c      	cmp	ip, r3
  4021d2:	f000 8167 	beq.w	4024a4 <_malloc_r+0x3d4>
  4021d6:	6859      	ldr	r1, [r3, #4]
  4021d8:	f021 0103 	bic.w	r1, r1, #3
  4021dc:	1b8a      	subs	r2, r1, r6
  4021de:	2a0f      	cmp	r2, #15
  4021e0:	ddf2      	ble.n	4021c8 <_malloc_r+0xf8>
  4021e2:	f8d3 c00c 	ldr.w	ip, [r3, #12]
  4021e6:	f8d3 8008 	ldr.w	r8, [r3, #8]
  4021ea:	9300      	str	r3, [sp, #0]
  4021ec:	199c      	adds	r4, r3, r6
  4021ee:	4628      	mov	r0, r5
  4021f0:	f046 0601 	orr.w	r6, r6, #1
  4021f4:	f042 0501 	orr.w	r5, r2, #1
  4021f8:	605e      	str	r6, [r3, #4]
  4021fa:	f8c8 c00c 	str.w	ip, [r8, #12]
  4021fe:	f8cc 8008 	str.w	r8, [ip, #8]
  402202:	617c      	str	r4, [r7, #20]
  402204:	613c      	str	r4, [r7, #16]
  402206:	f8c4 e00c 	str.w	lr, [r4, #12]
  40220a:	f8c4 e008 	str.w	lr, [r4, #8]
  40220e:	6065      	str	r5, [r4, #4]
  402210:	505a      	str	r2, [r3, r1]
  402212:	f000 fb61 	bl	4028d8 <__malloc_unlock>
  402216:	9b00      	ldr	r3, [sp, #0]
  402218:	f103 0408 	add.w	r4, r3, #8
  40221c:	e01e      	b.n	40225c <_malloc_r+0x18c>
  40221e:	2910      	cmp	r1, #16
  402220:	d820      	bhi.n	402264 <_malloc_r+0x194>
  402222:	f000 fb53 	bl	4028cc <__malloc_lock>
  402226:	2610      	movs	r6, #16
  402228:	2318      	movs	r3, #24
  40222a:	2002      	movs	r0, #2
  40222c:	4f79      	ldr	r7, [pc, #484]	; (402414 <_malloc_r+0x344>)
  40222e:	443b      	add	r3, r7
  402230:	f1a3 0208 	sub.w	r2, r3, #8
  402234:	685c      	ldr	r4, [r3, #4]
  402236:	4294      	cmp	r4, r2
  402238:	f000 813d 	beq.w	4024b6 <_malloc_r+0x3e6>
  40223c:	6863      	ldr	r3, [r4, #4]
  40223e:	68e1      	ldr	r1, [r4, #12]
  402240:	68a6      	ldr	r6, [r4, #8]
  402242:	f023 0303 	bic.w	r3, r3, #3
  402246:	4423      	add	r3, r4
  402248:	4628      	mov	r0, r5
  40224a:	685a      	ldr	r2, [r3, #4]
  40224c:	60f1      	str	r1, [r6, #12]
  40224e:	f042 0201 	orr.w	r2, r2, #1
  402252:	608e      	str	r6, [r1, #8]
  402254:	605a      	str	r2, [r3, #4]
  402256:	f000 fb3f 	bl	4028d8 <__malloc_unlock>
  40225a:	3408      	adds	r4, #8
  40225c:	4620      	mov	r0, r4
  40225e:	b003      	add	sp, #12
  402260:	e8bd 8ff0 	ldmia.w	sp!, {r4, r5, r6, r7, r8, r9, sl, fp, pc}
  402264:	2400      	movs	r4, #0
  402266:	230c      	movs	r3, #12
  402268:	4620      	mov	r0, r4
  40226a:	602b      	str	r3, [r5, #0]
  40226c:	b003      	add	sp, #12
  40226e:	e8bd 8ff0 	ldmia.w	sp!, {r4, r5, r6, r7, r8, r9, sl, fp, pc}
  402272:	2040      	movs	r0, #64	; 0x40
  402274:	f44f 7300 	mov.w	r3, #512	; 0x200
  402278:	f04f 0e3f 	mov.w	lr, #63	; 0x3f
  40227c:	e74a      	b.n	402114 <_malloc_r+0x44>
  40227e:	4423      	add	r3, r4
  402280:	68e1      	ldr	r1, [r4, #12]
  402282:	685a      	ldr	r2, [r3, #4]
  402284:	68a6      	ldr	r6, [r4, #8]
  402286:	f042 0201 	orr.w	r2, r2, #1
  40228a:	60f1      	str	r1, [r6, #12]
  40228c:	4628      	mov	r0, r5
  40228e:	608e      	str	r6, [r1, #8]
  402290:	605a      	str	r2, [r3, #4]
  402292:	f000 fb21 	bl	4028d8 <__malloc_unlock>
  402296:	3408      	adds	r4, #8
  402298:	4620      	mov	r0, r4
  40229a:	b003      	add	sp, #12
  40229c:	e8bd 8ff0 	ldmia.w	sp!, {r4, r5, r6, r7, r8, r9, sl, fp, pc}
  4022a0:	4423      	add	r3, r4
  4022a2:	4628      	mov	r0, r5
  4022a4:	685a      	ldr	r2, [r3, #4]
  4022a6:	f042 0201 	orr.w	r2, r2, #1
  4022aa:	605a      	str	r2, [r3, #4]
  4022ac:	f000 fb14 	bl	4028d8 <__malloc_unlock>
  4022b0:	3408      	adds	r4, #8
  4022b2:	4620      	mov	r0, r4
  4022b4:	b003      	add	sp, #12
  4022b6:	e8bd 8ff0 	ldmia.w	sp!, {r4, r5, r6, r7, r8, r9, sl, fp, pc}
  4022ba:	68bc      	ldr	r4, [r7, #8]
  4022bc:	6863      	ldr	r3, [r4, #4]
  4022be:	f023 0803 	bic.w	r8, r3, #3
  4022c2:	45b0      	cmp	r8, r6
  4022c4:	d304      	bcc.n	4022d0 <_malloc_r+0x200>
  4022c6:	eba8 0306 	sub.w	r3, r8, r6
  4022ca:	2b0f      	cmp	r3, #15
  4022cc:	f300 8085 	bgt.w	4023da <_malloc_r+0x30a>
  4022d0:	f8df 9158 	ldr.w	r9, [pc, #344]	; 40242c <_malloc_r+0x35c>
  4022d4:	4b50      	ldr	r3, [pc, #320]	; (402418 <_malloc_r+0x348>)
  4022d6:	f8d9 2000 	ldr.w	r2, [r9]
  4022da:	681b      	ldr	r3, [r3, #0]
  4022dc:	3201      	adds	r2, #1
  4022de:	4433      	add	r3, r6
  4022e0:	eb04 0a08 	add.w	sl, r4, r8
  4022e4:	f000 8155 	beq.w	402592 <_malloc_r+0x4c2>
  4022e8:	f503 5380 	add.w	r3, r3, #4096	; 0x1000
  4022ec:	330f      	adds	r3, #15
  4022ee:	f423 6b7f 	bic.w	fp, r3, #4080	; 0xff0
  4022f2:	f02b 0b0f 	bic.w	fp, fp, #15
  4022f6:	4659      	mov	r1, fp
  4022f8:	4628      	mov	r0, r5
  4022fa:	f000 fc99 	bl	402c30 <_sbrk_r>
  4022fe:	1c41      	adds	r1, r0, #1
  402300:	4602      	mov	r2, r0
  402302:	f000 80fc 	beq.w	4024fe <_malloc_r+0x42e>
  402306:	4582      	cmp	sl, r0
  402308:	f200 80f7 	bhi.w	4024fa <_malloc_r+0x42a>
  40230c:	4b43      	ldr	r3, [pc, #268]	; (40241c <_malloc_r+0x34c>)
  40230e:	6819      	ldr	r1, [r3, #0]
  402310:	4459      	add	r1, fp
  402312:	6019      	str	r1, [r3, #0]
  402314:	f000 814d 	beq.w	4025b2 <_malloc_r+0x4e2>
  402318:	f8d9 0000 	ldr.w	r0, [r9]
  40231c:	3001      	adds	r0, #1
  40231e:	bf1b      	ittet	ne
  402320:	eba2 0a0a 	subne.w	sl, r2, sl
  402324:	4451      	addne	r1, sl
  402326:	f8c9 2000 	streq.w	r2, [r9]
  40232a:	6019      	strne	r1, [r3, #0]
  40232c:	f012 0107 	ands.w	r1, r2, #7
  402330:	f000 8115 	beq.w	40255e <_malloc_r+0x48e>
  402334:	f1c1 0008 	rsb	r0, r1, #8
  402338:	f5c1 5180 	rsb	r1, r1, #4096	; 0x1000
  40233c:	4402      	add	r2, r0
  40233e:	3108      	adds	r1, #8
  402340:	eb02 090b 	add.w	r9, r2, fp
  402344:	f3c9 090b 	ubfx	r9, r9, #0, #12
  402348:	eba1 0909 	sub.w	r9, r1, r9
  40234c:	4649      	mov	r1, r9
  40234e:	4628      	mov	r0, r5
  402350:	9301      	str	r3, [sp, #4]
  402352:	9200      	str	r2, [sp, #0]
  402354:	f000 fc6c 	bl	402c30 <_sbrk_r>
  402358:	1c43      	adds	r3, r0, #1
  40235a:	e89d 000c 	ldmia.w	sp, {r2, r3}
  40235e:	f000 8143 	beq.w	4025e8 <_malloc_r+0x518>
  402362:	1a80      	subs	r0, r0, r2
  402364:	4448      	add	r0, r9
  402366:	f040 0001 	orr.w	r0, r0, #1
  40236a:	6819      	ldr	r1, [r3, #0]
  40236c:	60ba      	str	r2, [r7, #8]
  40236e:	4449      	add	r1, r9
  402370:	42bc      	cmp	r4, r7
  402372:	6050      	str	r0, [r2, #4]
  402374:	6019      	str	r1, [r3, #0]
  402376:	d017      	beq.n	4023a8 <_malloc_r+0x2d8>
  402378:	f1b8 0f0f 	cmp.w	r8, #15
  40237c:	f240 80fb 	bls.w	402576 <_malloc_r+0x4a6>
  402380:	6860      	ldr	r0, [r4, #4]
  402382:	f1a8 020c 	sub.w	r2, r8, #12
  402386:	f022 0207 	bic.w	r2, r2, #7
  40238a:	eb04 0e02 	add.w	lr, r4, r2
  40238e:	f000 0001 	and.w	r0, r0, #1
  402392:	f04f 0c05 	mov.w	ip, #5
  402396:	4310      	orrs	r0, r2
  402398:	2a0f      	cmp	r2, #15
  40239a:	6060      	str	r0, [r4, #4]
  40239c:	f8ce c004 	str.w	ip, [lr, #4]
  4023a0:	f8ce c008 	str.w	ip, [lr, #8]
  4023a4:	f200 8117 	bhi.w	4025d6 <_malloc_r+0x506>
  4023a8:	4b1d      	ldr	r3, [pc, #116]	; (402420 <_malloc_r+0x350>)
  4023aa:	68bc      	ldr	r4, [r7, #8]
  4023ac:	681a      	ldr	r2, [r3, #0]
  4023ae:	4291      	cmp	r1, r2
  4023b0:	bf88      	it	hi
  4023b2:	6019      	strhi	r1, [r3, #0]
  4023b4:	4b1b      	ldr	r3, [pc, #108]	; (402424 <_malloc_r+0x354>)
  4023b6:	681a      	ldr	r2, [r3, #0]
  4023b8:	4291      	cmp	r1, r2
  4023ba:	6862      	ldr	r2, [r4, #4]
  4023bc:	bf88      	it	hi
  4023be:	6019      	strhi	r1, [r3, #0]
  4023c0:	f022 0203 	bic.w	r2, r2, #3
  4023c4:	4296      	cmp	r6, r2
  4023c6:	eba2 0306 	sub.w	r3, r2, r6
  4023ca:	d801      	bhi.n	4023d0 <_malloc_r+0x300>
  4023cc:	2b0f      	cmp	r3, #15
  4023ce:	dc04      	bgt.n	4023da <_malloc_r+0x30a>
  4023d0:	4628      	mov	r0, r5
  4023d2:	f000 fa81 	bl	4028d8 <__malloc_unlock>
  4023d6:	2400      	movs	r4, #0
  4023d8:	e740      	b.n	40225c <_malloc_r+0x18c>
  4023da:	19a2      	adds	r2, r4, r6
  4023dc:	f043 0301 	orr.w	r3, r3, #1
  4023e0:	f046 0601 	orr.w	r6, r6, #1
  4023e4:	6066      	str	r6, [r4, #4]
  4023e6:	4628      	mov	r0, r5
  4023e8:	60ba      	str	r2, [r7, #8]
  4023ea:	6053      	str	r3, [r2, #4]
  4023ec:	f000 fa74 	bl	4028d8 <__malloc_unlock>
  4023f0:	3408      	adds	r4, #8
  4023f2:	4620      	mov	r0, r4
  4023f4:	b003      	add	sp, #12
  4023f6:	e8bd 8ff0 	ldmia.w	sp!, {r4, r5, r6, r7, r8, r9, sl, fp, pc}
  4023fa:	2b14      	cmp	r3, #20
  4023fc:	d971      	bls.n	4024e2 <_malloc_r+0x412>
  4023fe:	2b54      	cmp	r3, #84	; 0x54
  402400:	f200 80a3 	bhi.w	40254a <_malloc_r+0x47a>
  402404:	0b33      	lsrs	r3, r6, #12
  402406:	f103 006f 	add.w	r0, r3, #111	; 0x6f
  40240a:	f103 0e6e 	add.w	lr, r3, #110	; 0x6e
  40240e:	00c3      	lsls	r3, r0, #3
  402410:	e680      	b.n	402114 <_malloc_r+0x44>
  402412:	bf00      	nop
  402414:	20400444 	.word	0x20400444
  402418:	20400920 	.word	0x20400920
  40241c:	204008f0 	.word	0x204008f0
  402420:	20400918 	.word	0x20400918
  402424:	2040091c 	.word	0x2040091c
  402428:	2040044c 	.word	0x2040044c
  40242c:	2040084c 	.word	0x2040084c
  402430:	0a5a      	lsrs	r2, r3, #9
  402432:	2a04      	cmp	r2, #4
  402434:	d95b      	bls.n	4024ee <_malloc_r+0x41e>
  402436:	2a14      	cmp	r2, #20
  402438:	f200 80ae 	bhi.w	402598 <_malloc_r+0x4c8>
  40243c:	f102 015c 	add.w	r1, r2, #92	; 0x5c
  402440:	00c9      	lsls	r1, r1, #3
  402442:	325b      	adds	r2, #91	; 0x5b
  402444:	eb07 0c01 	add.w	ip, r7, r1
  402448:	5879      	ldr	r1, [r7, r1]
  40244a:	f1ac 0c08 	sub.w	ip, ip, #8
  40244e:	458c      	cmp	ip, r1
  402450:	f000 8088 	beq.w	402564 <_malloc_r+0x494>
  402454:	684a      	ldr	r2, [r1, #4]
  402456:	f022 0203 	bic.w	r2, r2, #3
  40245a:	4293      	cmp	r3, r2
  40245c:	d273      	bcs.n	402546 <_malloc_r+0x476>
  40245e:	6889      	ldr	r1, [r1, #8]
  402460:	458c      	cmp	ip, r1
  402462:	d1f7      	bne.n	402454 <_malloc_r+0x384>
  402464:	f8dc 200c 	ldr.w	r2, [ip, #12]
  402468:	687b      	ldr	r3, [r7, #4]
  40246a:	60e2      	str	r2, [r4, #12]
  40246c:	f8c4 c008 	str.w	ip, [r4, #8]
  402470:	6094      	str	r4, [r2, #8]
  402472:	f8cc 400c 	str.w	r4, [ip, #12]
  402476:	e68f      	b.n	402198 <_malloc_r+0xc8>
  402478:	19a1      	adds	r1, r4, r6
  40247a:	f046 0c01 	orr.w	ip, r6, #1
  40247e:	f042 0601 	orr.w	r6, r2, #1
  402482:	f8c4 c004 	str.w	ip, [r4, #4]
  402486:	4628      	mov	r0, r5
  402488:	6179      	str	r1, [r7, #20]
  40248a:	6139      	str	r1, [r7, #16]
  40248c:	f8c1 e00c 	str.w	lr, [r1, #12]
  402490:	f8c1 e008 	str.w	lr, [r1, #8]
  402494:	604e      	str	r6, [r1, #4]
  402496:	50e2      	str	r2, [r4, r3]
  402498:	f000 fa1e 	bl	4028d8 <__malloc_unlock>
  40249c:	3408      	adds	r4, #8
  40249e:	e6dd      	b.n	40225c <_malloc_r+0x18c>
  4024a0:	687b      	ldr	r3, [r7, #4]
  4024a2:	e679      	b.n	402198 <_malloc_r+0xc8>
  4024a4:	f108 0801 	add.w	r8, r8, #1
  4024a8:	f018 0f03 	tst.w	r8, #3
  4024ac:	f10c 0c08 	add.w	ip, ip, #8
  4024b0:	f47f ae85 	bne.w	4021be <_malloc_r+0xee>
  4024b4:	e02d      	b.n	402512 <_malloc_r+0x442>
  4024b6:	68dc      	ldr	r4, [r3, #12]
  4024b8:	42a3      	cmp	r3, r4
  4024ba:	bf08      	it	eq
  4024bc:	3002      	addeq	r0, #2
  4024be:	f43f ae3e 	beq.w	40213e <_malloc_r+0x6e>
  4024c2:	e6bb      	b.n	40223c <_malloc_r+0x16c>
  4024c4:	4419      	add	r1, r3
  4024c6:	461c      	mov	r4, r3
  4024c8:	684a      	ldr	r2, [r1, #4]
  4024ca:	68db      	ldr	r3, [r3, #12]
  4024cc:	f854 6f08 	ldr.w	r6, [r4, #8]!
  4024d0:	f042 0201 	orr.w	r2, r2, #1
  4024d4:	604a      	str	r2, [r1, #4]
  4024d6:	4628      	mov	r0, r5
  4024d8:	60f3      	str	r3, [r6, #12]
  4024da:	609e      	str	r6, [r3, #8]
  4024dc:	f000 f9fc 	bl	4028d8 <__malloc_unlock>
  4024e0:	e6bc      	b.n	40225c <_malloc_r+0x18c>
  4024e2:	f103 005c 	add.w	r0, r3, #92	; 0x5c
  4024e6:	f103 0e5b 	add.w	lr, r3, #91	; 0x5b
  4024ea:	00c3      	lsls	r3, r0, #3
  4024ec:	e612      	b.n	402114 <_malloc_r+0x44>
  4024ee:	099a      	lsrs	r2, r3, #6
  4024f0:	f102 0139 	add.w	r1, r2, #57	; 0x39
  4024f4:	00c9      	lsls	r1, r1, #3
  4024f6:	3238      	adds	r2, #56	; 0x38
  4024f8:	e7a4      	b.n	402444 <_malloc_r+0x374>
  4024fa:	42bc      	cmp	r4, r7
  4024fc:	d054      	beq.n	4025a8 <_malloc_r+0x4d8>
  4024fe:	68bc      	ldr	r4, [r7, #8]
  402500:	6862      	ldr	r2, [r4, #4]
  402502:	f022 0203 	bic.w	r2, r2, #3
  402506:	e75d      	b.n	4023c4 <_malloc_r+0x2f4>
  402508:	f859 3908 	ldr.w	r3, [r9], #-8
  40250c:	4599      	cmp	r9, r3
