S01D0000424C5545544F4F54485F5032505F4558414D504C452E73726563B5
S214400000F024402099094000950940009509400099
S2144000109509400095094000950940000000000001
S21440002000000000000000000000000095094000AD
S214400030950940000000000095094000F90B40007B
S21440004095094000950940009509400095094000F3
S21440005095094000950940009509400095094000E3
S2144000609509400000000000BD074000D107400051
S214400070E507400095094000950940009509400075
S214400080F90740000D0840009509400095094000DA
S21440009095094000950940009509400095094000A3
S2144000A09509400095094000950940009509400093
S2144000B09509400095094000950940009509400083
S2144000C09509400095094000950940009509400073
S2144000D0000000009509400000000000950940001F
S2144000E09509400095094000950940009509400053
S2144000F09509400095094000950940009509400043
S2144001009509400095094000950940009509400032
S21440011095094000000000000000000000000000BC
S2144001209509400095094000950940009509400012
S21440013095094000000000009509400095094000E0
S21440014010B5054C237833B9044B13B10448AFF3CC
S21440015000800123237010BD3404402000000000BE
S214400160101440000C4B43B10C480D4910B5AFF38A
S21440017000800C48036823B910BD0A48036833B9A9
S2144001807047094B002BF7D0BDE810401847064B88
S214400190002BF5D0184700BF0000000010144000A8
S2144001A038044020101440000000000010B40B013A
S2144001B0934214D9C9004B0803EBC202B2FBF1F2DA
S2144001C0D3085C1E4FF6FE718C4201D9012017E021
S2144001D0416841F4002141600CE0012010E05908DC
S2144001E001EBC202B2FBF3F2D3085C1E4FF6FE717F
S2144001F08C42F2D8120402F4E0221A430262002033
S2144002005DF8044B70470000084BC0F8E43000230C
S21440021043604362836288230360242303604FF471
S214400220807303604FF400230360704700415355CA
S21440023070B505460C4616460F4B984700220F4BA6
S2144002401A60A4B13246216828460D4B98470246AC
S21440025078B96368A1680B4321690B43E1680B4397
S21440026006490B6069680B436B60104670BD0122FF
S214400270FBE70122F9E700BF090240005004402096
S214400280AD01400040230360704710230360704771
S214400290436913F0020F04D0C1F30801C161002086
S2144002A0704701207047436913F0010F05D08369FA
S2144002B0C3F308030B60002070470120704700001E
S2144002C0002A54D02DE9F84F924606460F468A44F7
S2144002D0DFF8B880274DDFF8B89006E02146404664
S2144002E0A8470028FAD1BA453ED017F8014B4645F4
S2144002F0F4D04E4516D0204B9E4219D01F4B9E42FE
S2144003001CD01F4B9E421FD01E4B9E4224D01E4BDD
S2144003109E42E8D1DFF87CB021461B48D8470028EB
S214400320FAD1E0E721464846A8470028FAD1DAE75E
S21440033021461148A8470028FAD1D4E721460F485D
S214400340A8470028FAD1CEE7DFF848B021460C4847
S214400350D8470028FAD1C6E7DFF838B02146094822
S214400360D8470028FAD1BEE70020BDE8F88F002025
S214400370704700BFC9034000001A0E40001C0E40E4
S214400380004002400080024000C0024000080E408C
S214400390000A0E409102400010B4AC2303600B6884
S2144003A04A68B3FBF2F31B095C1E4FF6FE7294429A
S2144003B008D803628B6843605023036000205DF8D2
S2144003C0044B70470120FAE7436913F0020F02D04E
S2144003D0C1610020704701207047000010B51048EA
S2144003E0104B98473E2100200F4B98470F4CA04794
S2144003F00028FCD00E4B98470E4A0F4B9A620F4C83
S214400400A0470028FCD002200D4B984700200D4BFB
S21440041098470D4B98470248024B984710BD00BF7F
S21440042000A3E1116D0B4000BD08400011094000DB
S21440043021094000013F182000060E4031094000C7
S2144004402108400059084000610A4000F8B54FF4C2
S21440045000425C4B5A60BFF34F8FBFF36F8F5A4BCF
S2144004600022C3F850225A6942F400325A61BFF360
S2144004704F8FBFF36F8FD3F88070C7F34E3607F0B9
S21440048007000430C7F3C907B7FA87FE0EF01F0E01
S214400490BFF34F8F4FF0FF3404FA00FC06FA00F02B
S2144004A004FA0EF407FA0EFE1D463A46734640EA34
S2144004B00301C5F86012013A2344B2F1FF3FF6D17A
S2144004C0013E6044B6F1FF3FEFD1BFF34F8F3E4B46
S2144004D05A6942F480325A61BFF34F8FBFF36F8F31
S2144004E03A4A3B495160A1F580715160BFF34F8F46
S2144004F0BFF36F8FD3F8902222F00102C3F8902208
S214400500D3F8942222F00102C3F89422BFF34F8F0F
S214400510BFF36F8F0A202F4CA0470B20A0470C201C
S214400520A0471020A0471120A0472B4B4FF48072C5
S2144005301A61C3F8A0201A63A3F580634FF40062E3
S2144005405A61C3F8A0205A66C3F890205A651A62CA
S214400550C3F88420196F21F400611967596F21F49C
S21440056000615967C3F8C020C3F8D420C3F8B02050
S2144005704FF400121A66C3F890205A655A62C3F8C0
S2144005808020196F21F400111967596F21F400116A
S21440059059675A60114AD2F8143143F01003C2F832
S2144005A014310F4B10221A66C3F890205A655A62CF
S2144005B0C3F88020196F11431967596F1143596763
S2144005C05A60F8BD50180E4000ED00E0000C0E409A
S2144005D00C08005A4109400000120E4000800840B6
S2144005E000100E404264B1F1C05F3AD013D8B1F16A
S2144005F0006F25D0B1F1805F0AD1036F13430367C4
S214400600436F416F0B4023EA0203436742607047E3
S2144006100029FBD17047B1F1205F21D009D8B1F154
S214400620005FF3D1036F13430367436F134343677E
S214400630ECE7B1F1405F13D0B1F1605F10D0E5E771
S21440064010B4016F046FD34321401C461940016724
S214400650436F416F0B402340436742605DF8044B55
S2144006607047036F016F0B4023EA02030367436F33
S21440067013434367CAE7416412F0010F0DD1016688
S21440068012F00A0F0BD0016212F0020F09D112F0DD
S214400690080F08D0C0F8841005E04166F0E74162D4
S2144006A0F2E7C0F8801041610160704710B4019CC9
S2144006B041644CB901664BB101654AB94163016179
S2144006C001605DF8044B70474166F4E74165F4E726
S2144006D00163F4E770B582B0054616461C46B1F194
S2144006E0005F14D00AD9B1F1405F24D0B1F1605F09
S2144006F021D0B1F1205F17D000201AE0B1F1805F21
S21440070005D0B1F1C05F02D0B1F1006FF4D13246EE
S2144007102846114B984714F0010F02D12E6601204F
S21440072007E06E66012004E01A4631460B4B9847B8
S214400730012002B070BD04F001030093C4F38003AF
S214400740B1F1605F14BF0022012231462846044CB6
S214400750A0470120EDE700BFE505400077064000D2
S214400760AD064000C06C7047806C70472DE9F04184
S214400770044688460E4B9847054620460D4B9847FC
S214400780054013D00C4C04F1600603E0B4420DD093
S21440079010345DB120684045F8D161682942F5D0F3
S2144007A0E3689847636825EA0305EFE7BDE8F0810C
S2144007B065074000690740005404402008B50A21F8
S2144007C00148024B984708BD000E0E406D0740009A
S2144007D008B50B210148024B984708BD00100E4053
S2144007E06D07400008B50C210148024B984708BDEC
S2144007F000120E406D07400008B510210148024B1C
S214400800984708BD00140E406D07400008B51121FA
S2144008100148024B984708BD00160E406D07400041
S214400820032811D0042812D002280CBF4FF4807140
S2144008300021084A136B23F440730B431363936EF3
S21440084013F0080FFBD070474FF44071F1E74FF4B8
S2144008500071EEE700060E40174A136B23F0700354
S21440086018431063936E13F0080F0AD14FF4805369
S21440087011498A6E12F0080F03D1013BF9D10120CD
S21440088070470D4A136B23F0030343F002031363D0
S214400890936E13F0080F0AD14FF4805306498A6EC0
S2144008A012F0080F05D1013BF9D101207047002016
S2144008B070470020704700BF00060E40A0B90E48A3
S2144008C0036A090289B20D4A1A400D4B1343194375
S2144008D001620246936E13F0010FFBD0064A116A7E
S2144008E0084B0B431362704703490B6A064A1A408B
S2144008F0064B13430B62704700060E40FCFFC8FFD2
S2144009000100370000003701FCFFC8FE0200370137
S214400910024B986E00F48030704700BF00060E40D1
S2144009204FF00052014B9A62704700BF00060E40DF
S214400930024B986E00F00200704700BF00060E4063
S2144009403F281ED81F280CD8114B9A690123834094
S214400950934318D0012303FA00F00D4B1861002092
S214400960704720380A4BD3F808210123834093432D
S2144009700BD0012303FA00F0054BC3F8000100201A
S214400980704701207047002070470020704700BF26
S21440099000060E40FEE7000000B583B0254B264A11
S2144009A09A4210D0254B234A9A420CD2013B9B1ABE
S2144009B023F00303043313441F4951F8040B42F851
S2144009C0040B9A42F9D11E4B1E4A9A420AD2013B68
S2144009D09B1A23F0030304331344002142F8041BFC
S2144009E09342FBD1184A194B23F07F039360EFF3F1
S2144009F01083B3FA83F35B09019372B6BFF35F8F3C
S214400A000022134B1A700199124A136843F470037C
S214400A101360BFF34F8FBFF36F8F29B101220C4B8A
S214400A201A70BFF35F8F62B60B4B98470B4B9847D5
S214400A30FEE700BF00004020101440003404402071
S214400A40EC0440203404402000ED00E0000040006C
S214400A500000402088ED00E099104000D10F400093
S214400A603B4B1B6B03F00303012B1DD083B1022BC2
S214400A7036D0374B1B6B03F07003702B5FD0344B74
S214400A801A6B3449C2F302120B68D3400B607047AE
S214400A90314B5B6913F0800F14BF4FF400424FF4A4
S214400AA0FA422C4B1A60E4E7294B1B6A13F0807F0E
S214400AB003D02A4A274B1A60DBE7294A254B1A609F
S214400AC0234B1B6A03F07003102B05D0202BD0D18C
S214400AD0224A204B1A60CCE7224A1E4B1A60C8E7CF
S214400AE01B4B1B6A13F0807F16D01C4A194B1A60AA
S214400AF0174B1B6B03F00303022BBAD1144A916ABF
S214400B00926A1448C1F30A41036801FB0333D2B228
S214400B10B3FBF2F30360ACE7114A0E4B1A600C4B82
S214400B201B6A03F07003102B05D0202BE0D10B4A34
S214400B30084B1A60DCE70B4A064B1A60D8E7054AB2
S214400B4013680949A1FB03135B081360704700BF95
S214400B5000060E400400402010180E40001BB70050
S214400B6000093D0000127A00ABAAAAAA164B98428A
S214400B7013D9164B984215D9154B984216D9154B92
S214400B80984217D9144B984218D9144B984294BFA0
S214400B90134A144A144B1A6070474FF08062124B47
S214400BA01A607047114A104B1A607047104A0E4B35
S214400BB01A6070470F4A0C4B1A6070474FF0042279
S214400BC0094B1A60704700BFBFF35E017FE7BD0266
S214400BD03FDB1C04FFCE7B05BFC2DA067FB6390872
S214400BE00005000400060004000C0E40000100044E
S214400BF00002000400030004024A13680133136035
S214400C00704700BFC404402038B505460C46084629
S214400C10034B9847024621462846024B984738BD24
S214400C2001114000C10240002DE9F04F85B001900F
S214400C308B461F46104B1E6801F1FF3A02F1FF3803
S214400C4000241D46DFF834902B689B1BBB420BDA12
S214400C50444509D003A90198C8470028F4D1013477
S214400C60039B0AF8013FEFE700230BF804302046C9
S214400C7005B0BDE8F08F00BFC4044020A702400086
S214400C8070B504460D4616461946044B9847049BD5
S214400C90324629462046024CA04770BD090C40000B
S214400CA0290C4000F8B507460E46094D0949284626
S214400CB0094CA04739462846A04708492846A04739
S214400CC031462846A04706492846A047F8BD00BFFB
S214400CD000800240E0134000090C4000E41340004E
S214400CE0A013400070B586B04FF4E1330093C023A4
S214400CF001934FF4006302930023039304930E2062
S214400D00094B9847094C0A4A69462046094B98477A
S214400D102046094EB0472046084DA8472046B047D3
S214400D202046A84706B070BD4109400000800240FA
S214400D3080D1F00831024000850240008B0240001E
S214400D40F0B587B04FF416530093C02301934FF489
S214400D50006302930025039504950D20104B984799
S214400D60104C114A69462046104B98472046104F73
S214400D70B84720460F4EB0472046B8472046B047B3
S214400D800D4E2B4601224FF0C05130460B4CA0472B
S214400D902B4602224FF0C0513046A04707B0F0BD68
S214400DA0410940000040024080D1F0083102400036
S214400DB0850240008B02400000100E40D5064000E1
S214400DC030B585B0134B01934FF4165302934FF44E
S214400DD0006303932D20104B9847104C01A92046E2
S214400DE00F4B984720460F4B984720460E4B984748
S214400DF00E4D00234FF080524FF0006128460C4CB9
S214400E00A04700234FF080424FF000612846A0479D
S214400E1005B030BD80D1F00841094000001C0E40AE
S214400E2099034000850240008B02400000140E40AB
S214400E30D5064000F0B5A3B01A4E1B4DC827009704
S214400E4033464FF47A7202A92846184CA0470097BA
S214400E5033464FF47A7202A92846A0470097334695
S214400E604FF47A7202A92846A0474FF4C8760096F7
S214400E700F4B4FF47A7202A92846A04700960D4BB6
S214400E804FF47A7202A92846A04700960A4B4FF4C0
S214400E907A7202A92846A04702A90848084B9847F4
S214400EA023B0F0BD5013400000400240810C40008B
S214400EB05413400060134000701340007C13400001
S214400EC0A50C40002DE9F043A3B0364E364DC8275A
S214400ED0009733464FF47A7202A92846334CA0470F
S214400EE0009733464FF47A7202A92846A0470097E7
S214400EF033464FF47A7202A92846A047DFF8CC90D2
S214400F004FF4C878CDF800804B464FF47A7202A969
S214400F102846A047CDF80080254B4FF47A7202A9A8
S214400F202846A047234F02A93846234EB047CDF85F
S214400F300080224B4FF47A7202A92846A04702A9A5
S214400F403846B047CDF800801D4B4FF47A7202A960
S214400F502846A04702A93846B0474FF44873009346
S214400F604B464FF47A7202A92846A04702A9384653
S214400F70B04742F210730093124B4FF47A7202A9B4
S214400F802846A04702A93846B0474FF47A720092E6
S214400F900D4B02A92846A04702A93846B04723B0C1
S214400FA0BDE8F08350134000001C0E40810C40000A
S214400FB0FC1240000C134000A50C400020134000DB
S214400FC02C13400038134000441340005413400094
S214400FD080B5ADF5806D1B4B98471B4B98471B4B18
S214400FE01B4A5A60E0211B4A82F8231000229A606E
S214400FF007221A60184B9847184D19492846194C2D
S214401000A04719492846A047184B9847184B984779
S21440101018492846A047184B9847184B9847184FEA
S214401020184E254639463046A8474FF47A734FF453
S214401030806269461448154CA04769461448154BCB
S2144010409847EFE74D044000DD03400010E000E025
S214401050DF93040000ED00E0E50C40000080024015
S21440106090134000090C4000A4134000410D40007E
S214401070350E4000BC134000C10D4000C50E400078
S214401080D4134000001C0E4000400240290C400093
S214401090D8134000A50C400070B50F4E0F4D761B80
S2144010A0B61018BF002405D0013455F8043B9847C5
S2144010B0A642F9D10A4E0B4D761B00F097F9B610B2
S2144010C018BF002406D0013455F8043B9847A64282
S2144010D0F9D170BD70BD00BFF8134000F813400052
S2144010E000144000F813400000000000000000001C
S2144010F000000000000000000000000000000000AB
S21440110090F800F06DE9024520F007016FF0000C02
S21440111010F0070491F820F040F049804FF00004AA
S2144011206FF00700D1E9002391F840F000F1080085
S21440113082FA4CF2A4FA8CF283FA4CF3A2FA8CF3BD
S2144011404BBBD1E9022382FA4CF200F10800A4FA24
S2144011508CF283FA4CF3A2FA8CF3E3B9D1E9042378
S21440116082FA4CF200F10800A4FA8CF283FA4CF3AF
S214401170A2FA8CF37BB9D1E9062301F1200182FA69
S2144011804CF200F10800A4FA8CF283FA4CF3A2FA6F
S2144011908CF3002BC6D0002A04BF04301A4612BA7D
S2144011A0B2FA82F2FDE8024500EBD2007047D1E980
S2144011B0002304F00305C4F100004FEAC50514F00F
S2144011C0040F91F840F00CFA05F562EA05021CBFE0
S2144011D063EA050362464FF00004A9E7024B13B1E9
S2144011E0024800F005B8704700000000FD114000BE
S2144011F0002301461A46184600F01EB838B50A4C79
S2144012000A4D641BA4100AD004F18043013B05EB51
S2144012108305013C55F804399847002CF9D1BDE8C0
S214401220384000F0EDB800BF101440000C144000E9
S214401230704700BF704700BF2DE9F8432C4D064667
S214401240286898460F469146FFF7F2FF294B1C68E0
S214401250D4F84831002B3ED05A681F2A1CDC02F1D5
S214401260010E76B103EB82010124C1F88890D3F8D1
S214401270880194402043022EC3F88801C1F80881B3
S21440128023D00232C3F804E0286843F82270FFF700
S214401290D1FF0020BDE8F883174B0BB34FF4C8705E
S2144012A0AFF300800346D8B1D4F84821026000214D
S2144012B041600A46C4F848014FF0010EC0F8881154
S2144012C0C0F88C11002EDCD0CCE7D3F88C110C4340
S2144012D0C3F88C41D5E704F5A673C4F84831BBE79C
S2144012E02868FFF7A7FF4FF0FF30BDE8F88300BF40
S2144012F030044020E81340000000000041542B4ECC
S214401300414D45436C69656E74000000686D313030
S2144013105F636C69656E745F696E69740000000097
S21440132041542B494D4D45310000000041542B524D
S2144013304F4C45310000000041542B444953433F35
S2144013400000000041542B434F4E4E30000000003A
S2144013504154000041542B52455345540000000070
S21440136041542B4E414D45536572766572000000E0
S21440137041542B524F4C453000000000686D3130D0
S2144013805F7365727665725F696E6974000000000F
S214401390496E696369616C697A616E646F2E2E2E40
S2144013A00D0A0000436F6E6669672048433035205B
S2144013B05365727665722E2E2E0D0A00436F6E664A
S2144013C06967204843303520436C69656E742E2E1D
S2144013D02E0D0A004F490A006D61696E000000003C
S2144013E05B0000005D20000008004020F8B500BF0C
S2144013F0F8BC08BC9E467047DD11400065014000C1
S214401400F8B500BFF8BC08BC9E4670474101400096
S2144014100100000000093D0000000000F4024020EA
S2144014205C034020C4034020000000000000000091
S2144014300000000000000000000000000000000067
S2144014400000000000000000000000000000000057
S2144014500000000000000000000000000000000047
S2144014600000000000000000000000000000000037
S2144014700000000000000000000000000000000027
S2144014800000000000000000000000000000000017
S2144014900000000000000000000000000000000007
S2144014A000000000000000000000000000000000F7
S2144014B000000000000000000000000000000000E7
S2144014C001000000000000000E33CDAB34126DE684
S2144014D0ECDE05000B0000000000000000000000ED
S2144014E000000000000000000000000000000000B7
S2144014F000000000000000000000000000000000A7
S2144015000000000000000000000000000000000096
S2144015100000000000000000000000000000000086
S208401840C804402033
S80440099919
